{
  "contractName": "Dex",
  "abi": [
    {
      "inputs": [],
      "stateMutability": "nonpayable",
      "type": "constructor"
    },
    {
      "anonymous": false,
      "inputs": [
        {
          "indexed": false,
          "internalType": "address",
          "name": "trader",
          "type": "address"
        },
        {
          "indexed": false,
          "internalType": "bytes32",
          "name": "ticker",
          "type": "bytes32"
        },
        {
          "indexed": false,
          "internalType": "enum OrdersManagement.Side",
          "name": "side",
          "type": "uint8"
        },
        {
          "indexed": false,
          "internalType": "uint256",
          "name": "amount",
          "type": "uint256"
        },
        {
          "indexed": false,
          "internalType": "uint256",
          "name": "averagePrice",
          "type": "uint256"
        },
        {
          "indexed": false,
          "internalType": "uint256",
          "name": "filled",
          "type": "uint256"
        }
      ],
      "name": "NewTrade",
      "type": "event"
    },
    {
      "anonymous": false,
      "inputs": [
        {
          "indexed": false,
          "internalType": "uint256",
          "name": "c",
          "type": "uint256"
        }
      ],
      "name": "log",
      "type": "event"
    },
    {
      "inputs": [
        {
          "internalType": "bytes32",
          "name": "ticker",
          "type": "bytes32"
        },
        {
          "internalType": "enum OrdersManagement.Side",
          "name": "side",
          "type": "uint8"
        },
        {
          "internalType": "uint256",
          "name": "amount",
          "type": "uint256"
        },
        {
          "internalType": "uint256",
          "name": "price",
          "type": "uint256"
        }
      ],
      "name": "LimitOrder",
      "outputs": [],
      "stateMutability": "nonpayable",
      "type": "function"
    },
    {
      "inputs": [
        {
          "internalType": "bytes32",
          "name": "ticker",
          "type": "bytes32"
        },
        {
          "internalType": "enum OrdersManagement.Side",
          "name": "side",
          "type": "uint8"
        },
        {
          "internalType": "uint256",
          "name": "amount",
          "type": "uint256"
        }
      ],
      "name": "MarketOrder",
      "outputs": [],
      "stateMutability": "nonpayable",
      "type": "function"
    },
    {
      "inputs": [
        {
          "internalType": "bytes32",
          "name": "ticker",
          "type": "bytes32"
        },
        {
          "internalType": "address",
          "name": "traderAddress",
          "type": "address"
        }
      ],
      "name": "getBalance",
      "outputs": [
        {
          "internalType": "uint256",
          "name": "",
          "type": "uint256"
        }
      ],
      "stateMutability": "view",
      "type": "function",
      "constant": true
    },
    {
      "inputs": [
        {
          "internalType": "bytes32",
          "name": "ticker",
          "type": "bytes32"
        },
        {
          "internalType": "enum OrdersManagement.Side",
          "name": "side",
          "type": "uint8"
        }
      ],
      "name": "getOrders",
      "outputs": [
        {
          "components": [
            {
              "internalType": "uint256",
              "name": "id",
              "type": "uint256"
            },
            {
              "internalType": "address",
              "name": "trader",
              "type": "address"
            },
            {
              "internalType": "bytes32",
              "name": "ticker",
              "type": "bytes32"
            },
            {
              "internalType": "enum OrdersManagement.Side",
              "name": "side",
              "type": "uint8"
            },
            {
              "internalType": "uint256",
              "name": "amount",
              "type": "uint256"
            },
            {
              "internalType": "uint256",
              "name": "price",
              "type": "uint256"
            },
            {
              "internalType": "uint256",
              "name": "filledAmount",
              "type": "uint256"
            }
          ],
          "internalType": "struct OrdersManagement.Order[]",
          "name": "",
          "type": "tuple[]"
        }
      ],
      "stateMutability": "view",
      "type": "function",
      "constant": true
    },
    {
      "inputs": [],
      "name": "owner",
      "outputs": [
        {
          "internalType": "address",
          "name": "",
          "type": "address"
        }
      ],
      "stateMutability": "view",
      "type": "function",
      "constant": true
    },
    {
      "inputs": [
        {
          "internalType": "bytes32",
          "name": "",
          "type": "bytes32"
        }
      ],
      "name": "tokens",
      "outputs": [
        {
          "internalType": "bytes32",
          "name": "ticker",
          "type": "bytes32"
        },
        {
          "internalType": "string",
          "name": "tokenName",
          "type": "string"
        },
        {
          "internalType": "address",
          "name": "tokenAddress",
          "type": "address"
        }
      ],
      "stateMutability": "view",
      "type": "function",
      "constant": true
    },
    {
      "inputs": [
        {
          "internalType": "uint256",
          "name": "",
          "type": "uint256"
        }
      ],
      "name": "tokensList",
      "outputs": [
        {
          "internalType": "bytes32",
          "name": "",
          "type": "bytes32"
        }
      ],
      "stateMutability": "view",
      "type": "function",
      "constant": true
    },
    {
      "inputs": [
        {
          "internalType": "address",
          "name": "",
          "type": "address"
        },
        {
          "internalType": "bytes32",
          "name": "",
          "type": "bytes32"
        }
      ],
      "name": "tradersBalances",
      "outputs": [
        {
          "internalType": "uint256",
          "name": "",
          "type": "uint256"
        }
      ],
      "stateMutability": "view",
      "type": "function",
      "constant": true
    },
    {
      "inputs": [],
      "name": "getTokens",
      "outputs": [
        {
          "components": [
            {
              "internalType": "bytes32",
              "name": "ticker",
              "type": "bytes32"
            },
            {
              "internalType": "string",
              "name": "tokenName",
              "type": "string"
            },
            {
              "internalType": "address",
              "name": "tokenAddress",
              "type": "address"
            }
          ],
          "internalType": "struct Helper.token[]",
          "name": "",
          "type": "tuple[]"
        }
      ],
      "stateMutability": "view",
      "type": "function",
      "constant": true
    },
    {
      "inputs": [
        {
          "internalType": "bytes32",
          "name": "ticker",
          "type": "bytes32"
        },
        {
          "internalType": "string",
          "name": "tokenName",
          "type": "string"
        },
        {
          "internalType": "address",
          "name": "tokenAddress",
          "type": "address"
        }
      ],
      "name": "addNewToken",
      "outputs": [],
      "stateMutability": "nonpayable",
      "type": "function"
    },
    {
      "inputs": [
        {
          "internalType": "bytes32",
          "name": "ticker",
          "type": "bytes32"
        },
        {
          "internalType": "uint256",
          "name": "amount",
          "type": "uint256"
        }
      ],
      "name": "deposit",
      "outputs": [],
      "stateMutability": "nonpayable",
      "type": "function"
    },
    {
      "inputs": [
        {
          "internalType": "bytes32",
          "name": "ticker",
          "type": "bytes32"
        },
        {
          "internalType": "uint256",
          "name": "amount",
          "type": "uint256"
        }
      ],
      "name": "withdraw",
      "outputs": [],
      "stateMutability": "nonpayable",
      "type": "function"
    }
  ],
  "bytecode": "0x608060405234801561001057600080fd5b50336000806101000a81548173ffffffffffffffffffffffffffffffffffffffff021916908373ffffffffffffffffffffffffffffffffffffffff1602179055506137e2806100606000396000f3fe608060405234801561001057600080fd5b50600436106100b45760003560e01c8063627e89b311610071578063627e89b3146101b15780638da5cb5b146101cd578063904194a3146101eb578063aa6ca8081461021d578063e8b5fa231461023b578063ef5099b414610257576100b4565b8063040cf020146100b95780631de26e16146100d557806346e9658b146100f15780634d12e34e14610121578063530e931c1461015157806354c6d71314610181575b600080fd5b6100d360048036038101906100ce919061243e565b610273565b005b6100ef60048036038101906100ea919061243e565b610483565b005b61010b600480360381019061010691906124a3565b610602565b60405161011891906126f6565b60405180910390f35b61013b60048036038101906101369190612718565b61076d565b6040516101489190612754565b60405180910390f35b61016b6004803603810190610166919061279b565b610791565b60405161017891906127ea565b60405180910390f35b61019b60048036038101906101969190612805565b610849565b6040516101a891906127ea565b60405180910390f35b6101cb60048036038101906101c69190612845565b61086e565b005b6101d56111f0565b6040516101e291906128a7565b60405180910390f35b610205600480360381019061020091906128c2565b611214565b6040516102149392919061297f565b60405180910390f35b6102256112e6565b6040516102329190612b19565b60405180910390f35b61025560048036038101906102509190612c70565b611503565b005b610271600480360381019061026c9190612cdf565b6116d0565b005b816000801b6002600083815260200190815260200160002060000154036102cf576040517f08c379a00000000000000000000000000000000000000000000000000000000081526004016102c690612d92565b60405180910390fd5b81600360003373ffffffffffffffffffffffffffffffffffffffff1673ffffffffffffffffffffffffffffffffffffffff1681526020019081526020016000206000858152602001908152602001600020541015610362576040517f08c379a000000000000000000000000000000000000000000000000000000000815260040161035990612dfe565b60405180910390fd5b6002600084815260200190815260200160002060020160009054906101000a900473ffffffffffffffffffffffffffffffffffffffff1673ffffffffffffffffffffffffffffffffffffffff1663a9059cbb33846040518363ffffffff1660e01b81526004016103d3929190612e1e565b6020604051808303816000875af11580156103f2573d6000803e3d6000fd5b505050506040513d601f19601f820116820180604052508101906104169190612e7f565b5081600360003373ffffffffffffffffffffffffffffffffffffffff1673ffffffffffffffffffffffffffffffffffffffff168152602001908152602001600020600085815260200190815260200160002060008282546104779190612edb565b92505081905550505050565b816000801b6002600083815260200190815260200160002060000154036104df576040517f08c379a00000000000000000000000000000000000000000000000000000000081526004016104d690612d92565b60405180910390fd5b6002600084815260200190815260200160002060020160009054906101000a900473ffffffffffffffffffffffffffffffffffffffff1673ffffffffffffffffffffffffffffffffffffffff166323b872dd3330856040518463ffffffff1660e01b815260040161055293929190612f0f565b6020604051808303816000875af1158015610571573d6000803e3d6000fd5b505050506040513d601f19601f820116820180604052508101906105959190612e7f565b5081600360003373ffffffffffffffffffffffffffffffffffffffff1673ffffffffffffffffffffffffffffffffffffffff168152602001908152602001600020600085815260200190815260200160002060008282546105f69190612f46565b92505081905550505050565b606060056000848152602001908152602001600020600083600181111561062c5761062b61256e565b5b600181111561063e5761063d61256e565b5b8152602001908152602001600020805480602002602001604051908101604052809291908181526020016000905b8282101561076157838290600052602060002090600702016040518060e0016040529081600082015481526020016001820160009054906101000a900473ffffffffffffffffffffffffffffffffffffffff1673ffffffffffffffffffffffffffffffffffffffff1673ffffffffffffffffffffffffffffffffffffffff168152602001600282015481526020016003820160009054906101000a900460ff16600181111561071e5761071d61256e565b5b60018111156107305761072f61256e565b5b815260200160048201548152602001600582015481526020016006820154815250508152602001906001019061066c565b50505050905092915050565b6001818154811061077d57600080fd5b906000526020600020016000915090505481565b6000826000801b6002600083815260200190815260200160002060000154036107ef576040517f08c379a00000000000000000000000000000000000000000000000000000000081526004016107e690612d92565b60405180910390fd5b600360008473ffffffffffffffffffffffffffffffffffffffff1673ffffffffffffffffffffffffffffffffffffffff16815260200190815260200160002060008581526020019081526020016000205491505092915050565b6003602052816000526040600020602052806000526040600020600091509150505481565b826000801b6002600083815260200190815260200160002060000154036108ca576040517f08c379a00000000000000000000000000000000000000000000000000000000081526004016108c190612d92565b60405180910390fd5b600060018111156108de576108dd61256e565b5b8360018111156108f1576108f061256e565b5b0315610986576109018433610791565b821115846040516020016109159190612f9b565b6040516020818303038152906040526040516020016109349190613018565b60405160208183030381529060405290610984576040517f08c379a000000000000000000000000000000000000000000000000000000000815260040161097b919061303e565b60405180910390fd5b505b60006005600086815260200190815260200160002060008060018111156109b0576109af61256e565b5b8660018111156109c3576109c261256e565b5b146109cf5760006109d2565b60015b60018111156109e4576109e361256e565b5b60018111156109f6576109f561256e565b5b8152602001908152602001600020905060008390506000806001811115610a2057610a1f61256e565b5b866001811115610a3357610a3261256e565b5b14610a4e5760018380549050610a49919061306a565b610a51565b60005b90506000805b60008414158015610a8757507fffffffffffffffffffffffffffffffffffffffffffffffffffffffffffffffff83135b8015610a965750848054905083125b15611156576000858481548110610ab057610aaf6130ad565b5b90600052602060002090600702019050600081600601548260040154610ad69190612edb565b90506000868210610ae957869050610aed565b8190505b60006001811115610b0157610b0061256e565b5b8b6001811115610b1457610b1361256e565b5b03610be2576000836005015482610b2b91906130dc565b905080600360003373ffffffffffffffffffffffffffffffffffffffff1673ffffffffffffffffffffffffffffffffffffffff16815260200190815260200160002060007f44414900000000000000000000000000000000000000000000000000000000008152602001908152602001600020541015610be0576040517f08c379a0000000000000000000000000000000000000000000000000000000008152600401610bd79061316a565b60405180910390fd5b505b80888781548110610bf657610bf56130ad565b5b90600052602060002090600702016006016000828254610c169190612f46565b9250508190555060006001811115610c3157610c3061256e565b5b8b6001811115610c4457610c4361256e565b5b03610e905780600360003373ffffffffffffffffffffffffffffffffffffffff1673ffffffffffffffffffffffffffffffffffffffff16815260200190815260200160002060008e81526020019081526020016000206000828254610ca99190612f46565b92505081905550826005015481610cc091906130dc565b600360003373ffffffffffffffffffffffffffffffffffffffff1673ffffffffffffffffffffffffffffffffffffffff16815260200190815260200160002060007f444149000000000000000000000000000000000000000000000000000000000081526020019081526020016000206000828254610d3f9190612edb565b9250508190555080600360008560010160009054906101000a900473ffffffffffffffffffffffffffffffffffffffff1673ffffffffffffffffffffffffffffffffffffffff1673ffffffffffffffffffffffffffffffffffffffff16815260200190815260200160002060008e81526020019081526020016000206000828254610dca9190612edb565b92505081905550826005015481610de191906130dc565b600360008560010160009054906101000a900473ffffffffffffffffffffffffffffffffffffffff1673ffffffffffffffffffffffffffffffffffffffff1673ffffffffffffffffffffffffffffffffffffffff16815260200190815260200160002060007f444149000000000000000000000000000000000000000000000000000000000081526020019081526020016000206000828254610e849190612f46565b925050819055506110d3565b80600360003373ffffffffffffffffffffffffffffffffffffffff1673ffffffffffffffffffffffffffffffffffffffff16815260200190815260200160002060008e81526020019081526020016000206000828254610ef09190612edb565b92505081905550826005015481610f0791906130dc565b600360003373ffffffffffffffffffffffffffffffffffffffff1673ffffffffffffffffffffffffffffffffffffffff16815260200190815260200160002060007f444149000000000000000000000000000000000000000000000000000000000081526020019081526020016000206000828254610f869190612f46565b9250508190555080600360008560010160009054906101000a900473ffffffffffffffffffffffffffffffffffffffff1673ffffffffffffffffffffffffffffffffffffffff1673ffffffffffffffffffffffffffffffffffffffff16815260200190815260200160002060008e815260200190815260200160002060008282546110119190612f46565b9250508190555082600501548161102891906130dc565b600360008560010160009054906101000a900473ffffffffffffffffffffffffffffffffffffffff1673ffffffffffffffffffffffffffffffffffffffff1673ffffffffffffffffffffffffffffffffffffffff16815260200190815260200160002060007f4441490000000000000000000000000000000000000000000000000000000000815260200190815260200160002060008282546110cb9190612edb565b925050819055505b80876110df9190612edb565b96508260050154856110f19190612f46565b945083806110fe9061318a565b945050600060018111156111155761111461256e565b5b8b60018111156111285761112761256e565b5b1461113f578580611138906131d2565b965061114d565b858061114a9061321a565b96505b50505050610a57565b61116085896119a5565b5060008111156111e5576000876064868a61117b9190612edb565b61118591906130dc565b61118f9190613291565b90506000828461119f9190613291565b90507f1fd2dbfc8346e62b50fd4267a5cf8a03dd83cad0e15058cefd21a91ab03c309f338c8c8c85876040516111da969594939291906132d1565b60405180910390a150505b505050505050505050565b60008054906101000a900473ffffffffffffffffffffffffffffffffffffffff1681565b600260205280600052604060002060009150905080600001549080600101805461123d90613361565b80601f016020809104026020016040519081016040528092919081815260200182805461126990613361565b80156112b65780601f1061128b576101008083540402835291602001916112b6565b820191906000526020600020905b81548152906001019060200180831161129957829003601f168201915b5050505050908060020160009054906101000a900473ffffffffffffffffffffffffffffffffffffffff16905083565b6060600060018054905067ffffffffffffffff81111561130957611308612b45565b5b60405190808252806020026020018201604052801561134257816020015b61132f6121dc565b8152602001906001900390816113275790505b50905060005b6001805490508110156114fb5760405180606001604052806002600060018581548110611378576113776130ad565b5b9060005260206000200154815260200190815260200160002060000154815260200160026000600185815481106113b2576113b16130ad565b5b9060005260206000200154815260200190815260200160002060010180546113d990613361565b80601f016020809104026020016040519081016040528092919081815260200182805461140590613361565b80156114525780601f1061142757610100808354040283529160200191611452565b820191906000526020600020905b81548152906001019060200180831161143557829003601f168201915b505050505081526020016002600060018581548110611474576114736130ad565b5b9060005260206000200154815260200190815260200160002060020160009054906101000a900473ffffffffffffffffffffffffffffffffffffffff1673ffffffffffffffffffffffffffffffffffffffff168152508282815181106114dd576114dc6130ad565b5b602002602001018190525080806114f39061318a565b915050611348565b508091505090565b826000801b60026000838152602001908152602001600020600001541461155f576040517f08c379a0000000000000000000000000000000000000000000000000000000008152600401611556906133de565b60405180910390fd5b60008054906101000a900473ffffffffffffffffffffffffffffffffffffffff1673ffffffffffffffffffffffffffffffffffffffff163373ffffffffffffffffffffffffffffffffffffffff16146115ed576040517f08c379a00000000000000000000000000000000000000000000000000000000081526004016115e49061344a565b60405180910390fd5b600060405180606001604052808681526020018581526020018473ffffffffffffffffffffffffffffffffffffffff16815250905080600260008781526020019081526020016000206000820151816000015560208201518160010190816116559190613616565b5060408201518160020160006101000a81548173ffffffffffffffffffffffffffffffffffffffff021916908373ffffffffffffffffffffffffffffffffffffffff16021790555090505060018590806001815401808255809150506001900390600052602060002001600090919091909150555050505050565b836000801b60026000838152602001908152602001600020600001540361172c576040517f08c379a000000000000000000000000000000000000000000000000000000000815260040161172390612d92565b60405180910390fd5b600060018111156117405761173f61256e565b5b8460018111156117535761175261256e565b5b036117da576000828461176691906130dc565b90506117927f444149000000000000000000000000000000000000000000000000000000000033610791565b8111156117d4576040517f08c379a00000000000000000000000000000000000000000000000000000000081526004016117cb90613734565b60405180910390fd5b50611869565b6117e48533610791565b831115856040516020016117f89190612f9b565b6040516020818303038152906040526040516020016118179190613018565b60405160208183030381529060405290611867576040517f08c379a000000000000000000000000000000000000000000000000000000000815260040161185e919061303e565b60405180910390fd5b505b60006005600087815260200190815260200160002060008660018111156118935761189261256e565b5b60018111156118a5576118a461256e565b5b8152602001908152602001600020905060006040518060e0016040528060016004546118d19190612f46565b81526020013373ffffffffffffffffffffffffffffffffffffffff16815260200188815260200187600181111561190b5761190a61256e565b5b81526020018681526020018581526020016000815250905061192d8183611d78565b6005600089815260200190815260200160002060008860018111156119555761195461256e565b5b60018111156119675761196661256e565b5b8152602001908152602001600020908054611983929190612216565b50600460008154809291906119979061318a565b919050555050505050505050565b600080600060018111156119bc576119bb61256e565b5b8360018111156119cf576119ce61256e565b5b146119ea57600184805490506119e5919061306a565b6119ed565b60005b90505b838054905081128015611a2257507fffffffffffffffffffffffffffffffffffffffffffffffffffffffffffffffff81135b8015611a755750838181548110611a3c57611a3b6130ad565b5b906000526020600020906007020160040154848281548110611a6157611a606130ad565b5b906000526020600020906007020160060154145b15611d6e5760006001811115611a8e57611a8d61256e565b5b836001811115611aa157611aa061256e565b5b03611c8e5760005b60018580549050611aba9190612edb565b811015611bfb5784600182611acf9190612f46565b81548110611ae057611adf6130ad565b5b9060005260206000209060070201858281548110611b0157611b006130ad565b5b9060005260206000209060070201600082015481600001556001820160009054906101000a900473ffffffffffffffffffffffffffffffffffffffff168160010160006101000a81548173ffffffffffffffffffffffffffffffffffffffff021916908373ffffffffffffffffffffffffffffffffffffffff160217905550600282015481600201556003820160009054906101000a900460ff168160030160006101000a81548160ff02191690836001811115611bc257611bc161256e565b5b02179055506004820154816004015560058201548160050155600682015481600601559050508080611bf39061318a565b915050611aa9565b5083805480611c0d57611c0c613754565b5b60019003818190600052602060002090600702016000808201600090556001820160006101000a81549073ffffffffffffffffffffffffffffffffffffffff021916905560028201600090556003820160006101000a81549060ff021916905560048201600090556005820160009055600682016000905550509055611d1c565b83805480611c9f57611c9e613754565b5b60019003818190600052602060002090600702016000808201600090556001820160006101000a81549073ffffffffffffffffffffffffffffffffffffffff021916905560028201600090556003820160006101000a81549060ff0219169055600482016000905560058201600090556006820160009055505090555b60006001811115611d3057611d2f61256e565b5b836001811115611d4357611d4261256e565b5b14611d5a578080611d53906131d2565b9150611d68565b8080611d659061321a565b91505b506119f0565b8391505092915050565b6000818390806001815401808255809150506001900390600052602060002090600702016000909190919091506000820151816000015560208201518160010160006101000a81548173ffffffffffffffffffffffffffffffffffffffff021916908373ffffffffffffffffffffffffffffffffffffffff1602179055506040820151816002015560608201518160030160006101000a81548160ff02191690836001811115611e2b57611e2a61256e565b5b02179055506080820151816004015560a0820151816005015560c082015181600601555050600060018380549050611e639190612edb565b90505b600181036121d25782600182611e7c9190612edb565b81548110611e8d57611e8c6130ad565b5b906000526020600020906007020160050154838281548110611eb257611eb16130ad565b5b90600052602060002090600702016005015410156121d257600083600183611eda9190612edb565b81548110611eeb57611eea6130ad565b5b90600052602060002090600702016040518060e0016040529081600082015481526020016001820160009054906101000a900473ffffffffffffffffffffffffffffffffffffffff1673ffffffffffffffffffffffffffffffffffffffff1673ffffffffffffffffffffffffffffffffffffffff168152602001600282015481526020016003820160009054906101000a900460ff166001811115611f9357611f9261256e565b5b6001811115611fa557611fa461256e565b5b815260200160048201548152602001600582015481526020016006820154815250509050838281548110611fdc57611fdb6130ad565b5b906000526020600020906007020184600184611ff89190612edb565b81548110612009576120086130ad565b5b9060005260206000209060070201600082015481600001556001820160009054906101000a900473ffffffffffffffffffffffffffffffffffffffff168160010160006101000a81548173ffffffffffffffffffffffffffffffffffffffff021916908373ffffffffffffffffffffffffffffffffffffffff160217905550600282015481600201556003820160009054906101000a900460ff168160030160006101000a81548160ff021916908360018111156120ca576120c961256e565b5b021790555060048201548160040155600582015481600501556006820154816006015590505080848381548110612104576121036130ad565b5b90600052602060002090600702016000820151816000015560208201518160010160006101000a81548173ffffffffffffffffffffffffffffffffffffffff021916908373ffffffffffffffffffffffffffffffffffffffff1602179055506040820151816002015560608201518160030160006101000a81548160ff021916908360018111156121985761219761256e565b5b02179055506080820151816004015560a0820151816005015560c082015181600601559050505080806121ca90613783565b915050611e66565b5081905092915050565b60405180606001604052806000801916815260200160608152602001600073ffffffffffffffffffffffffffffffffffffffff1681525090565b8280548282559060005260206000209060070281019282156123335760005260206000209160070282015b82811115612332578282600082015481600001556001820160009054906101000a900473ffffffffffffffffffffffffffffffffffffffff168160010160006101000a81548173ffffffffffffffffffffffffffffffffffffffff021916908373ffffffffffffffffffffffffffffffffffffffff160217905550600282015481600201556003820160009054906101000a900460ff168160030160006101000a81548160ff021916908360018111156122fe576122fd61256e565b5b0217905550600482015481600401556005820154816005015560068201548160060155505091600701919060070190612241565b5b5090506123409190612344565b5090565b5b808211156123ba576000808201600090556001820160006101000a81549073ffffffffffffffffffffffffffffffffffffffff021916905560028201600090556003820160006101000a81549060ff021916905560048201600090556005820160009055600682016000905550600701612345565b5090565b6000604051905090565b600080fd5b600080fd5b6000819050919050565b6123e5816123d2565b81146123f057600080fd5b50565b600081359050612402816123dc565b92915050565b6000819050919050565b61241b81612408565b811461242657600080fd5b50565b60008135905061243881612412565b92915050565b60008060408385031215612455576124546123c8565b5b6000612463858286016123f3565b925050602061247485828601612429565b9150509250929050565b6002811061248b57600080fd5b50565b60008135905061249d8161247e565b92915050565b600080604083850312156124ba576124b96123c8565b5b60006124c8858286016123f3565b92505060206124d98582860161248e565b9150509250929050565b600081519050919050565b600082825260208201905092915050565b6000819050602082019050919050565b61251881612408565b82525050565b600073ffffffffffffffffffffffffffffffffffffffff82169050919050565b60006125498261251e565b9050919050565b6125598161253e565b82525050565b612568816123d2565b82525050565b7f4e487b7100000000000000000000000000000000000000000000000000000000600052602160045260246000fd5b600281106125ae576125ad61256e565b5b50565b60008190506125bf8261259d565b919050565b60006125cf826125b1565b9050919050565b6125df816125c4565b82525050565b60e0820160008201516125fb600085018261250f565b50602082015161260e6020850182612550565b506040820151612621604085018261255f565b50606082015161263460608501826125d6565b506080820151612647608085018261250f565b5060a082015161265a60a085018261250f565b5060c082015161266d60c085018261250f565b50505050565b600061267f83836125e5565b60e08301905092915050565b6000602082019050919050565b60006126a3826124e3565b6126ad81856124ee565b93506126b8836124ff565b8060005b838110156126e95781516126d08882612673565b97506126db8361268b565b9250506001810190506126bc565b5085935050505092915050565b600060208201905081810360008301526127108184612698565b905092915050565b60006020828403121561272e5761272d6123c8565b5b600061273c84828501612429565b91505092915050565b61274e816123d2565b82525050565b60006020820190506127696000830184612745565b92915050565b6127788161253e565b811461278357600080fd5b50565b6000813590506127958161276f565b92915050565b600080604083850312156127b2576127b16123c8565b5b60006127c0858286016123f3565b92505060206127d185828601612786565b9150509250929050565b6127e481612408565b82525050565b60006020820190506127ff60008301846127db565b92915050565b6000806040838503121561281c5761281b6123c8565b5b600061282a85828601612786565b925050602061283b858286016123f3565b9150509250929050565b60008060006060848603121561285e5761285d6123c8565b5b600061286c868287016123f3565b935050602061287d8682870161248e565b925050604061288e86828701612429565b9150509250925092565b6128a18161253e565b82525050565b60006020820190506128bc6000830184612898565b92915050565b6000602082840312156128d8576128d76123c8565b5b60006128e6848285016123f3565b91505092915050565b600081519050919050565b600082825260208201905092915050565b60005b8381101561292957808201518184015260208101905061290e565b60008484015250505050565b6000601f19601f8301169050919050565b6000612951826128ef565b61295b81856128fa565b935061296b81856020860161290b565b61297481612935565b840191505092915050565b60006060820190506129946000830186612745565b81810360208301526129a68185612946565b90506129b56040830184612898565b949350505050565b600081519050919050565b600082825260208201905092915050565b6000819050602082019050919050565b600082825260208201905092915050565b6000612a05826128ef565b612a0f81856129e9565b9350612a1f81856020860161290b565b612a2881612935565b840191505092915050565b6000606083016000830151612a4b600086018261255f565b5060208301518482036020860152612a6382826129fa565b9150506040830151612a786040860182612550565b508091505092915050565b6000612a8f8383612a33565b905092915050565b6000602082019050919050565b6000612aaf826129bd565b612ab981856129c8565b935083602082028501612acb856129d9565b8060005b85811015612b075784840389528151612ae88582612a83565b9450612af383612a97565b925060208a01995050600181019050612acf565b50829750879550505050505092915050565b60006020820190508181036000830152612b338184612aa4565b905092915050565b600080fd5b600080fd5b7f4e487b7100000000000000000000000000000000000000000000000000000000600052604160045260246000fd5b612b7d82612935565b810181811067ffffffffffffffff82111715612b9c57612b9b612b45565b5b80604052505050565b6000612baf6123be565b9050612bbb8282612b74565b919050565b600067ffffffffffffffff821115612bdb57612bda612b45565b5b612be482612935565b9050602081019050919050565b82818337600083830152505050565b6000612c13612c0e84612bc0565b612ba5565b905082815260208101848484011115612c2f57612c2e612b40565b5b612c3a848285612bf1565b509392505050565b600082601f830112612c5757612c56612b3b565b5b8135612c67848260208601612c00565b91505092915050565b600080600060608486031215612c8957612c886123c8565b5b6000612c97868287016123f3565b935050602084013567ffffffffffffffff811115612cb857612cb76123cd565b5b612cc486828701612c42565b9250506040612cd586828701612786565b9150509250925092565b60008060008060808587031215612cf957612cf86123c8565b5b6000612d07878288016123f3565b9450506020612d188782880161248e565b9350506040612d2987828801612429565b9250506060612d3a87828801612429565b91505092959194509250565b7f54686520746f6b656e20646f6573206e6f742065786973740000000000000000600082015250565b6000612d7c6018836128fa565b9150612d8782612d46565b602082019050919050565b60006020820190508181036000830152612dab81612d6f565b9050919050565b7f496e73756666696369656e742062616c616e6365000000000000000000000000600082015250565b6000612de86014836128fa565b9150612df382612db2565b602082019050919050565b60006020820190508181036000830152612e1781612ddb565b9050919050565b6000604082019050612e336000830185612898565b612e4060208301846127db565b9392505050565b60008115159050919050565b612e5c81612e47565b8114612e6757600080fd5b50565b600081519050612e7981612e53565b92915050565b600060208284031215612e9557612e946123c8565b5b6000612ea384828501612e6a565b91505092915050565b7f4e487b7100000000000000000000000000000000000000000000000000000000600052601160045260246000fd5b6000612ee682612408565b9150612ef183612408565b9250828203905081811115612f0957612f08612eac565b5b92915050565b6000606082019050612f246000830186612898565b612f316020830185612898565b612f3e60408301846127db565b949350505050565b6000612f5182612408565b9150612f5c83612408565b9250828201905080821115612f7457612f73612eac565b5b92915050565b6000819050919050565b612f95612f90826123d2565b612f7a565b82525050565b6000612fa78284612f84565b60208201915081905092915050565b7f596f7520646f6e2774206861766520656e6f7567682000000000000000000000815250565b600081905092915050565b6000612ff2826128ef565b612ffc8185612fdc565b935061300c81856020860161290b565b80840191505092915050565b600061302382612fb6565b6016820191506130338284612fe7565b915081905092915050565b600060208201905081810360008301526130588184612946565b905092915050565b6000819050919050565b600061307582613060565b915061308083613060565b92508282039050818112600084121682821360008512151617156130a7576130a6612eac565b5b92915050565b7f4e487b7100000000000000000000000000000000000000000000000000000000600052603260045260246000fd5b60006130e782612408565b91506130f283612408565b925082820261310081612408565b9150828204841483151761311757613116612eac565b5b5092915050565b7f4e6f7420656e6f75676820444149000000000000000000000000000000000000600082015250565b6000613154600e836128fa565b915061315f8261311e565b602082019050919050565b6000602082019050818103600083015261318381613147565b9050919050565b600061319582612408565b91507fffffffffffffffffffffffffffffffffffffffffffffffffffffffffffffffff82036131c7576131c6612eac565b5b600182019050919050565b60006131dd82613060565b91507f8000000000000000000000000000000000000000000000000000000000000000820361320f5761320e612eac565b5b600182039050919050565b600061322582613060565b91507f7fffffffffffffffffffffffffffffffffffffffffffffffffffffffffffffff820361325757613256612eac565b5b600182019050919050565b7f4e487b7100000000000000000000000000000000000000000000000000000000600052601260045260246000fd5b600061329c82612408565b91506132a783612408565b9250826132b7576132b6613262565b5b828204905092915050565b6132cb816125c4565b82525050565b600060c0820190506132e66000830189612898565b6132f36020830188612745565b61330060408301876132c2565b61330d60608301866127db565b61331a60808301856127db565b61332760a08301846127db565b979650505050505050565b7f4e487b7100000000000000000000000000000000000000000000000000000000600052602260045260246000fd5b6000600282049050600182168061337957607f821691505b60208210810361338c5761338b613332565b5b50919050565b7f546865207469636b657220697320616c72656164792074616b656e0000000000600082015250565b60006133c8601b836128fa565b91506133d382613392565b602082019050919050565b600060208201905081810360008301526133f7816133bb565b9050919050565b7f596f7520617265206e6f7420746865206f776e65720000000000000000000000600082015250565b60006134346015836128fa565b915061343f826133fe565b602082019050919050565b6000602082019050818103600083015261346381613427565b9050919050565b60008190508160005260206000209050919050565b60006020601f8301049050919050565b600082821b905092915050565b6000600883026134cc7fffffffffffffffffffffffffffffffffffffffffffffffffffffffffffffffff8261348f565b6134d6868361348f565b95508019841693508086168417925050509392505050565b6000819050919050565b600061351361350e61350984612408565b6134ee565b612408565b9050919050565b6000819050919050565b61352d836134f8565b6135416135398261351a565b84845461349c565b825550505050565b600090565b613556613549565b613561818484613524565b505050565b5b818110156135855761357a60008261354e565b600181019050613567565b5050565b601f8211156135ca5761359b8161346a565b6135a48461347f565b810160208510156135b3578190505b6135c76135bf8561347f565b830182613566565b50505b505050565b600082821c905092915050565b60006135ed600019846008026135cf565b1980831691505092915050565b600061360683836135dc565b9150826002028217905092915050565b61361f826128ef565b67ffffffffffffffff81111561363857613637612b45565b5b6136428254613361565b61364d828285613589565b600060209050601f831160018114613680576000841561366e578287015190505b61367885826135fa565b8655506136e0565b601f19841661368e8661346a565b60005b828110156136b657848901518255600182019150602085019450602081019050613691565b868310156136d357848901516136cf601f8916826135dc565b8355505b6001600288020188555050505b505050505050565b7f596f7520646f6e2774206861766520656e6f7567682044414900000000000000600082015250565b600061371e6019836128fa565b9150613729826136e8565b602082019050919050565b6000602082019050818103600083015261374d81613711565b9050919050565b7f4e487b7100000000000000000000000000000000000000000000000000000000600052603160045260246000fd5b600061378e82612408565b9150600082036137a1576137a0612eac565b5b60018203905091905056fea2646970667358221220d8d2810a7edd918a7d8c2f5f8b15f10e2f1c92c68595966cd8dccd078dc5601364736f6c63430008110033",
  "immutableReferences": {},
  "source": "// SPDX-License-Identifier: MIT\n\npragma solidity ^0.8.4;\nimport \"@openzeppelin/contracts/token/ERC20/IERC20.sol\";\nimport \"./baseContract.sol\";\nimport \"./Orders.sol\";\nimport \"./Traders.sol\";\n\ncontract Dex is Helper, Traders, OrdersManagement {\n    /* This contract has following functionalities\n     1. Create new tokens\n     2. Deposit/Withdraw Token \n     */\n\n    constructor() {\n        owner = msg.sender;\n    }\n\n    function getTokens() external view returns (token[] memory) {\n        token[] memory _tokens = new token[](tokensList.length);\n        for (uint256 i = 0; i < tokensList.length; i++) {\n            _tokens[i] = token(\n                tokens[tokensList[i]].ticker,\n                tokens[tokensList[i]].tokenName,\n                tokens[tokensList[i]].tokenAddress\n            );\n        }\n        return _tokens;\n    }\n\n    function addNewToken(\n        bytes32 ticker,\n        string memory tokenName,\n        address tokenAddress\n    ) external isTickerAvailable(ticker) isOwner {\n        token memory newToken = token(ticker, tokenName, tokenAddress);\n        tokens[ticker] = newToken;\n        tokensList.push(ticker);\n    }\n\n    // confusion\n    function deposit(bytes32 ticker, uint256 amount)\n        external\n        isTokenExist(ticker)\n    {\n        // this is using interface to call transferFrom func of token contract\n        IERC20(tokens[ticker].tokenAddress).transferFrom(\n            msg.sender,\n            address(this),\n            amount\n        );\n\n        // record transaction in DEX ledger\n        tradersBalances[msg.sender][ticker] += amount;\n    }\n\n    function withdraw(bytes32 ticker, uint256 amount)\n        external\n        isTokenExist(ticker)\n    {\n        require(\n            tradersBalances[msg.sender][ticker] >= amount,\n            \"Insufficient balance\"\n        );\n\n        IERC20(tokens[ticker].tokenAddress).transfer(msg.sender, amount);\n\n        // record transaction in DEX ledger\n        tradersBalances[msg.sender][ticker] -= amount;\n    }\n}\n",
  "sourcePath": "/Users/deepanshusingh/blockchain projects/Personal DEX project/contracts/DEX.sol",
  "compiler": {
    "name": "solc",
    "version": "0.8.17+commit.8df45f5f.Emscripten.clang"
  },
  "schemaVersion": "3.4.10",
  "updatedAt": "2022-11-05T19:37:43.735Z",
  "networkType": "ethereum",
  "devdoc": {
    "kind": "dev",
    "methods": {},
    "version": 1
  },
  "userdoc": {
    "kind": "user",
    "methods": {},
    "version": 1
  }
}