{
  "contractName": "Helper",
  "abi": [
    {
      "inputs": [],
      "name": "owner",
      "outputs": [
        {
          "internalType": "address",
          "name": "",
          "type": "address"
        }
      ],
      "stateMutability": "view",
      "type": "function"
    },
    {
      "inputs": [
        {
          "internalType": "bytes32",
          "name": "",
          "type": "bytes32"
        }
      ],
      "name": "tokens",
      "outputs": [
        {
          "internalType": "bytes32",
          "name": "ticker",
          "type": "bytes32"
        },
        {
          "internalType": "string",
          "name": "tokenName",
          "type": "string"
        },
        {
          "internalType": "address",
          "name": "tokenAddress",
          "type": "address"
        }
      ],
      "stateMutability": "view",
      "type": "function"
    },
    {
      "inputs": [
        {
          "internalType": "uint256",
          "name": "",
          "type": "uint256"
        }
      ],
      "name": "tokensList",
      "outputs": [
        {
          "internalType": "bytes32",
          "name": "",
          "type": "bytes32"
        }
      ],
      "stateMutability": "view",
      "type": "function"
    }
  ],
  "bytecode": "0x608060405234801561001057600080fd5b50610495806100206000396000f3fe608060405234801561001057600080fd5b50600436106100415760003560e01c80634d12e34e146100465780638da5cb5b14610076578063904194a314610094575b600080fd5b610060600480360381019061005b919061021b565b6100c6565b60405161006d9190610261565b60405180910390f35b61007e6100ea565b60405161008b91906102bd565b60405180910390f35b6100ae60048036038101906100a99190610304565b61010e565b6040516100bd939291906103c1565b60405180910390f35b600181815481106100d657600080fd5b906000526020600020016000915090505481565b60008054906101000a900473ffffffffffffffffffffffffffffffffffffffff1681565b60026020528060005260406000206000915090508060000154908060010180546101379061042e565b80601f01602080910402602001604051908101604052809291908181526020018280546101639061042e565b80156101b05780601f10610185576101008083540402835291602001916101b0565b820191906000526020600020905b81548152906001019060200180831161019357829003601f168201915b5050505050908060020160009054906101000a900473ffffffffffffffffffffffffffffffffffffffff16905083565b600080fd5b6000819050919050565b6101f8816101e5565b811461020357600080fd5b50565b600081359050610215816101ef565b92915050565b600060208284031215610231576102306101e0565b5b600061023f84828501610206565b91505092915050565b6000819050919050565b61025b81610248565b82525050565b60006020820190506102766000830184610252565b92915050565b600073ffffffffffffffffffffffffffffffffffffffff82169050919050565b60006102a78261027c565b9050919050565b6102b78161029c565b82525050565b60006020820190506102d260008301846102ae565b92915050565b6102e181610248565b81146102ec57600080fd5b50565b6000813590506102fe816102d8565b92915050565b60006020828403121561031a576103196101e0565b5b6000610328848285016102ef565b91505092915050565b600081519050919050565b600082825260208201905092915050565b60005b8381101561036b578082015181840152602081019050610350565b60008484015250505050565b6000601f19601f8301169050919050565b600061039382610331565b61039d818561033c565b93506103ad81856020860161034d565b6103b681610377565b840191505092915050565b60006060820190506103d66000830186610252565b81810360208301526103e88185610388565b90506103f760408301846102ae565b949350505050565b7f4e487b7100000000000000000000000000000000000000000000000000000000600052602260045260246000fd5b6000600282049050600182168061044657607f821691505b602082108103610459576104586103ff565b5b5091905056fea26469706673582212201508d4e3f500bc1c7f8c73aec853e8db19d83ec3cd7966f2e3f1d34de8896b2c64736f6c63430008110033",
  "immutableReferences": {},
  "source": "// SPDX-License-Identifier: MIT\n\npragma solidity ^0.8.4;\n\ncontract Helper {\n    bytes32 constant DAI = \"DAI\";\n\n    address public owner;\n    struct token {\n        bytes32 ticker;\n        string tokenName; // User friendly token name\n        address tokenAddress;\n    }\n\n    bytes32[] public tokensList;\n\n    mapping(bytes32 => token) public tokens;\n\n    modifier isTokenExist(bytes32 ticker) {\n        require(\n            tokens[ticker].ticker != bytes32(0),\n            \"The token does not exist\"\n        );\n        _;\n    }\n\n    modifier isTickerAvailable(bytes32 ticker) {\n        require(\n            tokens[ticker].ticker == bytes32(0),\n            \"The ticker is already taken\"\n        );\n        _;\n    }\n    modifier isOwner() {\n        require(msg.sender == owner, \"You are not the owner\");\n        _;\n    }\n}\n",
  "sourcePath": "/Users/deepanshusingh/blockchain projects/Personal DEX project/contracts/baseContract.sol",
  "compiler": {
    "name": "solc",
    "version": "0.8.17+commit.8df45f5f.Emscripten.clang"
  },
  "schemaVersion": "3.4.10",
  "updatedAt": "2022-11-05T12:04:59.430Z",
  "devdoc": {
    "kind": "dev",
    "methods": {},
    "version": 1
  },
  "userdoc": {
    "kind": "user",
    "methods": {},
    "version": 1
  }
}