{
  "contractName": "OrdersManagement",
  "abi": [
    {
      "anonymous": false,
      "inputs": [
        {
          "indexed": false,
          "internalType": "address",
          "name": "trader",
          "type": "address"
        },
        {
          "indexed": false,
          "internalType": "bytes32",
          "name": "ticker",
          "type": "bytes32"
        },
        {
          "indexed": false,
          "internalType": "enum OrdersManagement.Side",
          "name": "side",
          "type": "uint8"
        },
        {
          "indexed": false,
          "internalType": "uint256",
          "name": "amount",
          "type": "uint256"
        },
        {
          "indexed": false,
          "internalType": "uint256",
          "name": "averagePrice",
          "type": "uint256"
        },
        {
          "indexed": false,
          "internalType": "uint256",
          "name": "filled",
          "type": "uint256"
        }
      ],
      "name": "NewTrade",
      "type": "event"
    },
    {
      "anonymous": false,
      "inputs": [
        {
          "indexed": false,
          "internalType": "uint256",
          "name": "c",
          "type": "uint256"
        }
      ],
      "name": "log",
      "type": "event"
    },
    {
      "inputs": [
        {
          "internalType": "bytes32",
          "name": "ticker",
          "type": "bytes32"
        },
        {
          "internalType": "address",
          "name": "traderAddress",
          "type": "address"
        }
      ],
      "name": "getBalance",
      "outputs": [
        {
          "internalType": "uint256",
          "name": "",
          "type": "uint256"
        }
      ],
      "stateMutability": "view",
      "type": "function"
    },
    {
      "inputs": [],
      "name": "owner",
      "outputs": [
        {
          "internalType": "address",
          "name": "",
          "type": "address"
        }
      ],
      "stateMutability": "view",
      "type": "function"
    },
    {
      "inputs": [
        {
          "internalType": "bytes32",
          "name": "",
          "type": "bytes32"
        }
      ],
      "name": "tokens",
      "outputs": [
        {
          "internalType": "bytes32",
          "name": "ticker",
          "type": "bytes32"
        },
        {
          "internalType": "string",
          "name": "tokenName",
          "type": "string"
        },
        {
          "internalType": "address",
          "name": "tokenAddress",
          "type": "address"
        }
      ],
      "stateMutability": "view",
      "type": "function"
    },
    {
      "inputs": [
        {
          "internalType": "uint256",
          "name": "",
          "type": "uint256"
        }
      ],
      "name": "tokensList",
      "outputs": [
        {
          "internalType": "bytes32",
          "name": "",
          "type": "bytes32"
        }
      ],
      "stateMutability": "view",
      "type": "function"
    },
    {
      "inputs": [
        {
          "internalType": "address",
          "name": "",
          "type": "address"
        },
        {
          "internalType": "bytes32",
          "name": "",
          "type": "bytes32"
        }
      ],
      "name": "tradersBalances",
      "outputs": [
        {
          "internalType": "uint256",
          "name": "",
          "type": "uint256"
        }
      ],
      "stateMutability": "view",
      "type": "function"
    },
    {
      "inputs": [
        {
          "internalType": "bytes32",
          "name": "ticker",
          "type": "bytes32"
        },
        {
          "internalType": "enum OrdersManagement.Side",
          "name": "side",
          "type": "uint8"
        },
        {
          "internalType": "uint256",
          "name": "amount",
          "type": "uint256"
        },
        {
          "internalType": "uint256",
          "name": "price",
          "type": "uint256"
        }
      ],
      "name": "LimitOrder",
      "outputs": [],
      "stateMutability": "nonpayable",
      "type": "function"
    },
    {
      "inputs": [
        {
          "internalType": "bytes32",
          "name": "ticker",
          "type": "bytes32"
        },
        {
          "internalType": "enum OrdersManagement.Side",
          "name": "side",
          "type": "uint8"
        },
        {
          "internalType": "uint256",
          "name": "amount",
          "type": "uint256"
        }
      ],
      "name": "MarketOrder",
      "outputs": [],
      "stateMutability": "nonpayable",
      "type": "function"
    },
    {
      "inputs": [
        {
          "internalType": "bytes32",
          "name": "ticker",
          "type": "bytes32"
        },
        {
          "internalType": "enum OrdersManagement.Side",
          "name": "side",
          "type": "uint8"
        }
      ],
      "name": "getOrders",
      "outputs": [
        {
          "components": [
            {
              "internalType": "uint256",
              "name": "id",
              "type": "uint256"
            },
            {
              "internalType": "address",
              "name": "trader",
              "type": "address"
            },
            {
              "internalType": "bytes32",
              "name": "ticker",
              "type": "bytes32"
            },
            {
              "internalType": "enum OrdersManagement.Side",
              "name": "side",
              "type": "uint8"
            },
            {
              "internalType": "uint256",
              "name": "amount",
              "type": "uint256"
            },
            {
              "internalType": "uint256",
              "name": "price",
              "type": "uint256"
            },
            {
              "internalType": "uint256",
              "name": "filledAmount",
              "type": "uint256"
            }
          ],
          "internalType": "struct OrdersManagement.Order[]",
          "name": "",
          "type": "tuple[]"
        }
      ],
      "stateMutability": "view",
      "type": "function"
    }
  ],
  "bytecode": "0x608060405234801561001057600080fd5b50612799806100206000396000f3fe608060405234801561001057600080fd5b50600436106100885760003560e01c8063627e89b31161005b578063627e89b31461014d5780638da5cb5b14610169578063904194a314610187578063ef5099b4146101b957610088565b806346e9658b1461008d5780634d12e34e146100bd578063530e931c146100ed57806354c6d7131461011d575b600080fd5b6100a760048036038101906100a29190611bcd565b6101d5565b6040516100b49190611e2a565b60405180910390f35b6100d760048036038101906100d29190611e78565b610340565b6040516100e49190611eb4565b60405180910390f35b61010760048036038101906101029190611efb565b610364565b6040516101149190611f4a565b60405180910390f35b61013760048036038101906101329190611f65565b61041c565b6040516101449190611f4a565b60405180910390f35b61016760048036038101906101629190611fa5565b610441565b005b610171610dc3565b60405161017e9190612007565b60405180910390f35b6101a1600480360381019061019c9190612022565b610de7565b6040516101b0939291906120df565b60405180910390f35b6101d360048036038101906101ce919061211d565b610eb9565b005b60606005600084815260200190815260200160002060008360018111156101ff576101fe611ca2565b5b600181111561021157610210611ca2565b5b8152602001908152602001600020805480602002602001604051908101604052809291908181526020016000905b8282101561033457838290600052602060002090600702016040518060e0016040529081600082015481526020016001820160009054906101000a900473ffffffffffffffffffffffffffffffffffffffff1673ffffffffffffffffffffffffffffffffffffffff1673ffffffffffffffffffffffffffffffffffffffff168152602001600282015481526020016003820160009054906101000a900460ff1660018111156102f1576102f0611ca2565b5b600181111561030357610302611ca2565b5b815260200160048201548152602001600582015481526020016006820154815250508152602001906001019061023f565b50505050905092915050565b6001818154811061035057600080fd5b906000526020600020016000915090505481565b6000826000801b6002600083815260200190815260200160002060000154036103c2576040517f08c379a00000000000000000000000000000000000000000000000000000000081526004016103b9906121d0565b60405180910390fd5b600360008473ffffffffffffffffffffffffffffffffffffffff1673ffffffffffffffffffffffffffffffffffffffff16815260200190815260200160002060008581526020019081526020016000205491505092915050565b6003602052816000526040600020602052806000526040600020600091509150505481565b826000801b60026000838152602001908152602001600020600001540361049d576040517f08c379a0000000000000000000000000000000000000000000000000000000008152600401610494906121d0565b60405180910390fd5b600060018111156104b1576104b0611ca2565b5b8360018111156104c4576104c3611ca2565b5b0315610559576104d48433610364565b821115846040516020016104e89190612211565b604051602081830303815290604052604051602001610507919061228e565b60405160208183030381529060405290610557576040517f08c379a000000000000000000000000000000000000000000000000000000000815260040161054e91906122b4565b60405180910390fd5b505b600060056000868152602001908152602001600020600080600181111561058357610582611ca2565b5b86600181111561059657610595611ca2565b5b146105a25760006105a5565b60015b60018111156105b7576105b6611ca2565b5b60018111156105c9576105c8611ca2565b5b81526020019081526020016000209050600083905060008060018111156105f3576105f2611ca2565b5b86600181111561060657610605611ca2565b5b14610621576001838054905061061c919061230f565b610624565b60005b90506000805b6000841415801561065a57507fffffffffffffffffffffffffffffffffffffffffffffffffffffffffffffffff83135b80156106695750848054905083125b15610d2957600085848154811061068357610682612352565b5b906000526020600020906007020190506000816006015482600401546106a99190612381565b905060008682106106bc578690506106c0565b8190505b600060018111156106d4576106d3611ca2565b5b8b60018111156106e7576106e6611ca2565b5b036107b55760008360050154826106fe91906123b5565b905080600360003373ffffffffffffffffffffffffffffffffffffffff1673ffffffffffffffffffffffffffffffffffffffff16815260200190815260200160002060007f444149000000000000000000000000000000000000000000000000000000000081526020019081526020016000205410156107b3576040517f08c379a00000000000000000000000000000000000000000000000000000000081526004016107aa90612443565b60405180910390fd5b505b808887815481106107c9576107c8612352565b5b906000526020600020906007020160060160008282546107e99190612463565b925050819055506000600181111561080457610803611ca2565b5b8b600181111561081757610816611ca2565b5b03610a635780600360003373ffffffffffffffffffffffffffffffffffffffff1673ffffffffffffffffffffffffffffffffffffffff16815260200190815260200160002060008e8152602001908152602001600020600082825461087c9190612463565b9250508190555082600501548161089391906123b5565b600360003373ffffffffffffffffffffffffffffffffffffffff1673ffffffffffffffffffffffffffffffffffffffff16815260200190815260200160002060007f4441490000000000000000000000000000000000000000000000000000000000815260200190815260200160002060008282546109129190612381565b9250508190555080600360008560010160009054906101000a900473ffffffffffffffffffffffffffffffffffffffff1673ffffffffffffffffffffffffffffffffffffffff1673ffffffffffffffffffffffffffffffffffffffff16815260200190815260200160002060008e8152602001908152602001600020600082825461099d9190612381565b925050819055508260050154816109b491906123b5565b600360008560010160009054906101000a900473ffffffffffffffffffffffffffffffffffffffff1673ffffffffffffffffffffffffffffffffffffffff1673ffffffffffffffffffffffffffffffffffffffff16815260200190815260200160002060007f444149000000000000000000000000000000000000000000000000000000000081526020019081526020016000206000828254610a579190612463565b92505081905550610ca6565b80600360003373ffffffffffffffffffffffffffffffffffffffff1673ffffffffffffffffffffffffffffffffffffffff16815260200190815260200160002060008e81526020019081526020016000206000828254610ac39190612381565b92505081905550826005015481610ada91906123b5565b600360003373ffffffffffffffffffffffffffffffffffffffff1673ffffffffffffffffffffffffffffffffffffffff16815260200190815260200160002060007f444149000000000000000000000000000000000000000000000000000000000081526020019081526020016000206000828254610b599190612463565b9250508190555080600360008560010160009054906101000a900473ffffffffffffffffffffffffffffffffffffffff1673ffffffffffffffffffffffffffffffffffffffff1673ffffffffffffffffffffffffffffffffffffffff16815260200190815260200160002060008e81526020019081526020016000206000828254610be49190612463565b92505081905550826005015481610bfb91906123b5565b600360008560010160009054906101000a900473ffffffffffffffffffffffffffffffffffffffff1673ffffffffffffffffffffffffffffffffffffffff1673ffffffffffffffffffffffffffffffffffffffff16815260200190815260200160002060007f444149000000000000000000000000000000000000000000000000000000000081526020019081526020016000206000828254610c9e9190612381565b925050819055505b8087610cb29190612381565b9650826005015485610cc49190612463565b94508380610cd190612497565b94505060006001811115610ce857610ce7611ca2565b5b8b6001811115610cfb57610cfa611ca2565b5b14610d12578580610d0b906124df565b9650610d20565b8580610d1d90612527565b96505b5050505061062a565b610d33858961118e565b506000811115610db8576000876064868a610d4e9190612381565b610d5891906123b5565b610d62919061259e565b905060008284610d72919061259e565b90507f1fd2dbfc8346e62b50fd4267a5cf8a03dd83cad0e15058cefd21a91ab03c309f338c8c8c8587604051610dad969594939291906125de565b60405180910390a150505b505050505050505050565b60008054906101000a900473ffffffffffffffffffffffffffffffffffffffff1681565b6002602052806000526040600020600091509050806000015490806001018054610e109061266e565b80601f0160208091040260200160405190810160405280929190818152602001828054610e3c9061266e565b8015610e895780601f10610e5e57610100808354040283529160200191610e89565b820191906000526020600020905b815481529060010190602001808311610e6c57829003601f168201915b5050505050908060020160009054906101000a900473ffffffffffffffffffffffffffffffffffffffff16905083565b836000801b600260008381526020019081526020016000206000015403610f15576040517f08c379a0000000000000000000000000000000000000000000000000000000008152600401610f0c906121d0565b60405180910390fd5b60006001811115610f2957610f28611ca2565b5b846001811115610f3c57610f3b611ca2565b5b03610fc35760008284610f4f91906123b5565b9050610f7b7f444149000000000000000000000000000000000000000000000000000000000033610364565b811115610fbd576040517f08c379a0000000000000000000000000000000000000000000000000000000008152600401610fb4906126eb565b60405180910390fd5b50611052565b610fcd8533610364565b83111585604051602001610fe19190612211565b604051602081830303815290604052604051602001611000919061228e565b60405160208183030381529060405290611050576040517f08c379a000000000000000000000000000000000000000000000000000000000815260040161104791906122b4565b60405180910390fd5b505b600060056000878152602001908152602001600020600086600181111561107c5761107b611ca2565b5b600181111561108e5761108d611ca2565b5b8152602001908152602001600020905060006040518060e0016040528060016004546110ba9190612463565b81526020013373ffffffffffffffffffffffffffffffffffffffff1681526020018881526020018760018111156110f4576110f3611ca2565b5b8152602001868152602001858152602001600081525090506111168183611561565b60056000898152602001908152602001600020600088600181111561113e5761113d611ca2565b5b60018111156111505761114f611ca2565b5b815260200190815260200160002090805461116c9291906119c5565b506004600081548092919061118090612497565b919050555050505050505050565b600080600060018111156111a5576111a4611ca2565b5b8360018111156111b8576111b7611ca2565b5b146111d357600184805490506111ce919061230f565b6111d6565b60005b90505b83805490508112801561120b57507fffffffffffffffffffffffffffffffffffffffffffffffffffffffffffffffff81135b801561125e575083818154811061122557611224612352565b5b90600052602060002090600702016004015484828154811061124a57611249612352565b5b906000526020600020906007020160060154145b15611557576000600181111561127757611276611ca2565b5b83600181111561128a57611289611ca2565b5b036114775760005b600185805490506112a39190612381565b8110156113e457846001826112b89190612463565b815481106112c9576112c8612352565b5b90600052602060002090600702018582815481106112ea576112e9612352565b5b9060005260206000209060070201600082015481600001556001820160009054906101000a900473ffffffffffffffffffffffffffffffffffffffff168160010160006101000a81548173ffffffffffffffffffffffffffffffffffffffff021916908373ffffffffffffffffffffffffffffffffffffffff160217905550600282015481600201556003820160009054906101000a900460ff168160030160006101000a81548160ff021916908360018111156113ab576113aa611ca2565b5b021790555060048201548160040155600582015481600501556006820154816006015590505080806113dc90612497565b915050611292565b50838054806113f6576113f561270b565b5b60019003818190600052602060002090600702016000808201600090556001820160006101000a81549073ffffffffffffffffffffffffffffffffffffffff021916905560028201600090556003820160006101000a81549060ff021916905560048201600090556005820160009055600682016000905550509055611505565b838054806114885761148761270b565b5b60019003818190600052602060002090600702016000808201600090556001820160006101000a81549073ffffffffffffffffffffffffffffffffffffffff021916905560028201600090556003820160006101000a81549060ff0219169055600482016000905560058201600090556006820160009055505090555b6000600181111561151957611518611ca2565b5b83600181111561152c5761152b611ca2565b5b1461154357808061153c906124df565b9150611551565b808061154e90612527565b91505b506111d9565b8391505092915050565b6000818390806001815401808255809150506001900390600052602060002090600702016000909190919091506000820151816000015560208201518160010160006101000a81548173ffffffffffffffffffffffffffffffffffffffff021916908373ffffffffffffffffffffffffffffffffffffffff1602179055506040820151816002015560608201518160030160006101000a81548160ff0219169083600181111561161457611613611ca2565b5b02179055506080820151816004015560a0820151816005015560c08201518160060155505060006001838054905061164c9190612381565b90505b600181036119bb57826001826116659190612381565b8154811061167657611675612352565b5b90600052602060002090600702016005015483828154811061169b5761169a612352565b5b90600052602060002090600702016005015410156119bb576000836001836116c39190612381565b815481106116d4576116d3612352565b5b90600052602060002090600702016040518060e0016040529081600082015481526020016001820160009054906101000a900473ffffffffffffffffffffffffffffffffffffffff1673ffffffffffffffffffffffffffffffffffffffff1673ffffffffffffffffffffffffffffffffffffffff168152602001600282015481526020016003820160009054906101000a900460ff16600181111561177c5761177b611ca2565b5b600181111561178e5761178d611ca2565b5b8152602001600482015481526020016005820154815260200160068201548152505090508382815481106117c5576117c4612352565b5b9060005260206000209060070201846001846117e19190612381565b815481106117f2576117f1612352565b5b9060005260206000209060070201600082015481600001556001820160009054906101000a900473ffffffffffffffffffffffffffffffffffffffff168160010160006101000a81548173ffffffffffffffffffffffffffffffffffffffff021916908373ffffffffffffffffffffffffffffffffffffffff160217905550600282015481600201556003820160009054906101000a900460ff168160030160006101000a81548160ff021916908360018111156118b3576118b2611ca2565b5b0217905550600482015481600401556005820154816005015560068201548160060155905050808483815481106118ed576118ec612352565b5b90600052602060002090600702016000820151816000015560208201518160010160006101000a81548173ffffffffffffffffffffffffffffffffffffffff021916908373ffffffffffffffffffffffffffffffffffffffff1602179055506040820151816002015560608201518160030160006101000a81548160ff0219169083600181111561198157611980611ca2565b5b02179055506080820151816004015560a0820151816005015560c082015181600601559050505080806119b39061273a565b91505061164f565b5081905092915050565b828054828255906000526020600020906007028101928215611ae25760005260206000209160070282015b82811115611ae1578282600082015481600001556001820160009054906101000a900473ffffffffffffffffffffffffffffffffffffffff168160010160006101000a81548173ffffffffffffffffffffffffffffffffffffffff021916908373ffffffffffffffffffffffffffffffffffffffff160217905550600282015481600201556003820160009054906101000a900460ff168160030160006101000a81548160ff02191690836001811115611aad57611aac611ca2565b5b02179055506004820154816004015560058201548160050155600682015481600601555050916007019190600701906119f0565b5b509050611aef9190611af3565b5090565b5b80821115611b69576000808201600090556001820160006101000a81549073ffffffffffffffffffffffffffffffffffffffff021916905560028201600090556003820160006101000a81549060ff021916905560048201600090556005820160009055600682016000905550600701611af4565b5090565b600080fd5b6000819050919050565b611b8581611b72565b8114611b9057600080fd5b50565b600081359050611ba281611b7c565b92915050565b60028110611bb557600080fd5b50565b600081359050611bc781611ba8565b92915050565b60008060408385031215611be457611be3611b6d565b5b6000611bf285828601611b93565b9250506020611c0385828601611bb8565b9150509250929050565b600081519050919050565b600082825260208201905092915050565b6000819050602082019050919050565b6000819050919050565b611c4c81611c39565b82525050565b600073ffffffffffffffffffffffffffffffffffffffff82169050919050565b6000611c7d82611c52565b9050919050565b611c8d81611c72565b82525050565b611c9c81611b72565b82525050565b7f4e487b7100000000000000000000000000000000000000000000000000000000600052602160045260246000fd5b60028110611ce257611ce1611ca2565b5b50565b6000819050611cf382611cd1565b919050565b6000611d0382611ce5565b9050919050565b611d1381611cf8565b82525050565b60e082016000820151611d2f6000850182611c43565b506020820151611d426020850182611c84565b506040820151611d556040850182611c93565b506060820151611d686060850182611d0a565b506080820151611d7b6080850182611c43565b5060a0820151611d8e60a0850182611c43565b5060c0820151611da160c0850182611c43565b50505050565b6000611db38383611d19565b60e08301905092915050565b6000602082019050919050565b6000611dd782611c0d565b611de18185611c18565b9350611dec83611c29565b8060005b83811015611e1d578151611e048882611da7565b9750611e0f83611dbf565b925050600181019050611df0565b5085935050505092915050565b60006020820190508181036000830152611e448184611dcc565b905092915050565b611e5581611c39565b8114611e6057600080fd5b50565b600081359050611e7281611e4c565b92915050565b600060208284031215611e8e57611e8d611b6d565b5b6000611e9c84828501611e63565b91505092915050565b611eae81611b72565b82525050565b6000602082019050611ec96000830184611ea5565b92915050565b611ed881611c72565b8114611ee357600080fd5b50565b600081359050611ef581611ecf565b92915050565b60008060408385031215611f1257611f11611b6d565b5b6000611f2085828601611b93565b9250506020611f3185828601611ee6565b9150509250929050565b611f4481611c39565b82525050565b6000602082019050611f5f6000830184611f3b565b92915050565b60008060408385031215611f7c57611f7b611b6d565b5b6000611f8a85828601611ee6565b9250506020611f9b85828601611b93565b9150509250929050565b600080600060608486031215611fbe57611fbd611b6d565b5b6000611fcc86828701611b93565b9350506020611fdd86828701611bb8565b9250506040611fee86828701611e63565b9150509250925092565b61200181611c72565b82525050565b600060208201905061201c6000830184611ff8565b92915050565b60006020828403121561203857612037611b6d565b5b600061204684828501611b93565b91505092915050565b600081519050919050565b600082825260208201905092915050565b60005b8381101561208957808201518184015260208101905061206e565b60008484015250505050565b6000601f19601f8301169050919050565b60006120b18261204f565b6120bb818561205a565b93506120cb81856020860161206b565b6120d481612095565b840191505092915050565b60006060820190506120f46000830186611ea5565b818103602083015261210681856120a6565b90506121156040830184611ff8565b949350505050565b6000806000806080858703121561213757612136611b6d565b5b600061214587828801611b93565b945050602061215687828801611bb8565b935050604061216787828801611e63565b925050606061217887828801611e63565b91505092959194509250565b7f54686520746f6b656e20646f6573206e6f742065786973740000000000000000600082015250565b60006121ba60188361205a565b91506121c582612184565b602082019050919050565b600060208201905081810360008301526121e9816121ad565b9050919050565b6000819050919050565b61220b61220682611b72565b6121f0565b82525050565b600061221d82846121fa565b60208201915081905092915050565b7f596f7520646f6e2774206861766520656e6f7567682000000000000000000000815250565b600081905092915050565b60006122688261204f565b6122728185612252565b935061228281856020860161206b565b80840191505092915050565b60006122998261222c565b6016820191506122a9828461225d565b915081905092915050565b600060208201905081810360008301526122ce81846120a6565b905092915050565b6000819050919050565b7f4e487b7100000000000000000000000000000000000000000000000000000000600052601160045260246000fd5b600061231a826122d6565b9150612325836122d6565b925082820390508181126000841216828213600085121516171561234c5761234b6122e0565b5b92915050565b7f4e487b7100000000000000000000000000000000000000000000000000000000600052603260045260246000fd5b600061238c82611c39565b915061239783611c39565b92508282039050818111156123af576123ae6122e0565b5b92915050565b60006123c082611c39565b91506123cb83611c39565b92508282026123d981611c39565b915082820484148315176123f0576123ef6122e0565b5b5092915050565b7f4e6f7420656e6f75676820444149000000000000000000000000000000000000600082015250565b600061242d600e8361205a565b9150612438826123f7565b602082019050919050565b6000602082019050818103600083015261245c81612420565b9050919050565b600061246e82611c39565b915061247983611c39565b9250828201905080821115612491576124906122e0565b5b92915050565b60006124a282611c39565b91507fffffffffffffffffffffffffffffffffffffffffffffffffffffffffffffffff82036124d4576124d36122e0565b5b600182019050919050565b60006124ea826122d6565b91507f8000000000000000000000000000000000000000000000000000000000000000820361251c5761251b6122e0565b5b600182039050919050565b6000612532826122d6565b91507f7fffffffffffffffffffffffffffffffffffffffffffffffffffffffffffffff8203612564576125636122e0565b5b600182019050919050565b7f4e487b7100000000000000000000000000000000000000000000000000000000600052601260045260246000fd5b60006125a982611c39565b91506125b483611c39565b9250826125c4576125c361256f565b5b828204905092915050565b6125d881611cf8565b82525050565b600060c0820190506125f36000830189611ff8565b6126006020830188611ea5565b61260d60408301876125cf565b61261a6060830186611f3b565b6126276080830185611f3b565b61263460a0830184611f3b565b979650505050505050565b7f4e487b7100000000000000000000000000000000000000000000000000000000600052602260045260246000fd5b6000600282049050600182168061268657607f821691505b6020821081036126995761269861263f565b5b50919050565b7f596f7520646f6e2774206861766520656e6f7567682044414900000000000000600082015250565b60006126d560198361205a565b91506126e08261269f565b602082019050919050565b60006020820190508181036000830152612704816126c8565b9050919050565b7f4e487b7100000000000000000000000000000000000000000000000000000000600052603160045260246000fd5b600061274582611c39565b915060008203612758576127576122e0565b5b60018203905091905056fea2646970667358221220d09a2c7be0dc9562b11c928a9355b8ee2159c7620a4c573915e90250aa31ac4b64736f6c63430008110033",
  "immutableReferences": {},
  "source": "// SPDX-License-Identifier: MIT\n\npragma solidity ^0.8.4;\nimport \"@openzeppelin/contracts/token/ERC20/IERC20.sol\";\nimport {Strings} from \"@openzeppelin/contracts/utils/Strings.sol\";\nimport \"./baseContract.sol\";\nimport \"./Traders.sol\";\nimport \"hardhat/console.sol\";\n\ncontract OrdersManagement is Helper, Traders {\n    /* This contract has following functionalities\n     1. Create Limit order\n     2. Create Market order\n     3. Update order book\n     4. update trader balances\n     */\n\n    enum Side {\n        BUY,\n        SELL\n    }\n    uint256 lastOrderID;\n\n    struct Order {\n        uint256 id;\n        address trader;\n        bytes32 ticker;\n        Side side;\n        uint256 amount;\n        uint256 price;\n        uint256 filledAmount;\n    }\n\n    event NewTrade(\n        address trader,\n        bytes32 ticker,\n        Side side,\n        uint256 amount,\n        uint256 averagePrice,\n        uint256 filled\n    );\n    event log(uint256 c);\n\n    mapping(bytes32 => mapping(Side => Order[])) OrderBook;\n\n    function LimitOrder(\n        bytes32 ticker,\n        Side side,\n        uint256 amount,\n        uint256 price\n    ) external isTokenExist(ticker) {\n        if (side == Side.BUY) {\n            // trader must have enough DAI tokens\n            uint256 requiredDaiTokens = amount * price;\n            require(\n                requiredDaiTokens <= getBalance(DAI, msg.sender),\n                \"You don't have enough DAI\"\n            );\n        } else {\n            // trader must have enough ticker tokens\n            require(\n                amount <= getBalance(ticker, msg.sender),\n                string.concat(\n                    \"You don't have enough \",\n                    string(abi.encodePacked(ticker))\n                )\n            );\n        }\n\n        Order[] storage orders = OrderBook[ticker][side];\n\n        Order memory neworder = Order(\n            lastOrderID + 1,\n            msg.sender,\n            ticker,\n            side,\n            amount,\n            price,\n            0\n        );\n\n        // Create an order in order book\n        OrderBook[ticker][side] = InsertInOrdersArray(neworder, orders);\n        lastOrderID++;\n    }\n\n    function MarketOrder(\n        bytes32 ticker,\n        Side side,\n        uint256 amount\n    ) public isTokenExist(ticker) {\n        if (side == Side.BUY) {\n            // Right now we don't know how much DAI tokens are required\n        } else {\n            // trader must have enough ticker tokens\n            require(\n                amount <= getBalance(ticker, msg.sender),\n                string.concat(\n                    \"You don't have enough \",\n                    string(abi.encodePacked(ticker))\n                )\n            );\n        }\n\n        // Going through the Order Book to find the best match\n        // orders is an ascending array [4]\n        // If buy order, then we interseted in lowest price. left to right in the array\n        // If sell order, then we interseted in highest price. right to left in the array\n        Order[] storage orders = OrderBook[ticker][\n            side == Side.BUY ? Side.SELL : Side.BUY\n        ];\n        uint256 tradeRemainingToBefilled = amount; //2\n        int256 i = (side == Side.BUY) ? int256(0) : int256(orders.length) - 1; //0\n\n        // to calculate average price\n        uint256 totalPrice;\n        uint256 totalTrades;\n\n        while (\n            tradeRemainingToBefilled != 0 && i > -1 && i < int256(orders.length)\n        ) {\n            // current order in orderbook\n            Order storage currentOrder = orders[uint256(i)];\n            uint256 availableCurrentOrder = currentOrder.amount -\n                currentOrder.filledAmount;\n\n            uint256 processAmount;\n\n            if (availableCurrentOrder >= tradeRemainingToBefilled) {\n                processAmount = tradeRemainingToBefilled;\n            } else {\n                processAmount = availableCurrentOrder;\n            }\n\n            if (side == Side.BUY) {\n                // Now we know the price, checking if trader have enough DAI\n                uint256 DaiRequired = processAmount * currentOrder.price;\n                require(\n                    tradersBalances[msg.sender][DAI] >= DaiRequired,\n                    \"Not enough DAI\"\n                );\n            }\n\n            // upadate order book\n            orders[uint256(i)].filledAmount += processAmount;\n\n            if (side == Side.BUY) {\n                // update market order trader's balance\n                tradersBalances[msg.sender][ticker] += processAmount;\n                tradersBalances[msg.sender][DAI] -=\n                    processAmount *\n                    currentOrder.price;\n\n                // update limit order trader's balance\n                tradersBalances[currentOrder.trader][ticker] -= processAmount;\n                tradersBalances[currentOrder.trader][DAI] +=\n                    processAmount *\n                    currentOrder.price;\n            } else {\n                // update market order trader's balance\n                tradersBalances[msg.sender][ticker] -= processAmount;\n                tradersBalances[msg.sender][DAI] +=\n                    processAmount *\n                    currentOrder.price;\n\n                // update limit order trader's balance\n                tradersBalances[currentOrder.trader][ticker] += processAmount;\n                tradersBalances[currentOrder.trader][DAI] -=\n                    processAmount *\n                    currentOrder.price;\n            }\n\n            tradeRemainingToBefilled -= processAmount;\n\n            totalPrice += currentOrder.price;\n            totalTrades++;\n\n            // if buy order, iterate to right and vice versa\n\n            side == Side.BUY ? i++ : i--;\n        }\n\n        clearOrderBook(orders, side);\n\n        if (totalTrades > 0) {\n            uint256 filled = ((amount - tradeRemainingToBefilled) * 100) /\n                amount;\n            uint256 averagePrice = totalPrice / totalTrades;\n\n            emit NewTrade(\n                msg.sender,\n                ticker,\n                side,\n                amount,\n                averagePrice,\n                filled\n            );\n        }\n    }\n\n    function getOrders(bytes32 ticker, Side side)\n        external\n        view\n        returns (Order[] memory)\n    {\n        return OrderBook[ticker][side];\n    }\n\n    // Remove orders that are filled from order book\n\n    function clearOrderBook(Order[] storage _orders, Side last_side)\n        private\n        returns (Order[] storage)\n    {\n        int256 i = last_side == Side.BUY\n            ? int256(0)\n            : int256(_orders.length) - 1;\n        while (\n            i < int256(_orders.length) &&\n            i > -1 &&\n            _orders[uint256(i)].filledAmount == _orders[uint256(i)].amount\n        ) {\n            if (last_side == Side.BUY) {\n                for (uint256 j = 0; j < (_orders.length) - 1; j++) {\n                    _orders[j] = _orders[j + 1];\n                }\n                _orders.pop();\n            } else {\n                _orders.pop();\n            }\n            last_side == Side.BUY ? i++ : i--;\n        }\n        return _orders;\n    }\n\n    function InsertInOrdersArray(Order memory order, Order[] storage _orders)\n        private\n        returns (Order[] storage)\n    {\n        _orders.push(order);\n        for (uint256 i = _orders.length - 1; i == 1; i--) {\n            if (_orders[i].price >= _orders[i - 1].price) {\n                break;\n            }\n            // swap to left\n            Order memory temp = _orders[i - 1];\n            _orders[i - 1] = _orders[i];\n            _orders[i] = temp;\n        }\n        return _orders;\n    }\n}\n",
  "sourcePath": "/Users/deepanshusingh/blockchain projects/Personal DEX project/contracts/Orders.sol",
  "compiler": {
    "name": "solc",
    "version": "0.8.17+commit.8df45f5f.Emscripten.clang"
  },
  "schemaVersion": "3.4.10",
  "updatedAt": "2022-11-05T19:37:38.479Z",
  "devdoc": {
    "kind": "dev",
    "methods": {},
    "version": 1
  },
  "userdoc": {
    "kind": "user",
    "methods": {},
    "version": 1
  }
}