{
  "contractName": "Traders",
  "abi": [
    {
      "inputs": [],
      "name": "owner",
      "outputs": [
        {
          "internalType": "address",
          "name": "",
          "type": "address"
        }
      ],
      "stateMutability": "view",
      "type": "function"
    },
    {
      "inputs": [
        {
          "internalType": "bytes32",
          "name": "",
          "type": "bytes32"
        }
      ],
      "name": "tokens",
      "outputs": [
        {
          "internalType": "bytes32",
          "name": "ticker",
          "type": "bytes32"
        },
        {
          "internalType": "string",
          "name": "tokenName",
          "type": "string"
        },
        {
          "internalType": "address",
          "name": "tokenAddress",
          "type": "address"
        }
      ],
      "stateMutability": "view",
      "type": "function"
    },
    {
      "inputs": [
        {
          "internalType": "uint256",
          "name": "",
          "type": "uint256"
        }
      ],
      "name": "tokensList",
      "outputs": [
        {
          "internalType": "bytes32",
          "name": "",
          "type": "bytes32"
        }
      ],
      "stateMutability": "view",
      "type": "function"
    },
    {
      "inputs": [
        {
          "internalType": "address",
          "name": "",
          "type": "address"
        },
        {
          "internalType": "bytes32",
          "name": "",
          "type": "bytes32"
        }
      ],
      "name": "tradersBalances",
      "outputs": [
        {
          "internalType": "uint256",
          "name": "",
          "type": "uint256"
        }
      ],
      "stateMutability": "view",
      "type": "function"
    },
    {
      "inputs": [
        {
          "internalType": "bytes32",
          "name": "ticker",
          "type": "bytes32"
        },
        {
          "internalType": "address",
          "name": "traderAddress",
          "type": "address"
        }
      ],
      "name": "getBalance",
      "outputs": [
        {
          "internalType": "uint256",
          "name": "",
          "type": "uint256"
        }
      ],
      "stateMutability": "view",
      "type": "function"
    }
  ],
  "bytecode": "0x608060405234801561001057600080fd5b5061072a806100206000396000f3fe608060405234801561001057600080fd5b50600436106100575760003560e01c80634d12e34e1461005c578063530e931c1461008c57806354c6d713146100bc5780638da5cb5b146100ec578063904194a31461010a575b600080fd5b6100766004803603810190610071919061036e565b61013c565b60405161008391906103b4565b60405180910390f35b6100a660048036038101906100a19190610459565b610160565b6040516100b391906104a8565b60405180910390f35b6100d660048036038101906100d191906104c3565b610218565b6040516100e391906104a8565b60405180910390f35b6100f461023d565b6040516101019190610512565b60405180910390f35b610124600480360381019061011f919061052d565b610261565b604051610133939291906105ea565b60405180910390f35b6001818154811061014c57600080fd5b906000526020600020016000915090505481565b6000826000801b6002600083815260200190815260200160002060000154036101be576040517f08c379a00000000000000000000000000000000000000000000000000000000081526004016101b590610674565b60405180910390fd5b600360008473ffffffffffffffffffffffffffffffffffffffff1673ffffffffffffffffffffffffffffffffffffffff16815260200190815260200160002060008581526020019081526020016000205491505092915050565b6003602052816000526040600020602052806000526040600020600091509150505481565b60008054906101000a900473ffffffffffffffffffffffffffffffffffffffff1681565b600260205280600052604060002060009150905080600001549080600101805461028a906106c3565b80601f01602080910402602001604051908101604052809291908181526020018280546102b6906106c3565b80156103035780601f106102d857610100808354040283529160200191610303565b820191906000526020600020905b8154815290600101906020018083116102e657829003601f168201915b5050505050908060020160009054906101000a900473ffffffffffffffffffffffffffffffffffffffff16905083565b600080fd5b6000819050919050565b61034b81610338565b811461035657600080fd5b50565b60008135905061036881610342565b92915050565b60006020828403121561038457610383610333565b5b600061039284828501610359565b91505092915050565b6000819050919050565b6103ae8161039b565b82525050565b60006020820190506103c960008301846103a5565b92915050565b6103d88161039b565b81146103e357600080fd5b50565b6000813590506103f5816103cf565b92915050565b600073ffffffffffffffffffffffffffffffffffffffff82169050919050565b6000610426826103fb565b9050919050565b6104368161041b565b811461044157600080fd5b50565b6000813590506104538161042d565b92915050565b600080604083850312156104705761046f610333565b5b600061047e858286016103e6565b925050602061048f85828601610444565b9150509250929050565b6104a281610338565b82525050565b60006020820190506104bd6000830184610499565b92915050565b600080604083850312156104da576104d9610333565b5b60006104e885828601610444565b92505060206104f9858286016103e6565b9150509250929050565b61050c8161041b565b82525050565b60006020820190506105276000830184610503565b92915050565b60006020828403121561054357610542610333565b5b6000610551848285016103e6565b91505092915050565b600081519050919050565b600082825260208201905092915050565b60005b83811015610594578082015181840152602081019050610579565b60008484015250505050565b6000601f19601f8301169050919050565b60006105bc8261055a565b6105c68185610565565b93506105d6818560208601610576565b6105df816105a0565b840191505092915050565b60006060820190506105ff60008301866103a5565b818103602083015261061181856105b1565b90506106206040830184610503565b949350505050565b7f54686520746f6b656e20646f6573206e6f742065786973740000000000000000600082015250565b600061065e601883610565565b915061066982610628565b602082019050919050565b6000602082019050818103600083015261068d81610651565b9050919050565b7f4e487b7100000000000000000000000000000000000000000000000000000000600052602260045260246000fd5b600060028204905060018216806106db57607f821691505b6020821081036106ee576106ed610694565b5b5091905056fea264697066735822122014f6be23a4a14c7d492dc5afa34f77505520e62030c544d5ffcd8e145d5e1dcd64736f6c63430008110033",
  "immutableReferences": {},
  "source": "// SPDX-License-Identifier: MIT\n\npragma solidity ^0.8.4;\nimport \"@openzeppelin/contracts/token/ERC20/IERC20.sol\";\nimport \"./baseContract.sol\";\n\ncontract Traders is Helper {\n    /* This contract has following functionalities\n     1. Create Limit order\n     2. Create Market order\n     */\n\n    mapping(address => mapping(bytes32 => uint256)) public tradersBalances;\n\n    function getBalance(bytes32 ticker, address traderAddress)\n        public\n        view\n        isTokenExist(ticker)\n        returns (uint256)\n    {\n        return tradersBalances[traderAddress][ticker];\n    }\n}\n",
  "sourcePath": "/Users/deepanshusingh/blockchain projects/Personal DEX project/contracts/Traders.sol",
  "compiler": {
    "name": "solc",
    "version": "0.8.17+commit.8df45f5f.Emscripten.clang"
  },
  "schemaVersion": "3.4.10",
  "updatedAt": "2022-11-05T19:37:38.484Z",
  "devdoc": {
    "kind": "dev",
    "methods": {},
    "version": 1
  },
  "userdoc": {
    "kind": "user",
    "methods": {},
    "version": 1
  }
}