{
  "contractName": "Dex",
  "abi": [
    {
      "inputs": [],
      "stateMutability": "nonpayable",
      "type": "constructor"
    },
    {
      "inputs": [],
      "name": "owner",
      "outputs": [
        {
          "internalType": "address",
          "name": "",
          "type": "address"
        }
      ],
      "stateMutability": "view",
      "type": "function"
    },
    {
      "inputs": [
        {
          "internalType": "bytes3",
          "name": "",
          "type": "bytes3"
        }
      ],
      "name": "tokens",
      "outputs": [
        {
          "internalType": "bytes3",
          "name": "ticker",
          "type": "bytes3"
        },
        {
          "internalType": "string",
          "name": "tokenName",
          "type": "string"
        },
        {
          "internalType": "address",
          "name": "tokenAddress",
          "type": "address"
        }
      ],
      "stateMutability": "view",
      "type": "function"
    },
    {
      "inputs": [
        {
          "internalType": "uint256",
          "name": "",
          "type": "uint256"
        }
      ],
      "name": "tokensList",
      "outputs": [
        {
          "internalType": "bytes3",
          "name": "",
          "type": "bytes3"
        }
      ],
      "stateMutability": "view",
      "type": "function"
    },
    {
      "inputs": [
        {
          "internalType": "bytes3",
          "name": "ticker",
          "type": "bytes3"
        },
        {
          "internalType": "string",
          "name": "tokenName",
          "type": "string"
        },
        {
          "internalType": "address",
          "name": "tokenAddress",
          "type": "address"
        }
      ],
      "name": "addNewToken",
      "outputs": [],
      "stateMutability": "nonpayable",
      "type": "function"
    },
    {
      "inputs": [
        {
          "internalType": "bytes3",
          "name": "ticker",
          "type": "bytes3"
        },
        {
          "internalType": "uint256",
          "name": "amount",
          "type": "uint256"
        }
      ],
      "name": "deposit",
      "outputs": [],
      "stateMutability": "nonpayable",
      "type": "function"
    },
    {
      "inputs": [
        {
          "internalType": "bytes3",
          "name": "ticker",
          "type": "bytes3"
        },
        {
          "internalType": "uint256",
          "name": "amount",
          "type": "uint256"
        }
      ],
      "name": "withdraw",
      "outputs": [],
      "stateMutability": "nonpayable",
      "type": "function"
    }
  ],
  "bytecode": "0x608060405234801561001057600080fd5b50336000806101000a81548173ffffffffffffffffffffffffffffffffffffffff021916908373ffffffffffffffffffffffffffffffffffffffff1602179055506113a2806100606000396000f3fe608060405234801561001057600080fd5b50600436106100625760003560e01c80633bd47eef146100675780634d12e34e1461008357806374b5002e146100b35780638da5cb5b146100cf578063a62c4624146100ed578063f892a67f14610109575b600080fd5b610081600480360381019061007c9190610a21565b61013b565b005b61009d60048036038101906100989190610a61565b6103ae565b6040516100aa9190610a9d565b60405180910390f35b6100cd60048036038101906100c89190610a21565b6103e5565b005b6100d7610587565b6040516100e49190610af9565b60405180910390f35b61010760048036038101906101029190610c86565b6105ab565b005b610123600480360381019061011e9190610cf5565b6108a0565b60405161013293929190610da1565b60405180910390f35b80600360003373ffffffffffffffffffffffffffffffffffffffff1673ffffffffffffffffffffffffffffffffffffffff1681526020019081526020016000206000847cffffffffffffffffffffffffffffffffffffffffffffffffffffffffff19167cffffffffffffffffffffffffffffffffffffffffffffffffffffffffff1916815260200190815260200160002054101561020e576040517f08c379a000000000000000000000000000000000000000000000000000000000815260040161020590610e2b565b60405180910390fd5b60016000837cffffffffffffffffffffffffffffffffffffffffffffffffffffffffff19167cffffffffffffffffffffffffffffffffffffffffffffffffffffffffff1916815260200190815260200160002060020160009054906101000a900473ffffffffffffffffffffffffffffffffffffffff1673ffffffffffffffffffffffffffffffffffffffff1663a9059cbb33836040518363ffffffff1660e01b81526004016102bf929190610e5a565b6020604051808303816000875af11580156102de573d6000803e3d6000fd5b505050506040513d601f19601f820116820180604052508101906103029190610ebb565b5080600360003373ffffffffffffffffffffffffffffffffffffffff1673ffffffffffffffffffffffffffffffffffffffff1681526020019081526020016000206000847cffffffffffffffffffffffffffffffffffffffffffffffffffffffffff19167cffffffffffffffffffffffffffffffffffffffffffffffffffffffffff1916815260200190815260200160002060008282546103a39190610f17565b925050819055505050565b600281815481106103be57600080fd5b90600052602060002090600a9182820401919006600302915054906101000a900460e81b81565b60016000837cffffffffffffffffffffffffffffffffffffffffffffffffffffffffff19167cffffffffffffffffffffffffffffffffffffffffffffffffffffffffff1916815260200190815260200160002060020160009054906101000a900473ffffffffffffffffffffffffffffffffffffffff1673ffffffffffffffffffffffffffffffffffffffff166323b872dd3330846040518463ffffffff1660e01b815260040161049893929190610f4b565b6020604051808303816000875af11580156104b7573d6000803e3d6000fd5b505050506040513d601f19601f820116820180604052508101906104db9190610ebb565b5080600360003373ffffffffffffffffffffffffffffffffffffffff1673ffffffffffffffffffffffffffffffffffffffff1681526020019081526020016000206000847cffffffffffffffffffffffffffffffffffffffffffffffffffffffffff19167cffffffffffffffffffffffffffffffffffffffffffffffffffffffffff19168152602001908152602001600020600082825461057c9190610f82565b925050819055505050565b60008054906101000a900473ffffffffffffffffffffffffffffffffffffffff1681565b82600060e81b7cffffffffffffffffffffffffffffffffffffffffffffffffffffffffff191660016000837cffffffffffffffffffffffffffffffffffffffffffffffffffffffffff19167cffffffffffffffffffffffffffffffffffffffffffffffffffffffffff1916815260200190815260200160002060000160009054906101000a900460e81b7cffffffffffffffffffffffffffffffffffffffffffffffffffffffffff191603610695576040517f08c379a000000000000000000000000000000000000000000000000000000000815260040161068c90611002565b60405180910390fd5b60008054906101000a900473ffffffffffffffffffffffffffffffffffffffff1673ffffffffffffffffffffffffffffffffffffffff163373ffffffffffffffffffffffffffffffffffffffff1614610723576040517f08c379a000000000000000000000000000000000000000000000000000000000815260040161071a9061106e565b60405180910390fd5b60006040518060600160405280867cffffffffffffffffffffffffffffffffffffffffffffffffffffffffff191681526020018581526020018473ffffffffffffffffffffffffffffffffffffffff1681525090508060016000877cffffffffffffffffffffffffffffffffffffffffffffffffffffffffff19167cffffffffffffffffffffffffffffffffffffffffffffffffffffffffff1916815260200190815260200160002060008201518160000160006101000a81548162ffffff021916908360e81c02179055506020820151816001019081610804919061129a565b5060408201518160020160006101000a81548173ffffffffffffffffffffffffffffffffffffffff021916908373ffffffffffffffffffffffffffffffffffffffff16021790555090505060028590806001815401808255809150506001900390600052602060002090600a91828204019190066003029091909190916101000a81548162ffffff021916908360e81c02179055505050505050565b60016020528060005260406000206000915090508060000160009054906101000a900460e81b908060010180546108d6906110bd565b80601f0160208091040260200160405190810160405280929190818152602001828054610902906110bd565b801561094f5780601f106109245761010080835404028352916020019161094f565b820191906000526020600020905b81548152906001019060200180831161093257829003601f168201915b5050505050908060020160009054906101000a900473ffffffffffffffffffffffffffffffffffffffff16905083565b6000604051905090565b600080fd5b600080fd5b60007fffffff000000000000000000000000000000000000000000000000000000000082169050919050565b6109c881610993565b81146109d357600080fd5b50565b6000813590506109e5816109bf565b92915050565b6000819050919050565b6109fe816109eb565b8114610a0957600080fd5b50565b600081359050610a1b816109f5565b92915050565b60008060408385031215610a3857610a37610989565b5b6000610a46858286016109d6565b9250506020610a5785828601610a0c565b9150509250929050565b600060208284031215610a7757610a76610989565b5b6000610a8584828501610a0c565b91505092915050565b610a9781610993565b82525050565b6000602082019050610ab26000830184610a8e565b92915050565b600073ffffffffffffffffffffffffffffffffffffffff82169050919050565b6000610ae382610ab8565b9050919050565b610af381610ad8565b82525050565b6000602082019050610b0e6000830184610aea565b92915050565b600080fd5b600080fd5b6000601f19601f8301169050919050565b7f4e487b7100000000000000000000000000000000000000000000000000000000600052604160045260246000fd5b610b6782610b1e565b810181811067ffffffffffffffff82111715610b8657610b85610b2f565b5b80604052505050565b6000610b9961097f565b9050610ba58282610b5e565b919050565b600067ffffffffffffffff821115610bc557610bc4610b2f565b5b610bce82610b1e565b9050602081019050919050565b82818337600083830152505050565b6000610bfd610bf884610baa565b610b8f565b905082815260208101848484011115610c1957610c18610b19565b5b610c24848285610bdb565b509392505050565b600082601f830112610c4157610c40610b14565b5b8135610c51848260208601610bea565b91505092915050565b610c6381610ad8565b8114610c6e57600080fd5b50565b600081359050610c8081610c5a565b92915050565b600080600060608486031215610c9f57610c9e610989565b5b6000610cad868287016109d6565b935050602084013567ffffffffffffffff811115610cce57610ccd61098e565b5b610cda86828701610c2c565b9250506040610ceb86828701610c71565b9150509250925092565b600060208284031215610d0b57610d0a610989565b5b6000610d19848285016109d6565b91505092915050565b600081519050919050565b600082825260208201905092915050565b60005b83811015610d5c578082015181840152602081019050610d41565b60008484015250505050565b6000610d7382610d22565b610d7d8185610d2d565b9350610d8d818560208601610d3e565b610d9681610b1e565b840191505092915050565b6000606082019050610db66000830186610a8e565b8181036020830152610dc88185610d68565b9050610dd76040830184610aea565b949350505050565b7f496e73756666696369656e742062616c616e6365000000000000000000000000600082015250565b6000610e15601483610d2d565b9150610e2082610ddf565b602082019050919050565b60006020820190508181036000830152610e4481610e08565b9050919050565b610e54816109eb565b82525050565b6000604082019050610e6f6000830185610aea565b610e7c6020830184610e4b565b9392505050565b60008115159050919050565b610e9881610e83565b8114610ea357600080fd5b50565b600081519050610eb581610e8f565b92915050565b600060208284031215610ed157610ed0610989565b5b6000610edf84828501610ea6565b91505092915050565b7f4e487b7100000000000000000000000000000000000000000000000000000000600052601160045260246000fd5b6000610f22826109eb565b9150610f2d836109eb565b9250828203905081811115610f4557610f44610ee8565b5b92915050565b6000606082019050610f606000830186610aea565b610f6d6020830185610aea565b610f7a6040830184610e4b565b949350505050565b6000610f8d826109eb565b9150610f98836109eb565b9250828201905080821115610fb057610faf610ee8565b5b92915050565b7f54686520746f6b656e207469636b657220616c72656164792065786973740000600082015250565b6000610fec601e83610d2d565b9150610ff782610fb6565b602082019050919050565b6000602082019050818103600083015261101b81610fdf565b9050919050565b7f596f7520617265206e6f7420746865206f776e65720000000000000000000000600082015250565b6000611058601583610d2d565b915061106382611022565b602082019050919050565b600060208201905081810360008301526110878161104b565b9050919050565b7f4e487b7100000000000000000000000000000000000000000000000000000000600052602260045260246000fd5b600060028204905060018216806110d557607f821691505b6020821081036110e8576110e761108e565b5b50919050565b60008190508160005260206000209050919050565b60006020601f8301049050919050565b600082821b905092915050565b6000600883026111507fffffffffffffffffffffffffffffffffffffffffffffffffffffffffffffffff82611113565b61115a8683611113565b95508019841693508086168417925050509392505050565b6000819050919050565b600061119761119261118d846109eb565b611172565b6109eb565b9050919050565b6000819050919050565b6111b18361117c565b6111c56111bd8261119e565b848454611120565b825550505050565b600090565b6111da6111cd565b6111e58184846111a8565b505050565b5b81811015611209576111fe6000826111d2565b6001810190506111eb565b5050565b601f82111561124e5761121f816110ee565b61122884611103565b81016020851015611237578190505b61124b61124385611103565b8301826111ea565b50505b505050565b600082821c905092915050565b600061127160001984600802611253565b1980831691505092915050565b600061128a8383611260565b9150826002028217905092915050565b6112a382610d22565b67ffffffffffffffff8111156112bc576112bb610b2f565b5b6112c682546110bd565b6112d182828561120d565b600060209050601f83116001811461130457600084156112f2578287015190505b6112fc858261127e565b865550611364565b601f198416611312866110ee565b60005b8281101561133a57848901518255600182019150602085019450602081019050611315565b868310156113575784890151611353601f891682611260565b8355505b6001600288020188555050505b50505050505056fea2646970667358221220afcbfbb893d8e7c153a9e80c4936f474973057a4e01cf3865966daf65687c11464736f6c63430008110033",
  "immutableReferences": {},
  "source": "// SPDX-License-Identifier: MIT\n\npragma solidity ^0.8.4;\nimport \"@openzeppelin/contracts/token/ERC20/IERC20.sol\";\n\ncontract Dex {\n    /* This contract has following functionalities\n     1. Create new tokens\n     2. Deposit/Withdraw Token \n     */\n\n    struct token {\n        bytes3 ticker; // Limiting the ticker length to 3 bytes max\n        string tokenName; // User friendly token name\n        address tokenAddress;\n    }\n\n    address public owner;\n    mapping(bytes3 => token) public tokens;\n    bytes3[] public tokensList;\n\n    constructor() {\n        owner = msg.sender;\n    }\n\n    function addNewToken(\n        bytes3 ticker,\n        string memory tokenName,\n        address tokenAddress\n    ) external isTokenNotExist(ticker) isOwner {\n        token memory newToken = token(ticker, tokenName, tokenAddress);\n        tokens[ticker] = newToken;\n        tokensList.push(ticker);\n    }\n\n    mapping(address => mapping(bytes3 => uint256)) tradersBalances;\n\n    // confusion\n    function deposit(bytes3 ticker, uint256 amount) external {\n        IERC20(tokens[ticker].tokenAddress).transferFrom(\n            msg.sender,\n            address(this),\n            amount\n        );\n\n        // record transaction in DEX ledger\n        tradersBalances[msg.sender][ticker] += amount;\n    }\n\n    function withdraw(bytes3 ticker, uint256 amount) external {\n        require(\n            tradersBalances[msg.sender][ticker] >= amount,\n            \"Insufficient balance\"\n        );\n\n        IERC20(tokens[ticker].tokenAddress).transfer(msg.sender, amount);\n\n        // record transaction in DEX ledger\n        tradersBalances[msg.sender][ticker] -= amount;\n    }\n\n    modifier isTokenNotExist(bytes3 ticker) {\n        require(\n            tokens[ticker].ticker != bytes3(0),\n            \"The token ticker already exist\"\n        );\n        _;\n    }\n    modifier isOwner() {\n        require(msg.sender == owner, \"You are not the owner\");\n        _;\n    }\n}\n",
  "sourcePath": "/Users/deepanshusingh/blockchain projects/Personal DEX project/contracts/DEX.sol",
  "compiler": {
    "name": "solc",
    "version": "0.8.17+commit.8df45f5f.Emscripten.clang"
  },
  "schemaVersion": "3.4.10",
  "updatedAt": "2022-10-30T19:25:34.708Z",
  "devdoc": {
    "kind": "dev",
    "methods": {},
    "version": 1
  },
  "userdoc": {
    "kind": "user",
    "methods": {},
    "version": 1
  }
}