{
  "contractName": "Dex",
  "abi": [
    {
      "inputs": [],
      "stateMutability": "nonpayable",
      "type": "constructor"
    },
    {
      "anonymous": false,
      "inputs": [
        {
          "indexed": false,
          "internalType": "address",
          "name": "trader",
          "type": "address"
        },
        {
          "indexed": false,
          "internalType": "bytes32",
          "name": "ticker",
          "type": "bytes32"
        },
        {
          "indexed": false,
          "internalType": "enum OrdersManagement.Side",
          "name": "side",
          "type": "uint8"
        },
        {
          "indexed": false,
          "internalType": "uint256",
          "name": "amount",
          "type": "uint256"
        },
        {
          "indexed": false,
          "internalType": "uint256",
          "name": "averagePrice",
          "type": "uint256"
        },
        {
          "indexed": false,
          "internalType": "uint256",
          "name": "filled",
          "type": "uint256"
        }
      ],
      "name": "NewTrade",
      "type": "event"
    },
    {
      "anonymous": false,
      "inputs": [
        {
          "indexed": false,
          "internalType": "uint256",
          "name": "c",
          "type": "uint256"
        }
      ],
      "name": "log",
      "type": "event"
    },
    {
      "inputs": [
        {
          "internalType": "bytes32",
          "name": "ticker",
          "type": "bytes32"
        },
        {
          "internalType": "enum OrdersManagement.Side",
          "name": "side",
          "type": "uint8"
        },
        {
          "internalType": "uint256",
          "name": "amount",
          "type": "uint256"
        },
        {
          "internalType": "uint256",
          "name": "price",
          "type": "uint256"
        }
      ],
      "name": "LimitOrder",
      "outputs": [],
      "stateMutability": "nonpayable",
      "type": "function"
    },
    {
      "inputs": [
        {
          "internalType": "bytes32",
          "name": "ticker",
          "type": "bytes32"
        },
        {
          "internalType": "enum OrdersManagement.Side",
          "name": "side",
          "type": "uint8"
        },
        {
          "internalType": "uint256",
          "name": "amount",
          "type": "uint256"
        }
      ],
      "name": "MarketOrder",
      "outputs": [],
      "stateMutability": "nonpayable",
      "type": "function"
    },
    {
      "inputs": [
        {
          "internalType": "bytes32",
          "name": "ticker",
          "type": "bytes32"
        },
        {
          "internalType": "address",
          "name": "traderAddress",
          "type": "address"
        }
      ],
      "name": "getBalance",
      "outputs": [
        {
          "internalType": "uint256",
          "name": "",
          "type": "uint256"
        }
      ],
      "stateMutability": "view",
      "type": "function"
    },
    {
      "inputs": [
        {
          "internalType": "bytes32",
          "name": "ticker",
          "type": "bytes32"
        },
        {
          "internalType": "enum OrdersManagement.Side",
          "name": "side",
          "type": "uint8"
        }
      ],
      "name": "getOrders",
      "outputs": [
        {
          "components": [
            {
              "internalType": "uint256",
              "name": "id",
              "type": "uint256"
            },
            {
              "internalType": "address",
              "name": "trader",
              "type": "address"
            },
            {
              "internalType": "bytes32",
              "name": "ticker",
              "type": "bytes32"
            },
            {
              "internalType": "enum OrdersManagement.Side",
              "name": "side",
              "type": "uint8"
            },
            {
              "internalType": "uint256",
              "name": "amount",
              "type": "uint256"
            },
            {
              "internalType": "uint256",
              "name": "price",
              "type": "uint256"
            },
            {
              "internalType": "uint256",
              "name": "filledAmount",
              "type": "uint256"
            }
          ],
          "internalType": "struct OrdersManagement.Order[]",
          "name": "",
          "type": "tuple[]"
        }
      ],
      "stateMutability": "view",
      "type": "function"
    },
    {
      "inputs": [],
      "name": "owner",
      "outputs": [
        {
          "internalType": "address",
          "name": "",
          "type": "address"
        }
      ],
      "stateMutability": "view",
      "type": "function"
    },
    {
      "inputs": [
        {
          "internalType": "bytes32",
          "name": "",
          "type": "bytes32"
        }
      ],
      "name": "tokens",
      "outputs": [
        {
          "internalType": "bytes32",
          "name": "ticker",
          "type": "bytes32"
        },
        {
          "internalType": "string",
          "name": "tokenName",
          "type": "string"
        },
        {
          "internalType": "address",
          "name": "tokenAddress",
          "type": "address"
        }
      ],
      "stateMutability": "view",
      "type": "function"
    },
    {
      "inputs": [
        {
          "internalType": "uint256",
          "name": "",
          "type": "uint256"
        }
      ],
      "name": "tokensList",
      "outputs": [
        {
          "internalType": "bytes32",
          "name": "",
          "type": "bytes32"
        }
      ],
      "stateMutability": "view",
      "type": "function"
    },
    {
      "inputs": [
        {
          "internalType": "bytes32",
          "name": "ticker",
          "type": "bytes32"
        },
        {
          "internalType": "string",
          "name": "tokenName",
          "type": "string"
        },
        {
          "internalType": "address",
          "name": "tokenAddress",
          "type": "address"
        }
      ],
      "name": "addNewToken",
      "outputs": [],
      "stateMutability": "nonpayable",
      "type": "function"
    },
    {
      "inputs": [
        {
          "internalType": "bytes32",
          "name": "ticker",
          "type": "bytes32"
        },
        {
          "internalType": "uint256",
          "name": "amount",
          "type": "uint256"
        }
      ],
      "name": "deposit",
      "outputs": [],
      "stateMutability": "nonpayable",
      "type": "function"
    },
    {
      "inputs": [
        {
          "internalType": "bytes32",
          "name": "ticker",
          "type": "bytes32"
        },
        {
          "internalType": "uint256",
          "name": "amount",
          "type": "uint256"
        }
      ],
      "name": "withdraw",
      "outputs": [],
      "stateMutability": "nonpayable",
      "type": "function"
    }
  ],
  "bytecode": "0x608060405234801561001057600080fd5b50336000806101000a81548173ffffffffffffffffffffffffffffffffffffffff021916908373ffffffffffffffffffffffffffffffffffffffff16021790555061333b806100606000396000f3fe608060405234801561001057600080fd5b506004361061009e5760003560e01c8063627e89b311610066578063627e89b31461016b5780638da5cb5b14610187578063904194a3146101a5578063e8b5fa23146101d7578063ef5099b4146101f35761009e565b8063040cf020146100a35780631de26e16146100bf57806346e9658b146100db5780634d12e34e1461010b578063530e931c1461013b575b600080fd5b6100bd60048036038101906100b89190612155565b61020f565b005b6100d960048036038101906100d49190612155565b61041f565b005b6100f560048036038101906100f091906121ba565b61059e565b604051610102919061240d565b60405180910390f35b6101256004803603810190610120919061242f565b610709565b604051610132919061246b565b60405180910390f35b610155600480360381019061015091906124b2565b61072d565b6040516101629190612501565b60405180910390f35b6101856004803603810190610180919061251c565b6107e5565b005b61018f61115e565b60405161019c919061257e565b60405180910390f35b6101bf60048036038101906101ba9190612599565b611182565b6040516101ce93929190612656565b60405180910390f35b6101f160048036038101906101ec91906127c9565b611254565b005b61020d60048036038101906102089190612838565b611421565b005b816000801b60026000838152602001908152602001600020600001540361026b576040517f08c379a0000000000000000000000000000000000000000000000000000000008152600401610262906128eb565b60405180910390fd5b81600360003373ffffffffffffffffffffffffffffffffffffffff1673ffffffffffffffffffffffffffffffffffffffff16815260200190815260200160002060008581526020019081526020016000205410156102fe576040517f08c379a00000000000000000000000000000000000000000000000000000000081526004016102f590612957565b60405180910390fd5b6002600084815260200190815260200160002060020160009054906101000a900473ffffffffffffffffffffffffffffffffffffffff1673ffffffffffffffffffffffffffffffffffffffff1663a9059cbb33846040518363ffffffff1660e01b815260040161036f929190612977565b6020604051808303816000875af115801561038e573d6000803e3d6000fd5b505050506040513d601f19601f820116820180604052508101906103b291906129d8565b5081600360003373ffffffffffffffffffffffffffffffffffffffff1673ffffffffffffffffffffffffffffffffffffffff168152602001908152602001600020600085815260200190815260200160002060008282546104139190612a34565b92505081905550505050565b816000801b60026000838152602001908152602001600020600001540361047b576040517f08c379a0000000000000000000000000000000000000000000000000000000008152600401610472906128eb565b60405180910390fd5b6002600084815260200190815260200160002060020160009054906101000a900473ffffffffffffffffffffffffffffffffffffffff1673ffffffffffffffffffffffffffffffffffffffff166323b872dd3330856040518463ffffffff1660e01b81526004016104ee93929190612a68565b6020604051808303816000875af115801561050d573d6000803e3d6000fd5b505050506040513d601f19601f8201168201806040525081019061053191906129d8565b5081600360003373ffffffffffffffffffffffffffffffffffffffff1673ffffffffffffffffffffffffffffffffffffffff168152602001908152602001600020600085815260200190815260200160002060008282546105929190612a9f565b92505081905550505050565b60606005600084815260200190815260200160002060008360018111156105c8576105c7612285565b5b60018111156105da576105d9612285565b5b8152602001908152602001600020805480602002602001604051908101604052809291908181526020016000905b828210156106fd57838290600052602060002090600702016040518060e0016040529081600082015481526020016001820160009054906101000a900473ffffffffffffffffffffffffffffffffffffffff1673ffffffffffffffffffffffffffffffffffffffff1673ffffffffffffffffffffffffffffffffffffffff168152602001600282015481526020016003820160009054906101000a900460ff1660018111156106ba576106b9612285565b5b60018111156106cc576106cb612285565b5b8152602001600482015481526020016005820154815260200160068201548152505081526020019060010190610608565b50505050905092915050565b6001818154811061071957600080fd5b906000526020600020016000915090505481565b6000826000801b60026000838152602001908152602001600020600001540361078b576040517f08c379a0000000000000000000000000000000000000000000000000000000008152600401610782906128eb565b60405180910390fd5b600360008473ffffffffffffffffffffffffffffffffffffffff1673ffffffffffffffffffffffffffffffffffffffff16815260200190815260200160002060008581526020019081526020016000205491505092915050565b826000801b600260008381526020019081526020016000206000015403610841576040517f08c379a0000000000000000000000000000000000000000000000000000000008152600401610838906128eb565b60405180910390fd5b6000600181111561085557610854612285565b5b83600181111561086857610867612285565b5b03156108fd57610878843361072d565b8211158460405160200161088c9190612af4565b6040516020818303038152906040526040516020016108ab9190612b71565b604051602081830303815290604052906108fb576040517f08c379a00000000000000000000000000000000000000000000000000000000081526004016108f29190612b97565b60405180910390fd5b505b600060056000868152602001908152602001600020600080600181111561092757610926612285565b5b86600181111561093a57610939612285565b5b14610946576000610949565b60015b600181111561095b5761095a612285565b5b600181111561096d5761096c612285565b5b815260200190815260200160002090506000839050600080600181111561099757610996612285565b5b8660018111156109aa576109a9612285565b5b146109c557600183805490506109c09190612bc3565b6109c8565b60005b90506000805b600084141580156109fe57507fffffffffffffffffffffffffffffffffffffffffffffffffffffffffffffffff83135b8015610a0d5750848054905083125b156110c4576000858481548110610a2757610a26612c06565b5b90600052602060002090600702019050600081600601548260040154610a4d9190612a34565b90506000868210610a6057869050610a64565b8190505b60006001811115610a7857610a77612285565b5b8b6001811115610a8b57610a8a612285565b5b03610b59576000836005015482610aa29190612c35565b905080600360003373ffffffffffffffffffffffffffffffffffffffff1673ffffffffffffffffffffffffffffffffffffffff16815260200190815260200160002060007f44414900000000000000000000000000000000000000000000000000000000008152602001908152602001600020541015610b57576040517f08c379a0000000000000000000000000000000000000000000000000000000008152600401610b4e90612cc3565b60405180910390fd5b505b86888781548110610b6d57610b6c612c06565b5b90600052602060002090600702016006016000828254019250508190555060006001811115610b9f57610b9e612285565b5b8b6001811115610bb257610bb1612285565b5b03610dfe5780600360003373ffffffffffffffffffffffffffffffffffffffff1673ffffffffffffffffffffffffffffffffffffffff16815260200190815260200160002060008e81526020019081526020016000206000828254610c179190612a9f565b92505081905550826005015481610c2e9190612c35565b600360003373ffffffffffffffffffffffffffffffffffffffff1673ffffffffffffffffffffffffffffffffffffffff16815260200190815260200160002060007f444149000000000000000000000000000000000000000000000000000000000081526020019081526020016000206000828254610cad9190612a34565b9250508190555080600360008560010160009054906101000a900473ffffffffffffffffffffffffffffffffffffffff1673ffffffffffffffffffffffffffffffffffffffff1673ffffffffffffffffffffffffffffffffffffffff16815260200190815260200160002060008e81526020019081526020016000206000828254610d389190612a34565b92505081905550826005015481610d4f9190612c35565b600360008560010160009054906101000a900473ffffffffffffffffffffffffffffffffffffffff1673ffffffffffffffffffffffffffffffffffffffff1673ffffffffffffffffffffffffffffffffffffffff16815260200190815260200160002060007f444149000000000000000000000000000000000000000000000000000000000081526020019081526020016000206000828254610df29190612a9f565b92505081905550611041565b80600360003373ffffffffffffffffffffffffffffffffffffffff1673ffffffffffffffffffffffffffffffffffffffff16815260200190815260200160002060008e81526020019081526020016000206000828254610e5e9190612a34565b92505081905550826005015481610e759190612c35565b600360003373ffffffffffffffffffffffffffffffffffffffff1673ffffffffffffffffffffffffffffffffffffffff16815260200190815260200160002060007f444149000000000000000000000000000000000000000000000000000000000081526020019081526020016000206000828254610ef49190612a9f565b9250508190555080600360008560010160009054906101000a900473ffffffffffffffffffffffffffffffffffffffff1673ffffffffffffffffffffffffffffffffffffffff1673ffffffffffffffffffffffffffffffffffffffff16815260200190815260200160002060008e81526020019081526020016000206000828254610f7f9190612a9f565b92505081905550826005015481610f969190612c35565b600360008560010160009054906101000a900473ffffffffffffffffffffffffffffffffffffffff1673ffffffffffffffffffffffffffffffffffffffff1673ffffffffffffffffffffffffffffffffffffffff16815260200190815260200160002060007f4441490000000000000000000000000000000000000000000000000000000000815260200190815260200160002060008282546110399190612a34565b925050819055505b808761104d9190612a34565b965082600501548561105f9190612a9f565b9450838061106c90612ce3565b9450506000600181111561108357611082612285565b5b8b600181111561109657611095612285565b5b146110ad5785806110a690612d2b565b96506110bb565b85806110b890612d73565b96505b505050506109ce565b6110ce85896116f6565b506000811115611153576000876064868a6110e99190612a34565b6110f39190612c35565b6110fd9190612dea565b90506000828461110d9190612dea565b90507f1fd2dbfc8346e62b50fd4267a5cf8a03dd83cad0e15058cefd21a91ab03c309f338c8c8c858760405161114896959493929190612e2a565b60405180910390a150505b505050505050505050565b60008054906101000a900473ffffffffffffffffffffffffffffffffffffffff1681565b60026020528060005260406000206000915090508060000154908060010180546111ab90612eba565b80601f01602080910402602001604051908101604052809291908181526020018280546111d790612eba565b80156112245780601f106111f957610100808354040283529160200191611224565b820191906000526020600020905b81548152906001019060200180831161120757829003601f168201915b5050505050908060020160009054906101000a900473ffffffffffffffffffffffffffffffffffffffff16905083565b826000801b6002600083815260200190815260200160002060000154146112b0576040517f08c379a00000000000000000000000000000000000000000000000000000000081526004016112a790612f37565b60405180910390fd5b60008054906101000a900473ffffffffffffffffffffffffffffffffffffffff1673ffffffffffffffffffffffffffffffffffffffff163373ffffffffffffffffffffffffffffffffffffffff161461133e576040517f08c379a000000000000000000000000000000000000000000000000000000000815260040161133590612fa3565b60405180910390fd5b600060405180606001604052808681526020018581526020018473ffffffffffffffffffffffffffffffffffffffff16815250905080600260008781526020019081526020016000206000820151816000015560208201518160010190816113a6919061316f565b5060408201518160020160006101000a81548173ffffffffffffffffffffffffffffffffffffffff021916908373ffffffffffffffffffffffffffffffffffffffff16021790555090505060018590806001815401808255809150506001900390600052602060002001600090919091909150555050505050565b836000801b60026000838152602001908152602001600020600001540361147d576040517f08c379a0000000000000000000000000000000000000000000000000000000008152600401611474906128eb565b60405180910390fd5b6000600181111561149157611490612285565b5b8460018111156114a4576114a3612285565b5b0361152b57600082846114b79190612c35565b90506114e37f44414900000000000000000000000000000000000000000000000000000000003361072d565b811115611525576040517f08c379a000000000000000000000000000000000000000000000000000000000815260040161151c9061328d565b60405180910390fd5b506115ba565b611535853361072d565b831115856040516020016115499190612af4565b6040516020818303038152906040526040516020016115689190612b71565b604051602081830303815290604052906115b8576040517f08c379a00000000000000000000000000000000000000000000000000000000081526004016115af9190612b97565b60405180910390fd5b505b60006005600087815260200190815260200160002060008660018111156115e4576115e3612285565b5b60018111156115f6576115f5612285565b5b8152602001908152602001600020905060006040518060e0016040528060016004546116229190612a9f565b81526020013373ffffffffffffffffffffffffffffffffffffffff16815260200188815260200187600181111561165c5761165b612285565b5b81526020018681526020018581526020016000815250905061167e8183611ac9565b6005600089815260200190815260200160002060008860018111156116a6576116a5612285565b5b60018111156116b8576116b7612285565b5b81526020019081526020016000209080546116d4929190611f2d565b50600460008154809291906116e890612ce3565b919050555050505050505050565b6000806000600181111561170d5761170c612285565b5b8360018111156117205761171f612285565b5b1461173b57600184805490506117369190612bc3565b61173e565b60005b90505b83805490508112801561177357507fffffffffffffffffffffffffffffffffffffffffffffffffffffffffffffffff81135b80156117c6575083818154811061178d5761178c612c06565b5b9060005260206000209060070201600401548482815481106117b2576117b1612c06565b5b906000526020600020906007020160060154145b15611abf57600060018111156117df576117de612285565b5b8360018111156117f2576117f1612285565b5b036119df5760005b6001858054905061180b9190612a34565b81101561194c57846001826118209190612a9f565b8154811061183157611830612c06565b5b906000526020600020906007020185828154811061185257611851612c06565b5b9060005260206000209060070201600082015481600001556001820160009054906101000a900473ffffffffffffffffffffffffffffffffffffffff168160010160006101000a81548173ffffffffffffffffffffffffffffffffffffffff021916908373ffffffffffffffffffffffffffffffffffffffff160217905550600282015481600201556003820160009054906101000a900460ff168160030160006101000a81548160ff0219169083600181111561191357611912612285565b5b0217905550600482015481600401556005820154816005015560068201548160060155905050808061194490612ce3565b9150506117fa565b508380548061195e5761195d6132ad565b5b60019003818190600052602060002090600702016000808201600090556001820160006101000a81549073ffffffffffffffffffffffffffffffffffffffff021916905560028201600090556003820160006101000a81549060ff021916905560048201600090556005820160009055600682016000905550509055611a6d565b838054806119f0576119ef6132ad565b5b60019003818190600052602060002090600702016000808201600090556001820160006101000a81549073ffffffffffffffffffffffffffffffffffffffff021916905560028201600090556003820160006101000a81549060ff0219169055600482016000905560058201600090556006820160009055505090555b60006001811115611a8157611a80612285565b5b836001811115611a9457611a93612285565b5b14611aab578080611aa490612d2b565b9150611ab9565b8080611ab690612d73565b91505b50611741565b8391505092915050565b6000818390806001815401808255809150506001900390600052602060002090600702016000909190919091506000820151816000015560208201518160010160006101000a81548173ffffffffffffffffffffffffffffffffffffffff021916908373ffffffffffffffffffffffffffffffffffffffff1602179055506040820151816002015560608201518160030160006101000a81548160ff02191690836001811115611b7c57611b7b612285565b5b02179055506080820151816004015560a0820151816005015560c082015181600601555050600060018380549050611bb49190612a34565b90505b60018103611f235782600182611bcd9190612a34565b81548110611bde57611bdd612c06565b5b906000526020600020906007020160050154838281548110611c0357611c02612c06565b5b9060005260206000209060070201600501541015611f2357600083600183611c2b9190612a34565b81548110611c3c57611c3b612c06565b5b90600052602060002090600702016040518060e0016040529081600082015481526020016001820160009054906101000a900473ffffffffffffffffffffffffffffffffffffffff1673ffffffffffffffffffffffffffffffffffffffff1673ffffffffffffffffffffffffffffffffffffffff168152602001600282015481526020016003820160009054906101000a900460ff166001811115611ce457611ce3612285565b5b6001811115611cf657611cf5612285565b5b815260200160048201548152602001600582015481526020016006820154815250509050838281548110611d2d57611d2c612c06565b5b906000526020600020906007020184600184611d499190612a34565b81548110611d5a57611d59612c06565b5b9060005260206000209060070201600082015481600001556001820160009054906101000a900473ffffffffffffffffffffffffffffffffffffffff168160010160006101000a81548173ffffffffffffffffffffffffffffffffffffffff021916908373ffffffffffffffffffffffffffffffffffffffff160217905550600282015481600201556003820160009054906101000a900460ff168160030160006101000a81548160ff02191690836001811115611e1b57611e1a612285565b5b021790555060048201548160040155600582015481600501556006820154816006015590505080848381548110611e5557611e54612c06565b5b90600052602060002090600702016000820151816000015560208201518160010160006101000a81548173ffffffffffffffffffffffffffffffffffffffff021916908373ffffffffffffffffffffffffffffffffffffffff1602179055506040820151816002015560608201518160030160006101000a81548160ff02191690836001811115611ee957611ee8612285565b5b02179055506080820151816004015560a0820151816005015560c08201518160060155905050508080611f1b906132dc565b915050611bb7565b5081905092915050565b82805482825590600052602060002090600702810192821561204a5760005260206000209160070282015b82811115612049578282600082015481600001556001820160009054906101000a900473ffffffffffffffffffffffffffffffffffffffff168160010160006101000a81548173ffffffffffffffffffffffffffffffffffffffff021916908373ffffffffffffffffffffffffffffffffffffffff160217905550600282015481600201556003820160009054906101000a900460ff168160030160006101000a81548160ff0219169083600181111561201557612014612285565b5b0217905550600482015481600401556005820154816005015560068201548160060155505091600701919060070190611f58565b5b509050612057919061205b565b5090565b5b808211156120d1576000808201600090556001820160006101000a81549073ffffffffffffffffffffffffffffffffffffffff021916905560028201600090556003820160006101000a81549060ff02191690556004820160009055600582016000905560068201600090555060070161205c565b5090565b6000604051905090565b600080fd5b600080fd5b6000819050919050565b6120fc816120e9565b811461210757600080fd5b50565b600081359050612119816120f3565b92915050565b6000819050919050565b6121328161211f565b811461213d57600080fd5b50565b60008135905061214f81612129565b92915050565b6000806040838503121561216c5761216b6120df565b5b600061217a8582860161210a565b925050602061218b85828601612140565b9150509250929050565b600281106121a257600080fd5b50565b6000813590506121b481612195565b92915050565b600080604083850312156121d1576121d06120df565b5b60006121df8582860161210a565b92505060206121f0858286016121a5565b9150509250929050565b600081519050919050565b600082825260208201905092915050565b6000819050602082019050919050565b61222f8161211f565b82525050565b600073ffffffffffffffffffffffffffffffffffffffff82169050919050565b600061226082612235565b9050919050565b61227081612255565b82525050565b61227f816120e9565b82525050565b7f4e487b7100000000000000000000000000000000000000000000000000000000600052602160045260246000fd5b600281106122c5576122c4612285565b5b50565b60008190506122d6826122b4565b919050565b60006122e6826122c8565b9050919050565b6122f6816122db565b82525050565b60e0820160008201516123126000850182612226565b5060208201516123256020850182612267565b5060408201516123386040850182612276565b50606082015161234b60608501826122ed565b50608082015161235e6080850182612226565b5060a082015161237160a0850182612226565b5060c082015161238460c0850182612226565b50505050565b600061239683836122fc565b60e08301905092915050565b6000602082019050919050565b60006123ba826121fa565b6123c48185612205565b93506123cf83612216565b8060005b838110156124005781516123e7888261238a565b97506123f2836123a2565b9250506001810190506123d3565b5085935050505092915050565b6000602082019050818103600083015261242781846123af565b905092915050565b600060208284031215612445576124446120df565b5b600061245384828501612140565b91505092915050565b612465816120e9565b82525050565b6000602082019050612480600083018461245c565b92915050565b61248f81612255565b811461249a57600080fd5b50565b6000813590506124ac81612486565b92915050565b600080604083850312156124c9576124c86120df565b5b60006124d78582860161210a565b92505060206124e88582860161249d565b9150509250929050565b6124fb8161211f565b82525050565b600060208201905061251660008301846124f2565b92915050565b600080600060608486031215612535576125346120df565b5b60006125438682870161210a565b9350506020612554868287016121a5565b925050604061256586828701612140565b9150509250925092565b61257881612255565b82525050565b6000602082019050612593600083018461256f565b92915050565b6000602082840312156125af576125ae6120df565b5b60006125bd8482850161210a565b91505092915050565b600081519050919050565b600082825260208201905092915050565b60005b838110156126005780820151818401526020810190506125e5565b60008484015250505050565b6000601f19601f8301169050919050565b6000612628826125c6565b61263281856125d1565b93506126428185602086016125e2565b61264b8161260c565b840191505092915050565b600060608201905061266b600083018661245c565b818103602083015261267d818561261d565b905061268c604083018461256f565b949350505050565b600080fd5b600080fd5b7f4e487b7100000000000000000000000000000000000000000000000000000000600052604160045260246000fd5b6126d68261260c565b810181811067ffffffffffffffff821117156126f5576126f461269e565b5b80604052505050565b60006127086120d5565b905061271482826126cd565b919050565b600067ffffffffffffffff8211156127345761273361269e565b5b61273d8261260c565b9050602081019050919050565b82818337600083830152505050565b600061276c61276784612719565b6126fe565b90508281526020810184848401111561278857612787612699565b5b61279384828561274a565b509392505050565b600082601f8301126127b0576127af612694565b5b81356127c0848260208601612759565b91505092915050565b6000806000606084860312156127e2576127e16120df565b5b60006127f08682870161210a565b935050602084013567ffffffffffffffff811115612811576128106120e4565b5b61281d8682870161279b565b925050604061282e8682870161249d565b9150509250925092565b60008060008060808587031215612852576128516120df565b5b60006128608782880161210a565b9450506020612871878288016121a5565b935050604061288287828801612140565b925050606061289387828801612140565b91505092959194509250565b7f54686520746f6b656e20646f6573206e6f742065786973740000000000000000600082015250565b60006128d56018836125d1565b91506128e08261289f565b602082019050919050565b60006020820190508181036000830152612904816128c8565b9050919050565b7f496e73756666696369656e742062616c616e6365000000000000000000000000600082015250565b60006129416014836125d1565b915061294c8261290b565b602082019050919050565b6000602082019050818103600083015261297081612934565b9050919050565b600060408201905061298c600083018561256f565b61299960208301846124f2565b9392505050565b60008115159050919050565b6129b5816129a0565b81146129c057600080fd5b50565b6000815190506129d2816129ac565b92915050565b6000602082840312156129ee576129ed6120df565b5b60006129fc848285016129c3565b91505092915050565b7f4e487b7100000000000000000000000000000000000000000000000000000000600052601160045260246000fd5b6000612a3f8261211f565b9150612a4a8361211f565b9250828203905081811115612a6257612a61612a05565b5b92915050565b6000606082019050612a7d600083018661256f565b612a8a602083018561256f565b612a9760408301846124f2565b949350505050565b6000612aaa8261211f565b9150612ab58361211f565b9250828201905080821115612acd57612acc612a05565b5b92915050565b6000819050919050565b612aee612ae9826120e9565b612ad3565b82525050565b6000612b008284612add565b60208201915081905092915050565b7f596f7520646f6e2774206861766520656e6f7567682000000000000000000000815250565b600081905092915050565b6000612b4b826125c6565b612b558185612b35565b9350612b658185602086016125e2565b80840191505092915050565b6000612b7c82612b0f565b601682019150612b8c8284612b40565b915081905092915050565b60006020820190508181036000830152612bb1818461261d565b905092915050565b6000819050919050565b6000612bce82612bb9565b9150612bd983612bb9565b9250828203905081811260008412168282136000851215161715612c0057612bff612a05565b5b92915050565b7f4e487b7100000000000000000000000000000000000000000000000000000000600052603260045260246000fd5b6000612c408261211f565b9150612c4b8361211f565b9250828202612c598161211f565b91508282048414831517612c7057612c6f612a05565b5b5092915050565b7f4e6f7420656e6f75676820444149000000000000000000000000000000000000600082015250565b6000612cad600e836125d1565b9150612cb882612c77565b602082019050919050565b60006020820190508181036000830152612cdc81612ca0565b9050919050565b6000612cee8261211f565b91507fffffffffffffffffffffffffffffffffffffffffffffffffffffffffffffffff8203612d2057612d1f612a05565b5b600182019050919050565b6000612d3682612bb9565b91507f80000000000000000000000000000000000000000000000000000000000000008203612d6857612d67612a05565b5b600182039050919050565b6000612d7e82612bb9565b91507f7fffffffffffffffffffffffffffffffffffffffffffffffffffffffffffffff8203612db057612daf612a05565b5b600182019050919050565b7f4e487b7100000000000000000000000000000000000000000000000000000000600052601260045260246000fd5b6000612df58261211f565b9150612e008361211f565b925082612e1057612e0f612dbb565b5b828204905092915050565b612e24816122db565b82525050565b600060c082019050612e3f600083018961256f565b612e4c602083018861245c565b612e596040830187612e1b565b612e6660608301866124f2565b612e7360808301856124f2565b612e8060a08301846124f2565b979650505050505050565b7f4e487b7100000000000000000000000000000000000000000000000000000000600052602260045260246000fd5b60006002820490506001821680612ed257607f821691505b602082108103612ee557612ee4612e8b565b5b50919050565b7f546865207469636b657220697320616c72656164792074616b656e0000000000600082015250565b6000612f21601b836125d1565b9150612f2c82612eeb565b602082019050919050565b60006020820190508181036000830152612f5081612f14565b9050919050565b7f596f7520617265206e6f7420746865206f776e65720000000000000000000000600082015250565b6000612f8d6015836125d1565b9150612f9882612f57565b602082019050919050565b60006020820190508181036000830152612fbc81612f80565b9050919050565b60008190508160005260206000209050919050565b60006020601f8301049050919050565b600082821b905092915050565b6000600883026130257fffffffffffffffffffffffffffffffffffffffffffffffffffffffffffffffff82612fe8565b61302f8683612fe8565b95508019841693508086168417925050509392505050565b6000819050919050565b600061306c6130676130628461211f565b613047565b61211f565b9050919050565b6000819050919050565b61308683613051565b61309a61309282613073565b848454612ff5565b825550505050565b600090565b6130af6130a2565b6130ba81848461307d565b505050565b5b818110156130de576130d36000826130a7565b6001810190506130c0565b5050565b601f821115613123576130f481612fc3565b6130fd84612fd8565b8101602085101561310c578190505b61312061311885612fd8565b8301826130bf565b50505b505050565b600082821c905092915050565b600061314660001984600802613128565b1980831691505092915050565b600061315f8383613135565b9150826002028217905092915050565b613178826125c6565b67ffffffffffffffff8111156131915761319061269e565b5b61319b8254612eba565b6131a68282856130e2565b600060209050601f8311600181146131d957600084156131c7578287015190505b6131d18582613153565b865550613239565b601f1984166131e786612fc3565b60005b8281101561320f578489015182556001820191506020850194506020810190506131ea565b8683101561322c5784890151613228601f891682613135565b8355505b6001600288020188555050505b505050505050565b7f596f7520646f6e2774206861766520656e6f7567682044414900000000000000600082015250565b60006132776019836125d1565b915061328282613241565b602082019050919050565b600060208201905081810360008301526132a68161326a565b9050919050565b7f4e487b7100000000000000000000000000000000000000000000000000000000600052603160045260246000fd5b60006132e78261211f565b9150600082036132fa576132f9612a05565b5b60018203905091905056fea26469706673582212204e1e3a8d25b472cecf048db4f96f13ca4f7b3e46102b2aac43f9b4c9d42b844564736f6c63430008110033",
  "immutableReferences": {},
  "source": "// SPDX-License-Identifier: MIT\n\npragma solidity ^0.8.4;\nimport \"@openzeppelin/contracts/token/ERC20/IERC20.sol\";\nimport \"./baseContract.sol\";\nimport \"./Orders.sol\";\nimport \"./Traders.sol\";\n\ncontract Dex is Helper, Traders, OrdersManagement {\n    /* This contract has following functionalities\n     1. Create new tokens\n     2. Deposit/Withdraw Token \n     */\n\n    constructor() {\n        owner = msg.sender;\n    }\n\n    function addNewToken(\n        bytes32 ticker,\n        string memory tokenName,\n        address tokenAddress\n    ) external isTickerAvailable(ticker) isOwner {\n        token memory newToken = token(ticker, tokenName, tokenAddress);\n        tokens[ticker] = newToken;\n        tokensList.push(ticker);\n    }\n\n    // confusion\n    function deposit(bytes32 ticker, uint256 amount)\n        external\n        isTokenExist(ticker)\n    {\n        // this is using interface to call transferFrom func of token contract\n        IERC20(tokens[ticker].tokenAddress).transferFrom(\n            msg.sender,\n            address(this),\n            amount\n        );\n\n        // record transaction in DEX ledger\n        tradersBalances[msg.sender][ticker] += amount;\n    }\n\n    function withdraw(bytes32 ticker, uint256 amount)\n        external\n        isTokenExist(ticker)\n    {\n        require(\n            tradersBalances[msg.sender][ticker] >= amount,\n            \"Insufficient balance\"\n        );\n\n        IERC20(tokens[ticker].tokenAddress).transfer(msg.sender, amount);\n\n        // record transaction in DEX ledger\n        tradersBalances[msg.sender][ticker] -= amount;\n    }\n}\n",
  "sourcePath": "/Users/deepanshusingh/blockchain projects/Personal DEX project/contracts/DEX.sol",
  "compiler": {
    "name": "solc",
    "version": "0.8.17+commit.8df45f5f.Emscripten.clang"
  },
  "schemaVersion": "3.4.10",
  "updatedAt": "2022-11-04T22:50:30.005Z",
  "devdoc": {
    "kind": "dev",
    "methods": {},
    "version": 1
  },
  "userdoc": {
    "kind": "user",
    "methods": {},
    "version": 1
  }
}