{
  "contractName": "Dex",
  "abi": [
    {
      "inputs": [],
      "stateMutability": "nonpayable",
      "type": "constructor"
    },
    {
      "inputs": [],
      "name": "owner",
      "outputs": [
        {
          "internalType": "address",
          "name": "",
          "type": "address"
        }
      ],
      "stateMutability": "view",
      "type": "function"
    },
    {
      "inputs": [
        {
          "internalType": "bytes32",
          "name": "",
          "type": "bytes32"
        }
      ],
      "name": "tokens",
      "outputs": [
        {
          "internalType": "bytes32",
          "name": "ticker",
          "type": "bytes32"
        },
        {
          "internalType": "string",
          "name": "tokenName",
          "type": "string"
        },
        {
          "internalType": "address",
          "name": "tokenAddress",
          "type": "address"
        }
      ],
      "stateMutability": "view",
      "type": "function"
    },
    {
      "inputs": [
        {
          "internalType": "uint256",
          "name": "",
          "type": "uint256"
        }
      ],
      "name": "tokensList",
      "outputs": [
        {
          "internalType": "bytes32",
          "name": "",
          "type": "bytes32"
        }
      ],
      "stateMutability": "view",
      "type": "function"
    },
    {
      "inputs": [
        {
          "internalType": "bytes32",
          "name": "ticker",
          "type": "bytes32"
        },
        {
          "internalType": "string",
          "name": "tokenName",
          "type": "string"
        },
        {
          "internalType": "address",
          "name": "tokenAddress",
          "type": "address"
        }
      ],
      "name": "addNewToken",
      "outputs": [],
      "stateMutability": "nonpayable",
      "type": "function"
    },
    {
      "inputs": [
        {
          "internalType": "bytes32",
          "name": "ticker",
          "type": "bytes32"
        },
        {
          "internalType": "uint256",
          "name": "amount",
          "type": "uint256"
        }
      ],
      "name": "deposit",
      "outputs": [],
      "stateMutability": "nonpayable",
      "type": "function"
    },
    {
      "inputs": [
        {
          "internalType": "bytes32",
          "name": "ticker",
          "type": "bytes32"
        },
        {
          "internalType": "uint256",
          "name": "amount",
          "type": "uint256"
        }
      ],
      "name": "withdraw",
      "outputs": [],
      "stateMutability": "nonpayable",
      "type": "function"
    }
  ],
  "bytecode": "0x608060405234801561001057600080fd5b50336000806101000a81548173ffffffffffffffffffffffffffffffffffffffff021916908373ffffffffffffffffffffffffffffffffffffffff16021790555061121e806100606000396000f3fe608060405234801561001057600080fd5b50600436106100625760003560e01c8063040cf020146100675780631de26e16146100835780634d12e34e1461009f5780638da5cb5b146100cf578063904194a3146100ed578063e8b5fa231461011f575b600080fd5b610081600480360381019061007c9190610831565b61013b565b005b61009d60048036038101906100989190610831565b61034b565b005b6100b960048036038101906100b49190610871565b6104ca565b6040516100c691906108ad565b60405180910390f35b6100d76104ee565b6040516100e49190610909565b60405180910390f35b61010760048036038101906101029190610924565b610512565b604051610116939291906109e1565b60405180910390f35b61013960048036038101906101349190610b80565b6105e4565b005b816000801b600260008381526020019081526020016000206000015403610197576040517f08c379a000000000000000000000000000000000000000000000000000000000815260040161018e90610c3b565b60405180910390fd5b81600360003373ffffffffffffffffffffffffffffffffffffffff1673ffffffffffffffffffffffffffffffffffffffff168152602001908152602001600020600085815260200190815260200160002054101561022a576040517f08c379a000000000000000000000000000000000000000000000000000000000815260040161022190610ca7565b60405180910390fd5b6002600084815260200190815260200160002060020160009054906101000a900473ffffffffffffffffffffffffffffffffffffffff1673ffffffffffffffffffffffffffffffffffffffff1663a9059cbb33846040518363ffffffff1660e01b815260040161029b929190610cd6565b6020604051808303816000875af11580156102ba573d6000803e3d6000fd5b505050506040513d601f19601f820116820180604052508101906102de9190610d37565b5081600360003373ffffffffffffffffffffffffffffffffffffffff1673ffffffffffffffffffffffffffffffffffffffff1681526020019081526020016000206000858152602001908152602001600020600082825461033f9190610d93565b92505081905550505050565b816000801b6002600083815260200190815260200160002060000154036103a7576040517f08c379a000000000000000000000000000000000000000000000000000000000815260040161039e90610c3b565b60405180910390fd5b6002600084815260200190815260200160002060020160009054906101000a900473ffffffffffffffffffffffffffffffffffffffff1673ffffffffffffffffffffffffffffffffffffffff166323b872dd3330856040518463ffffffff1660e01b815260040161041a93929190610dc7565b6020604051808303816000875af1158015610439573d6000803e3d6000fd5b505050506040513d601f19601f8201168201806040525081019061045d9190610d37565b5081600360003373ffffffffffffffffffffffffffffffffffffffff1673ffffffffffffffffffffffffffffffffffffffff168152602001908152602001600020600085815260200190815260200160002060008282546104be9190610dfe565b92505081905550505050565b600181815481106104da57600080fd5b906000526020600020016000915090505481565b60008054906101000a900473ffffffffffffffffffffffffffffffffffffffff1681565b600260205280600052604060002060009150905080600001549080600101805461053b90610e61565b80601f016020809104026020016040519081016040528092919081815260200182805461056790610e61565b80156105b45780601f10610589576101008083540402835291602001916105b4565b820191906000526020600020905b81548152906001019060200180831161059757829003601f168201915b5050505050908060020160009054906101000a900473ffffffffffffffffffffffffffffffffffffffff16905083565b826000801b600260008381526020019081526020016000206000015414610640576040517f08c379a000000000000000000000000000000000000000000000000000000000815260040161063790610ede565b60405180910390fd5b60008054906101000a900473ffffffffffffffffffffffffffffffffffffffff1673ffffffffffffffffffffffffffffffffffffffff163373ffffffffffffffffffffffffffffffffffffffff16146106ce576040517f08c379a00000000000000000000000000000000000000000000000000000000081526004016106c590610f4a565b60405180910390fd5b600060405180606001604052808681526020018581526020018473ffffffffffffffffffffffffffffffffffffffff16815250905080600260008781526020019081526020016000206000820151816000015560208201518160010190816107369190611116565b5060408201518160020160006101000a81548173ffffffffffffffffffffffffffffffffffffffff021916908373ffffffffffffffffffffffffffffffffffffffff16021790555090505060018590806001815401808255809150506001900390600052602060002001600090919091909150555050505050565b6000604051905090565b600080fd5b600080fd5b6000819050919050565b6107d8816107c5565b81146107e357600080fd5b50565b6000813590506107f5816107cf565b92915050565b6000819050919050565b61080e816107fb565b811461081957600080fd5b50565b60008135905061082b81610805565b92915050565b60008060408385031215610848576108476107bb565b5b6000610856858286016107e6565b92505060206108678582860161081c565b9150509250929050565b600060208284031215610887576108866107bb565b5b60006108958482850161081c565b91505092915050565b6108a7816107c5565b82525050565b60006020820190506108c2600083018461089e565b92915050565b600073ffffffffffffffffffffffffffffffffffffffff82169050919050565b60006108f3826108c8565b9050919050565b610903816108e8565b82525050565b600060208201905061091e60008301846108fa565b92915050565b60006020828403121561093a576109396107bb565b5b6000610948848285016107e6565b91505092915050565b600081519050919050565b600082825260208201905092915050565b60005b8381101561098b578082015181840152602081019050610970565b60008484015250505050565b6000601f19601f8301169050919050565b60006109b382610951565b6109bd818561095c565b93506109cd81856020860161096d565b6109d681610997565b840191505092915050565b60006060820190506109f6600083018661089e565b8181036020830152610a0881856109a8565b9050610a1760408301846108fa565b949350505050565b600080fd5b600080fd5b7f4e487b7100000000000000000000000000000000000000000000000000000000600052604160045260246000fd5b610a6182610997565b810181811067ffffffffffffffff82111715610a8057610a7f610a29565b5b80604052505050565b6000610a936107b1565b9050610a9f8282610a58565b919050565b600067ffffffffffffffff821115610abf57610abe610a29565b5b610ac882610997565b9050602081019050919050565b82818337600083830152505050565b6000610af7610af284610aa4565b610a89565b905082815260208101848484011115610b1357610b12610a24565b5b610b1e848285610ad5565b509392505050565b600082601f830112610b3b57610b3a610a1f565b5b8135610b4b848260208601610ae4565b91505092915050565b610b5d816108e8565b8114610b6857600080fd5b50565b600081359050610b7a81610b54565b92915050565b600080600060608486031215610b9957610b986107bb565b5b6000610ba7868287016107e6565b935050602084013567ffffffffffffffff811115610bc857610bc76107c0565b5b610bd486828701610b26565b9250506040610be586828701610b6b565b9150509250925092565b7f54686520746f6b656e20646f6573206e6f742065786973740000000000000000600082015250565b6000610c2560188361095c565b9150610c3082610bef565b602082019050919050565b60006020820190508181036000830152610c5481610c18565b9050919050565b7f496e73756666696369656e742062616c616e6365000000000000000000000000600082015250565b6000610c9160148361095c565b9150610c9c82610c5b565b602082019050919050565b60006020820190508181036000830152610cc081610c84565b9050919050565b610cd0816107fb565b82525050565b6000604082019050610ceb60008301856108fa565b610cf86020830184610cc7565b9392505050565b60008115159050919050565b610d1481610cff565b8114610d1f57600080fd5b50565b600081519050610d3181610d0b565b92915050565b600060208284031215610d4d57610d4c6107bb565b5b6000610d5b84828501610d22565b91505092915050565b7f4e487b7100000000000000000000000000000000000000000000000000000000600052601160045260246000fd5b6000610d9e826107fb565b9150610da9836107fb565b9250828203905081811115610dc157610dc0610d64565b5b92915050565b6000606082019050610ddc60008301866108fa565b610de960208301856108fa565b610df66040830184610cc7565b949350505050565b6000610e09826107fb565b9150610e14836107fb565b9250828201905080821115610e2c57610e2b610d64565b5b92915050565b7f4e487b7100000000000000000000000000000000000000000000000000000000600052602260045260246000fd5b60006002820490506001821680610e7957607f821691505b602082108103610e8c57610e8b610e32565b5b50919050565b7f546865207469636b657220697320616c72656164792074616b656e0000000000600082015250565b6000610ec8601b8361095c565b9150610ed382610e92565b602082019050919050565b60006020820190508181036000830152610ef781610ebb565b9050919050565b7f596f7520617265206e6f7420746865206f776e65720000000000000000000000600082015250565b6000610f3460158361095c565b9150610f3f82610efe565b602082019050919050565b60006020820190508181036000830152610f6381610f27565b9050919050565b60008190508160005260206000209050919050565b60006020601f8301049050919050565b600082821b905092915050565b600060088302610fcc7fffffffffffffffffffffffffffffffffffffffffffffffffffffffffffffffff82610f8f565b610fd68683610f8f565b95508019841693508086168417925050509392505050565b6000819050919050565b600061101361100e611009846107fb565b610fee565b6107fb565b9050919050565b6000819050919050565b61102d83610ff8565b6110416110398261101a565b848454610f9c565b825550505050565b600090565b611056611049565b611061818484611024565b505050565b5b818110156110855761107a60008261104e565b600181019050611067565b5050565b601f8211156110ca5761109b81610f6a565b6110a484610f7f565b810160208510156110b3578190505b6110c76110bf85610f7f565b830182611066565b50505b505050565b600082821c905092915050565b60006110ed600019846008026110cf565b1980831691505092915050565b600061110683836110dc565b9150826002028217905092915050565b61111f82610951565b67ffffffffffffffff81111561113857611137610a29565b5b6111428254610e61565b61114d828285611089565b600060209050601f831160018114611180576000841561116e578287015190505b61117885826110fa565b8655506111e0565b601f19841661118e86610f6a565b60005b828110156111b657848901518255600182019150602085019450602081019050611191565b868310156111d357848901516111cf601f8916826110dc565b8355505b6001600288020188555050505b50505050505056fea2646970667358221220ccaf2073d751a7856ec4dd6b6de1f0655cbd93dc5525824cd29446eccc4dec0d64736f6c63430008110033",
  "immutableReferences": {},
  "source": "// SPDX-License-Identifier: MIT\n\npragma solidity ^0.8.4;\nimport \"@openzeppelin/contracts/token/ERC20/IERC20.sol\";\nimport \"./baseContract.sol\";\n\ncontract Dex is Helper {\n    /* This contract has following functionalities\n     1. Create new tokens\n     2. Deposit/Withdraw Token \n     */\n\n    constructor() {\n        owner = msg.sender;\n    }\n\n    function addNewToken(\n        bytes32 ticker,\n        string memory tokenName,\n        address tokenAddress\n    ) external isTickerAvailable(ticker) isOwner {\n        token memory newToken = token(ticker, tokenName, tokenAddress);\n        tokens[ticker] = newToken;\n        tokensList.push(ticker);\n    }\n\n    mapping(address => mapping(bytes32 => uint256)) tradersBalances;\n\n    // confusion\n    function deposit(bytes32 ticker, uint256 amount)\n        external\n        isTokenExist(ticker)\n    {\n        IERC20(tokens[ticker].tokenAddress).transferFrom(\n            msg.sender,\n            address(this),\n            amount\n        );\n\n        // record transaction in DEX ledger\n        tradersBalances[msg.sender][ticker] += amount;\n    }\n\n    function withdraw(bytes32 ticker, uint256 amount)\n        external\n        isTokenExist(ticker)\n    {\n        require(\n            tradersBalances[msg.sender][ticker] >= amount,\n            \"Insufficient balance\"\n        );\n\n        IERC20(tokens[ticker].tokenAddress).transfer(msg.sender, amount);\n\n        // record transaction in DEX ledger\n        tradersBalances[msg.sender][ticker] -= amount;\n    }\n}\n",
  "sourcePath": "/Users/deepanshusingh/blockchain projects/Personal DEX project/contracts/DEX.sol",
  "compiler": {
    "name": "solc",
    "version": "0.8.17+commit.8df45f5f.Emscripten.clang"
  },
  "schemaVersion": "3.4.10",
  "updatedAt": "2022-11-01T11:33:35.799Z",
  "devdoc": {
    "kind": "dev",
    "methods": {},
    "version": 1
  },
  "userdoc": {
    "kind": "user",
    "methods": {},
    "version": 1
  }
}