{
  "contractName": "Dex",
  "abi": [
    {
      "inputs": [],
      "stateMutability": "nonpayable",
      "type": "constructor"
    },
    {
      "anonymous": false,
      "inputs": [
        {
          "indexed": false,
          "internalType": "address",
          "name": "trader",
          "type": "address"
        },
        {
          "indexed": false,
          "internalType": "bytes32",
          "name": "ticker",
          "type": "bytes32"
        },
        {
          "indexed": false,
          "internalType": "enum OrdersManagement.Side",
          "name": "side",
          "type": "uint8"
        },
        {
          "indexed": false,
          "internalType": "uint256",
          "name": "amount",
          "type": "uint256"
        },
        {
          "indexed": false,
          "internalType": "uint256",
          "name": "averagePrice",
          "type": "uint256"
        },
        {
          "indexed": false,
          "internalType": "uint256",
          "name": "filled",
          "type": "uint256"
        }
      ],
      "name": "NewTrade",
      "type": "event"
    },
    {
      "anonymous": false,
      "inputs": [
        {
          "indexed": false,
          "internalType": "uint256",
          "name": "c",
          "type": "uint256"
        }
      ],
      "name": "log",
      "type": "event"
    },
    {
      "inputs": [
        {
          "internalType": "bytes32",
          "name": "ticker",
          "type": "bytes32"
        },
        {
          "internalType": "enum OrdersManagement.Side",
          "name": "side",
          "type": "uint8"
        },
        {
          "internalType": "uint256",
          "name": "amount",
          "type": "uint256"
        },
        {
          "internalType": "uint256",
          "name": "price",
          "type": "uint256"
        }
      ],
      "name": "LimitOrder",
      "outputs": [],
      "stateMutability": "nonpayable",
      "type": "function"
    },
    {
      "inputs": [
        {
          "internalType": "bytes32",
          "name": "ticker",
          "type": "bytes32"
        },
        {
          "internalType": "enum OrdersManagement.Side",
          "name": "side",
          "type": "uint8"
        },
        {
          "internalType": "uint256",
          "name": "amount",
          "type": "uint256"
        }
      ],
      "name": "MarketOrder",
      "outputs": [],
      "stateMutability": "nonpayable",
      "type": "function"
    },
    {
      "inputs": [
        {
          "internalType": "bytes32",
          "name": "ticker",
          "type": "bytes32"
        },
        {
          "internalType": "address",
          "name": "traderAddress",
          "type": "address"
        }
      ],
      "name": "getBalance",
      "outputs": [
        {
          "internalType": "uint256",
          "name": "",
          "type": "uint256"
        }
      ],
      "stateMutability": "view",
      "type": "function",
      "constant": true
    },
    {
      "inputs": [
        {
          "internalType": "bytes32",
          "name": "ticker",
          "type": "bytes32"
        },
        {
          "internalType": "enum OrdersManagement.Side",
          "name": "side",
          "type": "uint8"
        }
      ],
      "name": "getOrders",
      "outputs": [
        {
          "components": [
            {
              "internalType": "uint256",
              "name": "id",
              "type": "uint256"
            },
            {
              "internalType": "address",
              "name": "trader",
              "type": "address"
            },
            {
              "internalType": "bytes32",
              "name": "ticker",
              "type": "bytes32"
            },
            {
              "internalType": "enum OrdersManagement.Side",
              "name": "side",
              "type": "uint8"
            },
            {
              "internalType": "uint256",
              "name": "amount",
              "type": "uint256"
            },
            {
              "internalType": "uint256",
              "name": "price",
              "type": "uint256"
            },
            {
              "internalType": "uint256",
              "name": "filledAmount",
              "type": "uint256"
            }
          ],
          "internalType": "struct OrdersManagement.Order[]",
          "name": "",
          "type": "tuple[]"
        }
      ],
      "stateMutability": "view",
      "type": "function",
      "constant": true
    },
    {
      "inputs": [],
      "name": "owner",
      "outputs": [
        {
          "internalType": "address",
          "name": "",
          "type": "address"
        }
      ],
      "stateMutability": "view",
      "type": "function",
      "constant": true
    },
    {
      "inputs": [
        {
          "internalType": "bytes32",
          "name": "",
          "type": "bytes32"
        }
      ],
      "name": "tokens",
      "outputs": [
        {
          "internalType": "bytes32",
          "name": "ticker",
          "type": "bytes32"
        },
        {
          "internalType": "string",
          "name": "tokenName",
          "type": "string"
        },
        {
          "internalType": "address",
          "name": "tokenAddress",
          "type": "address"
        }
      ],
      "stateMutability": "view",
      "type": "function",
      "constant": true
    },
    {
      "inputs": [
        {
          "internalType": "uint256",
          "name": "",
          "type": "uint256"
        }
      ],
      "name": "tokensList",
      "outputs": [
        {
          "internalType": "bytes32",
          "name": "",
          "type": "bytes32"
        }
      ],
      "stateMutability": "view",
      "type": "function",
      "constant": true
    },
    {
      "inputs": [
        {
          "internalType": "bytes32",
          "name": "ticker",
          "type": "bytes32"
        },
        {
          "internalType": "string",
          "name": "tokenName",
          "type": "string"
        },
        {
          "internalType": "address",
          "name": "tokenAddress",
          "type": "address"
        }
      ],
      "name": "addNewToken",
      "outputs": [],
      "stateMutability": "nonpayable",
      "type": "function"
    },
    {
      "inputs": [
        {
          "internalType": "bytes32",
          "name": "ticker",
          "type": "bytes32"
        },
        {
          "internalType": "uint256",
          "name": "amount",
          "type": "uint256"
        }
      ],
      "name": "deposit",
      "outputs": [],
      "stateMutability": "nonpayable",
      "type": "function"
    },
    {
      "inputs": [
        {
          "internalType": "bytes32",
          "name": "ticker",
          "type": "bytes32"
        },
        {
          "internalType": "uint256",
          "name": "amount",
          "type": "uint256"
        }
      ],
      "name": "withdraw",
      "outputs": [],
      "stateMutability": "nonpayable",
      "type": "function"
    }
  ],
  "bytecode": "0x608060405234801561001057600080fd5b50336000806101000a81548173ffffffffffffffffffffffffffffffffffffffff021916908373ffffffffffffffffffffffffffffffffffffffff160217905550613344806100606000396000f3fe608060405234801561001057600080fd5b506004361061009e5760003560e01c8063627e89b311610066578063627e89b31461016b5780638da5cb5b14610187578063904194a3146101a5578063e8b5fa23146101d7578063ef5099b4146101f35761009e565b8063040cf020146100a35780631de26e16146100bf57806346e9658b146100db5780634d12e34e1461010b578063530e931c1461013b575b600080fd5b6100bd60048036038101906100b8919061215e565b61020f565b005b6100d960048036038101906100d4919061215e565b61041f565b005b6100f560048036038101906100f091906121c3565b61059e565b6040516101029190612416565b60405180910390f35b61012560048036038101906101209190612438565b610709565b6040516101329190612474565b60405180910390f35b610155600480360381019061015091906124bb565b61072d565b604051610162919061250a565b60405180910390f35b61018560048036038101906101809190612525565b6107e5565b005b61018f611167565b60405161019c9190612587565b60405180910390f35b6101bf60048036038101906101ba91906125a2565b61118b565b6040516101ce9392919061265f565b60405180910390f35b6101f160048036038101906101ec91906127d2565b61125d565b005b61020d60048036038101906102089190612841565b61142a565b005b816000801b60026000838152602001908152602001600020600001540361026b576040517f08c379a0000000000000000000000000000000000000000000000000000000008152600401610262906128f4565b60405180910390fd5b81600360003373ffffffffffffffffffffffffffffffffffffffff1673ffffffffffffffffffffffffffffffffffffffff16815260200190815260200160002060008581526020019081526020016000205410156102fe576040517f08c379a00000000000000000000000000000000000000000000000000000000081526004016102f590612960565b60405180910390fd5b6002600084815260200190815260200160002060020160009054906101000a900473ffffffffffffffffffffffffffffffffffffffff1673ffffffffffffffffffffffffffffffffffffffff1663a9059cbb33846040518363ffffffff1660e01b815260040161036f929190612980565b6020604051808303816000875af115801561038e573d6000803e3d6000fd5b505050506040513d601f19601f820116820180604052508101906103b291906129e1565b5081600360003373ffffffffffffffffffffffffffffffffffffffff1673ffffffffffffffffffffffffffffffffffffffff168152602001908152602001600020600085815260200190815260200160002060008282546104139190612a3d565b92505081905550505050565b816000801b60026000838152602001908152602001600020600001540361047b576040517f08c379a0000000000000000000000000000000000000000000000000000000008152600401610472906128f4565b60405180910390fd5b6002600084815260200190815260200160002060020160009054906101000a900473ffffffffffffffffffffffffffffffffffffffff1673ffffffffffffffffffffffffffffffffffffffff166323b872dd3330856040518463ffffffff1660e01b81526004016104ee93929190612a71565b6020604051808303816000875af115801561050d573d6000803e3d6000fd5b505050506040513d601f19601f8201168201806040525081019061053191906129e1565b5081600360003373ffffffffffffffffffffffffffffffffffffffff1673ffffffffffffffffffffffffffffffffffffffff168152602001908152602001600020600085815260200190815260200160002060008282546105929190612aa8565b92505081905550505050565b60606005600084815260200190815260200160002060008360018111156105c8576105c761228e565b5b60018111156105da576105d961228e565b5b8152602001908152602001600020805480602002602001604051908101604052809291908181526020016000905b828210156106fd57838290600052602060002090600702016040518060e0016040529081600082015481526020016001820160009054906101000a900473ffffffffffffffffffffffffffffffffffffffff1673ffffffffffffffffffffffffffffffffffffffff1673ffffffffffffffffffffffffffffffffffffffff168152602001600282015481526020016003820160009054906101000a900460ff1660018111156106ba576106b961228e565b5b60018111156106cc576106cb61228e565b5b8152602001600482015481526020016005820154815260200160068201548152505081526020019060010190610608565b50505050905092915050565b6001818154811061071957600080fd5b906000526020600020016000915090505481565b6000826000801b60026000838152602001908152602001600020600001540361078b576040517f08c379a0000000000000000000000000000000000000000000000000000000008152600401610782906128f4565b60405180910390fd5b600360008473ffffffffffffffffffffffffffffffffffffffff1673ffffffffffffffffffffffffffffffffffffffff16815260200190815260200160002060008581526020019081526020016000205491505092915050565b826000801b600260008381526020019081526020016000206000015403610841576040517f08c379a0000000000000000000000000000000000000000000000000000000008152600401610838906128f4565b60405180910390fd5b600060018111156108555761085461228e565b5b8360018111156108685761086761228e565b5b03156108fd57610878843361072d565b8211158460405160200161088c9190612afd565b6040516020818303038152906040526040516020016108ab9190612b7a565b604051602081830303815290604052906108fb576040517f08c379a00000000000000000000000000000000000000000000000000000000081526004016108f29190612ba0565b60405180910390fd5b505b60006005600086815260200190815260200160002060008060018111156109275761092661228e565b5b86600181111561093a5761093961228e565b5b14610946576000610949565b60015b600181111561095b5761095a61228e565b5b600181111561096d5761096c61228e565b5b81526020019081526020016000209050600083905060008060018111156109975761099661228e565b5b8660018111156109aa576109a961228e565b5b146109c557600183805490506109c09190612bcc565b6109c8565b60005b90506000805b600084141580156109fe57507fffffffffffffffffffffffffffffffffffffffffffffffffffffffffffffffff83135b8015610a0d5750848054905083125b156110cd576000858481548110610a2757610a26612c0f565b5b90600052602060002090600702019050600081600601548260040154610a4d9190612a3d565b90506000868210610a6057869050610a64565b8190505b60006001811115610a7857610a7761228e565b5b8b6001811115610a8b57610a8a61228e565b5b03610b59576000836005015482610aa29190612c3e565b905080600360003373ffffffffffffffffffffffffffffffffffffffff1673ffffffffffffffffffffffffffffffffffffffff16815260200190815260200160002060007f44414900000000000000000000000000000000000000000000000000000000008152602001908152602001600020541015610b57576040517f08c379a0000000000000000000000000000000000000000000000000000000008152600401610b4e90612ccc565b60405180910390fd5b505b80888781548110610b6d57610b6c612c0f565b5b90600052602060002090600702016006016000828254610b8d9190612aa8565b9250508190555060006001811115610ba857610ba761228e565b5b8b6001811115610bbb57610bba61228e565b5b03610e075780600360003373ffffffffffffffffffffffffffffffffffffffff1673ffffffffffffffffffffffffffffffffffffffff16815260200190815260200160002060008e81526020019081526020016000206000828254610c209190612aa8565b92505081905550826005015481610c379190612c3e565b600360003373ffffffffffffffffffffffffffffffffffffffff1673ffffffffffffffffffffffffffffffffffffffff16815260200190815260200160002060007f444149000000000000000000000000000000000000000000000000000000000081526020019081526020016000206000828254610cb69190612a3d565b9250508190555080600360008560010160009054906101000a900473ffffffffffffffffffffffffffffffffffffffff1673ffffffffffffffffffffffffffffffffffffffff1673ffffffffffffffffffffffffffffffffffffffff16815260200190815260200160002060008e81526020019081526020016000206000828254610d419190612a3d565b92505081905550826005015481610d589190612c3e565b600360008560010160009054906101000a900473ffffffffffffffffffffffffffffffffffffffff1673ffffffffffffffffffffffffffffffffffffffff1673ffffffffffffffffffffffffffffffffffffffff16815260200190815260200160002060007f444149000000000000000000000000000000000000000000000000000000000081526020019081526020016000206000828254610dfb9190612aa8565b9250508190555061104a565b80600360003373ffffffffffffffffffffffffffffffffffffffff1673ffffffffffffffffffffffffffffffffffffffff16815260200190815260200160002060008e81526020019081526020016000206000828254610e679190612a3d565b92505081905550826005015481610e7e9190612c3e565b600360003373ffffffffffffffffffffffffffffffffffffffff1673ffffffffffffffffffffffffffffffffffffffff16815260200190815260200160002060007f444149000000000000000000000000000000000000000000000000000000000081526020019081526020016000206000828254610efd9190612aa8565b9250508190555080600360008560010160009054906101000a900473ffffffffffffffffffffffffffffffffffffffff1673ffffffffffffffffffffffffffffffffffffffff1673ffffffffffffffffffffffffffffffffffffffff16815260200190815260200160002060008e81526020019081526020016000206000828254610f889190612aa8565b92505081905550826005015481610f9f9190612c3e565b600360008560010160009054906101000a900473ffffffffffffffffffffffffffffffffffffffff1673ffffffffffffffffffffffffffffffffffffffff1673ffffffffffffffffffffffffffffffffffffffff16815260200190815260200160002060007f4441490000000000000000000000000000000000000000000000000000000000815260200190815260200160002060008282546110429190612a3d565b925050819055505b80876110569190612a3d565b96508260050154856110689190612aa8565b9450838061107590612cec565b9450506000600181111561108c5761108b61228e565b5b8b600181111561109f5761109e61228e565b5b146110b65785806110af90612d34565b96506110c4565b85806110c190612d7c565b96505b505050506109ce565b6110d785896116ff565b50600081111561115c576000876064868a6110f29190612a3d565b6110fc9190612c3e565b6111069190612df3565b9050600082846111169190612df3565b90507f1fd2dbfc8346e62b50fd4267a5cf8a03dd83cad0e15058cefd21a91ab03c309f338c8c8c858760405161115196959493929190612e33565b60405180910390a150505b505050505050505050565b60008054906101000a900473ffffffffffffffffffffffffffffffffffffffff1681565b60026020528060005260406000206000915090508060000154908060010180546111b490612ec3565b80601f01602080910402602001604051908101604052809291908181526020018280546111e090612ec3565b801561122d5780601f106112025761010080835404028352916020019161122d565b820191906000526020600020905b81548152906001019060200180831161121057829003601f168201915b5050505050908060020160009054906101000a900473ffffffffffffffffffffffffffffffffffffffff16905083565b826000801b6002600083815260200190815260200160002060000154146112b9576040517f08c379a00000000000000000000000000000000000000000000000000000000081526004016112b090612f40565b60405180910390fd5b60008054906101000a900473ffffffffffffffffffffffffffffffffffffffff1673ffffffffffffffffffffffffffffffffffffffff163373ffffffffffffffffffffffffffffffffffffffff1614611347576040517f08c379a000000000000000000000000000000000000000000000000000000000815260040161133e90612fac565b60405180910390fd5b600060405180606001604052808681526020018581526020018473ffffffffffffffffffffffffffffffffffffffff16815250905080600260008781526020019081526020016000206000820151816000015560208201518160010190816113af9190613178565b5060408201518160020160006101000a81548173ffffffffffffffffffffffffffffffffffffffff021916908373ffffffffffffffffffffffffffffffffffffffff16021790555090505060018590806001815401808255809150506001900390600052602060002001600090919091909150555050505050565b836000801b600260008381526020019081526020016000206000015403611486576040517f08c379a000000000000000000000000000000000000000000000000000000000815260040161147d906128f4565b60405180910390fd5b6000600181111561149a5761149961228e565b5b8460018111156114ad576114ac61228e565b5b0361153457600082846114c09190612c3e565b90506114ec7f44414900000000000000000000000000000000000000000000000000000000003361072d565b81111561152e576040517f08c379a000000000000000000000000000000000000000000000000000000000815260040161152590613296565b60405180910390fd5b506115c3565b61153e853361072d565b831115856040516020016115529190612afd565b6040516020818303038152906040526040516020016115719190612b7a565b604051602081830303815290604052906115c1576040517f08c379a00000000000000000000000000000000000000000000000000000000081526004016115b89190612ba0565b60405180910390fd5b505b60006005600087815260200190815260200160002060008660018111156115ed576115ec61228e565b5b60018111156115ff576115fe61228e565b5b8152602001908152602001600020905060006040518060e00160405280600160045461162b9190612aa8565b81526020013373ffffffffffffffffffffffffffffffffffffffff1681526020018881526020018760018111156116655761166461228e565b5b8152602001868152602001858152602001600081525090506116878183611ad2565b6005600089815260200190815260200160002060008860018111156116af576116ae61228e565b5b60018111156116c1576116c061228e565b5b81526020019081526020016000209080546116dd929190611f36565b50600460008154809291906116f190612cec565b919050555050505050505050565b600080600060018111156117165761171561228e565b5b8360018111156117295761172861228e565b5b14611744576001848054905061173f9190612bcc565b611747565b60005b90505b83805490508112801561177c57507fffffffffffffffffffffffffffffffffffffffffffffffffffffffffffffffff81135b80156117cf575083818154811061179657611795612c0f565b5b9060005260206000209060070201600401548482815481106117bb576117ba612c0f565b5b906000526020600020906007020160060154145b15611ac857600060018111156117e8576117e761228e565b5b8360018111156117fb576117fa61228e565b5b036119e85760005b600185805490506118149190612a3d565b81101561195557846001826118299190612aa8565b8154811061183a57611839612c0f565b5b906000526020600020906007020185828154811061185b5761185a612c0f565b5b9060005260206000209060070201600082015481600001556001820160009054906101000a900473ffffffffffffffffffffffffffffffffffffffff168160010160006101000a81548173ffffffffffffffffffffffffffffffffffffffff021916908373ffffffffffffffffffffffffffffffffffffffff160217905550600282015481600201556003820160009054906101000a900460ff168160030160006101000a81548160ff0219169083600181111561191c5761191b61228e565b5b0217905550600482015481600401556005820154816005015560068201548160060155905050808061194d90612cec565b915050611803565b5083805480611967576119666132b6565b5b60019003818190600052602060002090600702016000808201600090556001820160006101000a81549073ffffffffffffffffffffffffffffffffffffffff021916905560028201600090556003820160006101000a81549060ff021916905560048201600090556005820160009055600682016000905550509055611a76565b838054806119f9576119f86132b6565b5b60019003818190600052602060002090600702016000808201600090556001820160006101000a81549073ffffffffffffffffffffffffffffffffffffffff021916905560028201600090556003820160006101000a81549060ff0219169055600482016000905560058201600090556006820160009055505090555b60006001811115611a8a57611a8961228e565b5b836001811115611a9d57611a9c61228e565b5b14611ab4578080611aad90612d34565b9150611ac2565b8080611abf90612d7c565b91505b5061174a565b8391505092915050565b6000818390806001815401808255809150506001900390600052602060002090600702016000909190919091506000820151816000015560208201518160010160006101000a81548173ffffffffffffffffffffffffffffffffffffffff021916908373ffffffffffffffffffffffffffffffffffffffff1602179055506040820151816002015560608201518160030160006101000a81548160ff02191690836001811115611b8557611b8461228e565b5b02179055506080820151816004015560a0820151816005015560c082015181600601555050600060018380549050611bbd9190612a3d565b90505b60018103611f2c5782600182611bd69190612a3d565b81548110611be757611be6612c0f565b5b906000526020600020906007020160050154838281548110611c0c57611c0b612c0f565b5b9060005260206000209060070201600501541015611f2c57600083600183611c349190612a3d565b81548110611c4557611c44612c0f565b5b90600052602060002090600702016040518060e0016040529081600082015481526020016001820160009054906101000a900473ffffffffffffffffffffffffffffffffffffffff1673ffffffffffffffffffffffffffffffffffffffff1673ffffffffffffffffffffffffffffffffffffffff168152602001600282015481526020016003820160009054906101000a900460ff166001811115611ced57611cec61228e565b5b6001811115611cff57611cfe61228e565b5b815260200160048201548152602001600582015481526020016006820154815250509050838281548110611d3657611d35612c0f565b5b906000526020600020906007020184600184611d529190612a3d565b81548110611d6357611d62612c0f565b5b9060005260206000209060070201600082015481600001556001820160009054906101000a900473ffffffffffffffffffffffffffffffffffffffff168160010160006101000a81548173ffffffffffffffffffffffffffffffffffffffff021916908373ffffffffffffffffffffffffffffffffffffffff160217905550600282015481600201556003820160009054906101000a900460ff168160030160006101000a81548160ff02191690836001811115611e2457611e2361228e565b5b021790555060048201548160040155600582015481600501556006820154816006015590505080848381548110611e5e57611e5d612c0f565b5b90600052602060002090600702016000820151816000015560208201518160010160006101000a81548173ffffffffffffffffffffffffffffffffffffffff021916908373ffffffffffffffffffffffffffffffffffffffff1602179055506040820151816002015560608201518160030160006101000a81548160ff02191690836001811115611ef257611ef161228e565b5b02179055506080820151816004015560a0820151816005015560c08201518160060155905050508080611f24906132e5565b915050611bc0565b5081905092915050565b8280548282559060005260206000209060070281019282156120535760005260206000209160070282015b82811115612052578282600082015481600001556001820160009054906101000a900473ffffffffffffffffffffffffffffffffffffffff168160010160006101000a81548173ffffffffffffffffffffffffffffffffffffffff021916908373ffffffffffffffffffffffffffffffffffffffff160217905550600282015481600201556003820160009054906101000a900460ff168160030160006101000a81548160ff0219169083600181111561201e5761201d61228e565b5b0217905550600482015481600401556005820154816005015560068201548160060155505091600701919060070190611f61565b5b5090506120609190612064565b5090565b5b808211156120da576000808201600090556001820160006101000a81549073ffffffffffffffffffffffffffffffffffffffff021916905560028201600090556003820160006101000a81549060ff021916905560048201600090556005820160009055600682016000905550600701612065565b5090565b6000604051905090565b600080fd5b600080fd5b6000819050919050565b612105816120f2565b811461211057600080fd5b50565b600081359050612122816120fc565b92915050565b6000819050919050565b61213b81612128565b811461214657600080fd5b50565b60008135905061215881612132565b92915050565b60008060408385031215612175576121746120e8565b5b600061218385828601612113565b925050602061219485828601612149565b9150509250929050565b600281106121ab57600080fd5b50565b6000813590506121bd8161219e565b92915050565b600080604083850312156121da576121d96120e8565b5b60006121e885828601612113565b92505060206121f9858286016121ae565b9150509250929050565b600081519050919050565b600082825260208201905092915050565b6000819050602082019050919050565b61223881612128565b82525050565b600073ffffffffffffffffffffffffffffffffffffffff82169050919050565b60006122698261223e565b9050919050565b6122798161225e565b82525050565b612288816120f2565b82525050565b7f4e487b7100000000000000000000000000000000000000000000000000000000600052602160045260246000fd5b600281106122ce576122cd61228e565b5b50565b60008190506122df826122bd565b919050565b60006122ef826122d1565b9050919050565b6122ff816122e4565b82525050565b60e08201600082015161231b600085018261222f565b50602082015161232e6020850182612270565b506040820151612341604085018261227f565b50606082015161235460608501826122f6565b506080820151612367608085018261222f565b5060a082015161237a60a085018261222f565b5060c082015161238d60c085018261222f565b50505050565b600061239f8383612305565b60e08301905092915050565b6000602082019050919050565b60006123c382612203565b6123cd818561220e565b93506123d88361221f565b8060005b838110156124095781516123f08882612393565b97506123fb836123ab565b9250506001810190506123dc565b5085935050505092915050565b6000602082019050818103600083015261243081846123b8565b905092915050565b60006020828403121561244e5761244d6120e8565b5b600061245c84828501612149565b91505092915050565b61246e816120f2565b82525050565b60006020820190506124896000830184612465565b92915050565b6124988161225e565b81146124a357600080fd5b50565b6000813590506124b58161248f565b92915050565b600080604083850312156124d2576124d16120e8565b5b60006124e085828601612113565b92505060206124f1858286016124a6565b9150509250929050565b61250481612128565b82525050565b600060208201905061251f60008301846124fb565b92915050565b60008060006060848603121561253e5761253d6120e8565b5b600061254c86828701612113565b935050602061255d868287016121ae565b925050604061256e86828701612149565b9150509250925092565b6125818161225e565b82525050565b600060208201905061259c6000830184612578565b92915050565b6000602082840312156125b8576125b76120e8565b5b60006125c684828501612113565b91505092915050565b600081519050919050565b600082825260208201905092915050565b60005b838110156126095780820151818401526020810190506125ee565b60008484015250505050565b6000601f19601f8301169050919050565b6000612631826125cf565b61263b81856125da565b935061264b8185602086016125eb565b61265481612615565b840191505092915050565b60006060820190506126746000830186612465565b81810360208301526126868185612626565b90506126956040830184612578565b949350505050565b600080fd5b600080fd5b7f4e487b7100000000000000000000000000000000000000000000000000000000600052604160045260246000fd5b6126df82612615565b810181811067ffffffffffffffff821117156126fe576126fd6126a7565b5b80604052505050565b60006127116120de565b905061271d82826126d6565b919050565b600067ffffffffffffffff82111561273d5761273c6126a7565b5b61274682612615565b9050602081019050919050565b82818337600083830152505050565b600061277561277084612722565b612707565b905082815260208101848484011115612791576127906126a2565b5b61279c848285612753565b509392505050565b600082601f8301126127b9576127b861269d565b5b81356127c9848260208601612762565b91505092915050565b6000806000606084860312156127eb576127ea6120e8565b5b60006127f986828701612113565b935050602084013567ffffffffffffffff81111561281a576128196120ed565b5b612826868287016127a4565b9250506040612837868287016124a6565b9150509250925092565b6000806000806080858703121561285b5761285a6120e8565b5b600061286987828801612113565b945050602061287a878288016121ae565b935050604061288b87828801612149565b925050606061289c87828801612149565b91505092959194509250565b7f54686520746f6b656e20646f6573206e6f742065786973740000000000000000600082015250565b60006128de6018836125da565b91506128e9826128a8565b602082019050919050565b6000602082019050818103600083015261290d816128d1565b9050919050565b7f496e73756666696369656e742062616c616e6365000000000000000000000000600082015250565b600061294a6014836125da565b915061295582612914565b602082019050919050565b600060208201905081810360008301526129798161293d565b9050919050565b60006040820190506129956000830185612578565b6129a260208301846124fb565b9392505050565b60008115159050919050565b6129be816129a9565b81146129c957600080fd5b50565b6000815190506129db816129b5565b92915050565b6000602082840312156129f7576129f66120e8565b5b6000612a05848285016129cc565b91505092915050565b7f4e487b7100000000000000000000000000000000000000000000000000000000600052601160045260246000fd5b6000612a4882612128565b9150612a5383612128565b9250828203905081811115612a6b57612a6a612a0e565b5b92915050565b6000606082019050612a866000830186612578565b612a936020830185612578565b612aa060408301846124fb565b949350505050565b6000612ab382612128565b9150612abe83612128565b9250828201905080821115612ad657612ad5612a0e565b5b92915050565b6000819050919050565b612af7612af2826120f2565b612adc565b82525050565b6000612b098284612ae6565b60208201915081905092915050565b7f596f7520646f6e2774206861766520656e6f7567682000000000000000000000815250565b600081905092915050565b6000612b54826125cf565b612b5e8185612b3e565b9350612b6e8185602086016125eb565b80840191505092915050565b6000612b8582612b18565b601682019150612b958284612b49565b915081905092915050565b60006020820190508181036000830152612bba8184612626565b905092915050565b6000819050919050565b6000612bd782612bc2565b9150612be283612bc2565b9250828203905081811260008412168282136000851215161715612c0957612c08612a0e565b5b92915050565b7f4e487b7100000000000000000000000000000000000000000000000000000000600052603260045260246000fd5b6000612c4982612128565b9150612c5483612128565b9250828202612c6281612128565b91508282048414831517612c7957612c78612a0e565b5b5092915050565b7f4e6f7420656e6f75676820444149000000000000000000000000000000000000600082015250565b6000612cb6600e836125da565b9150612cc182612c80565b602082019050919050565b60006020820190508181036000830152612ce581612ca9565b9050919050565b6000612cf782612128565b91507fffffffffffffffffffffffffffffffffffffffffffffffffffffffffffffffff8203612d2957612d28612a0e565b5b600182019050919050565b6000612d3f82612bc2565b91507f80000000000000000000000000000000000000000000000000000000000000008203612d7157612d70612a0e565b5b600182039050919050565b6000612d8782612bc2565b91507f7fffffffffffffffffffffffffffffffffffffffffffffffffffffffffffffff8203612db957612db8612a0e565b5b600182019050919050565b7f4e487b7100000000000000000000000000000000000000000000000000000000600052601260045260246000fd5b6000612dfe82612128565b9150612e0983612128565b925082612e1957612e18612dc4565b5b828204905092915050565b612e2d816122e4565b82525050565b600060c082019050612e486000830189612578565b612e556020830188612465565b612e626040830187612e24565b612e6f60608301866124fb565b612e7c60808301856124fb565b612e8960a08301846124fb565b979650505050505050565b7f4e487b7100000000000000000000000000000000000000000000000000000000600052602260045260246000fd5b60006002820490506001821680612edb57607f821691505b602082108103612eee57612eed612e94565b5b50919050565b7f546865207469636b657220697320616c72656164792074616b656e0000000000600082015250565b6000612f2a601b836125da565b9150612f3582612ef4565b602082019050919050565b60006020820190508181036000830152612f5981612f1d565b9050919050565b7f596f7520617265206e6f7420746865206f776e65720000000000000000000000600082015250565b6000612f966015836125da565b9150612fa182612f60565b602082019050919050565b60006020820190508181036000830152612fc581612f89565b9050919050565b60008190508160005260206000209050919050565b60006020601f8301049050919050565b600082821b905092915050565b60006008830261302e7fffffffffffffffffffffffffffffffffffffffffffffffffffffffffffffffff82612ff1565b6130388683612ff1565b95508019841693508086168417925050509392505050565b6000819050919050565b600061307561307061306b84612128565b613050565b612128565b9050919050565b6000819050919050565b61308f8361305a565b6130a361309b8261307c565b848454612ffe565b825550505050565b600090565b6130b86130ab565b6130c3818484613086565b505050565b5b818110156130e7576130dc6000826130b0565b6001810190506130c9565b5050565b601f82111561312c576130fd81612fcc565b61310684612fe1565b81016020851015613115578190505b61312961312185612fe1565b8301826130c8565b50505b505050565b600082821c905092915050565b600061314f60001984600802613131565b1980831691505092915050565b6000613168838361313e565b9150826002028217905092915050565b613181826125cf565b67ffffffffffffffff81111561319a576131996126a7565b5b6131a48254612ec3565b6131af8282856130eb565b600060209050601f8311600181146131e257600084156131d0578287015190505b6131da858261315c565b865550613242565b601f1984166131f086612fcc565b60005b82811015613218578489015182556001820191506020850194506020810190506131f3565b868310156132355784890151613231601f89168261313e565b8355505b6001600288020188555050505b505050505050565b7f596f7520646f6e2774206861766520656e6f7567682044414900000000000000600082015250565b60006132806019836125da565b915061328b8261324a565b602082019050919050565b600060208201905081810360008301526132af81613273565b9050919050565b7f4e487b7100000000000000000000000000000000000000000000000000000000600052603160045260246000fd5b60006132f082612128565b91506000820361330357613302612a0e565b5b60018203905091905056fea2646970667358221220555914bbc8a8b686d5dbbddcf3128282d98f883cdb9b80c67eb4ad6c58c1bbec64736f6c63430008110033",
  "immutableReferences": {},
  "source": "// SPDX-License-Identifier: MIT\n\npragma solidity ^0.8.4;\nimport \"@openzeppelin/contracts/token/ERC20/IERC20.sol\";\nimport \"./baseContract.sol\";\nimport \"./Orders.sol\";\nimport \"./Traders.sol\";\n\ncontract Dex is Helper, Traders, OrdersManagement {\n    /* This contract has following functionalities\n     1. Create new tokens\n     2. Deposit/Withdraw Token \n     */\n\n    constructor() {\n        owner = msg.sender;\n    }\n\n    function addNewToken(\n        bytes32 ticker,\n        string memory tokenName,\n        address tokenAddress\n    ) external isTickerAvailable(ticker) isOwner {\n        token memory newToken = token(ticker, tokenName, tokenAddress);\n        tokens[ticker] = newToken;\n        tokensList.push(ticker);\n    }\n\n    // confusion\n    function deposit(bytes32 ticker, uint256 amount)\n        external\n        isTokenExist(ticker)\n    {\n        // this is using interface to call transferFrom func of token contract\n        IERC20(tokens[ticker].tokenAddress).transferFrom(\n            msg.sender,\n            address(this),\n            amount\n        );\n\n        // record transaction in DEX ledger\n        tradersBalances[msg.sender][ticker] += amount;\n    }\n\n    function withdraw(bytes32 ticker, uint256 amount)\n        external\n        isTokenExist(ticker)\n    {\n        require(\n            tradersBalances[msg.sender][ticker] >= amount,\n            \"Insufficient balance\"\n        );\n\n        IERC20(tokens[ticker].tokenAddress).transfer(msg.sender, amount);\n\n        // record transaction in DEX ledger\n        tradersBalances[msg.sender][ticker] -= amount;\n    }\n}\n",
  "sourcePath": "/Users/deepanshusingh/blockchain projects/Personal DEX project/contracts/DEX.sol",
  "compiler": {
    "name": "solc",
    "version": "0.8.17+commit.8df45f5f.Emscripten.clang"
  },
  "schemaVersion": "3.4.10",
  "updatedAt": "2022-11-05T11:12:18.110Z",
  "networkType": "ethereum",
  "devdoc": {
    "kind": "dev",
    "methods": {},
    "version": 1
  },
  "userdoc": {
    "kind": "user",
    "methods": {},
    "version": 1
  }
}