{
  "contractName": "OrdersManagement",
  "abi": [
    {
      "anonymous": false,
      "inputs": [
        {
          "indexed": false,
          "internalType": "address",
          "name": "trader",
          "type": "address"
        },
        {
          "indexed": false,
          "internalType": "bytes32",
          "name": "ticker",
          "type": "bytes32"
        },
        {
          "indexed": false,
          "internalType": "enum OrdersManagement.Side",
          "name": "side",
          "type": "uint8"
        },
        {
          "indexed": false,
          "internalType": "uint256",
          "name": "amount",
          "type": "uint256"
        },
        {
          "indexed": false,
          "internalType": "uint256",
          "name": "averagePrice",
          "type": "uint256"
        },
        {
          "indexed": false,
          "internalType": "uint256",
          "name": "filled",
          "type": "uint256"
        }
      ],
      "name": "NewTrade",
      "type": "event"
    },
    {
      "anonymous": false,
      "inputs": [
        {
          "indexed": false,
          "internalType": "uint256",
          "name": "c",
          "type": "uint256"
        }
      ],
      "name": "log",
      "type": "event"
    },
    {
      "inputs": [
        {
          "internalType": "bytes32",
          "name": "ticker",
          "type": "bytes32"
        },
        {
          "internalType": "address",
          "name": "traderAddress",
          "type": "address"
        }
      ],
      "name": "getBalance",
      "outputs": [
        {
          "internalType": "uint256",
          "name": "",
          "type": "uint256"
        }
      ],
      "stateMutability": "view",
      "type": "function"
    },
    {
      "inputs": [],
      "name": "owner",
      "outputs": [
        {
          "internalType": "address",
          "name": "",
          "type": "address"
        }
      ],
      "stateMutability": "view",
      "type": "function"
    },
    {
      "inputs": [
        {
          "internalType": "bytes32",
          "name": "",
          "type": "bytes32"
        }
      ],
      "name": "tokens",
      "outputs": [
        {
          "internalType": "bytes32",
          "name": "ticker",
          "type": "bytes32"
        },
        {
          "internalType": "string",
          "name": "tokenName",
          "type": "string"
        },
        {
          "internalType": "address",
          "name": "tokenAddress",
          "type": "address"
        }
      ],
      "stateMutability": "view",
      "type": "function"
    },
    {
      "inputs": [
        {
          "internalType": "uint256",
          "name": "",
          "type": "uint256"
        }
      ],
      "name": "tokensList",
      "outputs": [
        {
          "internalType": "bytes32",
          "name": "",
          "type": "bytes32"
        }
      ],
      "stateMutability": "view",
      "type": "function"
    },
    {
      "inputs": [
        {
          "internalType": "bytes32",
          "name": "ticker",
          "type": "bytes32"
        },
        {
          "internalType": "enum OrdersManagement.Side",
          "name": "side",
          "type": "uint8"
        },
        {
          "internalType": "uint256",
          "name": "amount",
          "type": "uint256"
        },
        {
          "internalType": "uint256",
          "name": "price",
          "type": "uint256"
        }
      ],
      "name": "LimitOrder",
      "outputs": [],
      "stateMutability": "nonpayable",
      "type": "function"
    },
    {
      "inputs": [
        {
          "internalType": "bytes32",
          "name": "ticker",
          "type": "bytes32"
        },
        {
          "internalType": "enum OrdersManagement.Side",
          "name": "side",
          "type": "uint8"
        },
        {
          "internalType": "uint256",
          "name": "amount",
          "type": "uint256"
        }
      ],
      "name": "MarketOrder",
      "outputs": [],
      "stateMutability": "nonpayable",
      "type": "function"
    },
    {
      "inputs": [
        {
          "internalType": "bytes32",
          "name": "ticker",
          "type": "bytes32"
        },
        {
          "internalType": "enum OrdersManagement.Side",
          "name": "side",
          "type": "uint8"
        }
      ],
      "name": "getOrders",
      "outputs": [
        {
          "components": [
            {
              "internalType": "uint256",
              "name": "id",
              "type": "uint256"
            },
            {
              "internalType": "address",
              "name": "trader",
              "type": "address"
            },
            {
              "internalType": "bytes32",
              "name": "ticker",
              "type": "bytes32"
            },
            {
              "internalType": "enum OrdersManagement.Side",
              "name": "side",
              "type": "uint8"
            },
            {
              "internalType": "uint256",
              "name": "amount",
              "type": "uint256"
            },
            {
              "internalType": "uint256",
              "name": "price",
              "type": "uint256"
            },
            {
              "internalType": "uint256",
              "name": "filledAmount",
              "type": "uint256"
            }
          ],
          "internalType": "struct OrdersManagement.Order[]",
          "name": "",
          "type": "tuple[]"
        }
      ],
      "stateMutability": "view",
      "type": "function"
    }
  ],
  "bytecode": "0x608060405234801561001057600080fd5b506126f9806100206000396000f3fe608060405234801561001057600080fd5b506004361061007d5760003560e01c8063627e89b31161005b578063627e89b3146101125780638da5cb5b1461012e578063904194a31461014c578063ef5099b41461017e5761007d565b806346e9658b146100825780634d12e34e146100b2578063530e931c146100e2575b600080fd5b61009c60048036038101906100979190611b6d565b61019a565b6040516100a99190611dca565b60405180910390f35b6100cc60048036038101906100c79190611e18565b610305565b6040516100d99190611e54565b60405180910390f35b6100fc60048036038101906100f79190611e9b565b610329565b6040516101099190611eea565b60405180910390f35b61012c60048036038101906101279190611f05565b6103e1565b005b610136610d63565b6040516101439190611f67565b60405180910390f35b61016660048036038101906101619190611f82565b610d87565b6040516101759392919061203f565b60405180910390f35b6101986004803603810190610193919061207d565b610e59565b005b60606005600084815260200190815260200160002060008360018111156101c4576101c3611c42565b5b60018111156101d6576101d5611c42565b5b8152602001908152602001600020805480602002602001604051908101604052809291908181526020016000905b828210156102f957838290600052602060002090600702016040518060e0016040529081600082015481526020016001820160009054906101000a900473ffffffffffffffffffffffffffffffffffffffff1673ffffffffffffffffffffffffffffffffffffffff1673ffffffffffffffffffffffffffffffffffffffff168152602001600282015481526020016003820160009054906101000a900460ff1660018111156102b6576102b5611c42565b5b60018111156102c8576102c7611c42565b5b8152602001600482015481526020016005820154815260200160068201548152505081526020019060010190610204565b50505050905092915050565b6001818154811061031557600080fd5b906000526020600020016000915090505481565b6000826000801b600260008381526020019081526020016000206000015403610387576040517f08c379a000000000000000000000000000000000000000000000000000000000815260040161037e90612130565b60405180910390fd5b600360008473ffffffffffffffffffffffffffffffffffffffff1673ffffffffffffffffffffffffffffffffffffffff16815260200190815260200160002060008581526020019081526020016000205491505092915050565b826000801b60026000838152602001908152602001600020600001540361043d576040517f08c379a000000000000000000000000000000000000000000000000000000000815260040161043490612130565b60405180910390fd5b6000600181111561045157610450611c42565b5b83600181111561046457610463611c42565b5b03156104f9576104748433610329565b821115846040516020016104889190612171565b6040516020818303038152906040526040516020016104a791906121ee565b604051602081830303815290604052906104f7576040517f08c379a00000000000000000000000000000000000000000000000000000000081526004016104ee9190612214565b60405180910390fd5b505b600060056000868152602001908152602001600020600080600181111561052357610522611c42565b5b86600181111561053657610535611c42565b5b14610542576000610545565b60015b600181111561055757610556611c42565b5b600181111561056957610568611c42565b5b815260200190815260200160002090506000839050600080600181111561059357610592611c42565b5b8660018111156105a6576105a5611c42565b5b146105c157600183805490506105bc919061226f565b6105c4565b60005b90506000805b600084141580156105fa57507fffffffffffffffffffffffffffffffffffffffffffffffffffffffffffffffff83135b80156106095750848054905083125b15610cc9576000858481548110610623576106226122b2565b5b9060005260206000209060070201905060008160060154826004015461064991906122e1565b9050600086821061065c57869050610660565b8190505b6000600181111561067457610673611c42565b5b8b600181111561068757610686611c42565b5b0361075557600083600501548261069e9190612315565b905080600360003373ffffffffffffffffffffffffffffffffffffffff1673ffffffffffffffffffffffffffffffffffffffff16815260200190815260200160002060007f44414900000000000000000000000000000000000000000000000000000000008152602001908152602001600020541015610753576040517f08c379a000000000000000000000000000000000000000000000000000000000815260040161074a906123a3565b60405180910390fd5b505b80888781548110610769576107686122b2565b5b9060005260206000209060070201600601600082825461078991906123c3565b92505081905550600060018111156107a4576107a3611c42565b5b8b60018111156107b7576107b6611c42565b5b03610a035780600360003373ffffffffffffffffffffffffffffffffffffffff1673ffffffffffffffffffffffffffffffffffffffff16815260200190815260200160002060008e8152602001908152602001600020600082825461081c91906123c3565b925050819055508260050154816108339190612315565b600360003373ffffffffffffffffffffffffffffffffffffffff1673ffffffffffffffffffffffffffffffffffffffff16815260200190815260200160002060007f4441490000000000000000000000000000000000000000000000000000000000815260200190815260200160002060008282546108b291906122e1565b9250508190555080600360008560010160009054906101000a900473ffffffffffffffffffffffffffffffffffffffff1673ffffffffffffffffffffffffffffffffffffffff1673ffffffffffffffffffffffffffffffffffffffff16815260200190815260200160002060008e8152602001908152602001600020600082825461093d91906122e1565b925050819055508260050154816109549190612315565b600360008560010160009054906101000a900473ffffffffffffffffffffffffffffffffffffffff1673ffffffffffffffffffffffffffffffffffffffff1673ffffffffffffffffffffffffffffffffffffffff16815260200190815260200160002060007f4441490000000000000000000000000000000000000000000000000000000000815260200190815260200160002060008282546109f791906123c3565b92505081905550610c46565b80600360003373ffffffffffffffffffffffffffffffffffffffff1673ffffffffffffffffffffffffffffffffffffffff16815260200190815260200160002060008e81526020019081526020016000206000828254610a6391906122e1565b92505081905550826005015481610a7a9190612315565b600360003373ffffffffffffffffffffffffffffffffffffffff1673ffffffffffffffffffffffffffffffffffffffff16815260200190815260200160002060007f444149000000000000000000000000000000000000000000000000000000000081526020019081526020016000206000828254610af991906123c3565b9250508190555080600360008560010160009054906101000a900473ffffffffffffffffffffffffffffffffffffffff1673ffffffffffffffffffffffffffffffffffffffff1673ffffffffffffffffffffffffffffffffffffffff16815260200190815260200160002060008e81526020019081526020016000206000828254610b8491906123c3565b92505081905550826005015481610b9b9190612315565b600360008560010160009054906101000a900473ffffffffffffffffffffffffffffffffffffffff1673ffffffffffffffffffffffffffffffffffffffff1673ffffffffffffffffffffffffffffffffffffffff16815260200190815260200160002060007f444149000000000000000000000000000000000000000000000000000000000081526020019081526020016000206000828254610c3e91906122e1565b925050819055505b8087610c5291906122e1565b9650826005015485610c6491906123c3565b94508380610c71906123f7565b94505060006001811115610c8857610c87611c42565b5b8b6001811115610c9b57610c9a611c42565b5b14610cb2578580610cab9061243f565b9650610cc0565b8580610cbd90612487565b96505b505050506105ca565b610cd3858961112e565b506000811115610d58576000876064868a610cee91906122e1565b610cf89190612315565b610d0291906124fe565b905060008284610d1291906124fe565b90507f1fd2dbfc8346e62b50fd4267a5cf8a03dd83cad0e15058cefd21a91ab03c309f338c8c8c8587604051610d4d9695949392919061253e565b60405180910390a150505b505050505050505050565b60008054906101000a900473ffffffffffffffffffffffffffffffffffffffff1681565b6002602052806000526040600020600091509050806000015490806001018054610db0906125ce565b80601f0160208091040260200160405190810160405280929190818152602001828054610ddc906125ce565b8015610e295780601f10610dfe57610100808354040283529160200191610e29565b820191906000526020600020905b815481529060010190602001808311610e0c57829003601f168201915b5050505050908060020160009054906101000a900473ffffffffffffffffffffffffffffffffffffffff16905083565b836000801b600260008381526020019081526020016000206000015403610eb5576040517f08c379a0000000000000000000000000000000000000000000000000000000008152600401610eac90612130565b60405180910390fd5b60006001811115610ec957610ec8611c42565b5b846001811115610edc57610edb611c42565b5b03610f635760008284610eef9190612315565b9050610f1b7f444149000000000000000000000000000000000000000000000000000000000033610329565b811115610f5d576040517f08c379a0000000000000000000000000000000000000000000000000000000008152600401610f549061264b565b60405180910390fd5b50610ff2565b610f6d8533610329565b83111585604051602001610f819190612171565b604051602081830303815290604052604051602001610fa091906121ee565b60405160208183030381529060405290610ff0576040517f08c379a0000000000000000000000000000000000000000000000000000000008152600401610fe79190612214565b60405180910390fd5b505b600060056000878152602001908152602001600020600086600181111561101c5761101b611c42565b5b600181111561102e5761102d611c42565b5b8152602001908152602001600020905060006040518060e00160405280600160045461105a91906123c3565b81526020013373ffffffffffffffffffffffffffffffffffffffff16815260200188815260200187600181111561109457611093611c42565b5b8152602001868152602001858152602001600081525090506110b68183611501565b6005600089815260200190815260200160002060008860018111156110de576110dd611c42565b5b60018111156110f0576110ef611c42565b5b815260200190815260200160002090805461110c929190611965565b5060046000815480929190611120906123f7565b919050555050505050505050565b6000806000600181111561114557611144611c42565b5b83600181111561115857611157611c42565b5b14611173576001848054905061116e919061226f565b611176565b60005b90505b8380549050811280156111ab57507fffffffffffffffffffffffffffffffffffffffffffffffffffffffffffffffff81135b80156111fe57508381815481106111c5576111c46122b2565b5b9060005260206000209060070201600401548482815481106111ea576111e96122b2565b5b906000526020600020906007020160060154145b156114f7576000600181111561121757611216611c42565b5b83600181111561122a57611229611c42565b5b036114175760005b6001858054905061124391906122e1565b811015611384578460018261125891906123c3565b81548110611269576112686122b2565b5b906000526020600020906007020185828154811061128a576112896122b2565b5b9060005260206000209060070201600082015481600001556001820160009054906101000a900473ffffffffffffffffffffffffffffffffffffffff168160010160006101000a81548173ffffffffffffffffffffffffffffffffffffffff021916908373ffffffffffffffffffffffffffffffffffffffff160217905550600282015481600201556003820160009054906101000a900460ff168160030160006101000a81548160ff0219169083600181111561134b5761134a611c42565b5b0217905550600482015481600401556005820154816005015560068201548160060155905050808061137c906123f7565b915050611232565b50838054806113965761139561266b565b5b60019003818190600052602060002090600702016000808201600090556001820160006101000a81549073ffffffffffffffffffffffffffffffffffffffff021916905560028201600090556003820160006101000a81549060ff0219169055600482016000905560058201600090556006820160009055505090556114a5565b838054806114285761142761266b565b5b60019003818190600052602060002090600702016000808201600090556001820160006101000a81549073ffffffffffffffffffffffffffffffffffffffff021916905560028201600090556003820160006101000a81549060ff0219169055600482016000905560058201600090556006820160009055505090555b600060018111156114b9576114b8611c42565b5b8360018111156114cc576114cb611c42565b5b146114e35780806114dc9061243f565b91506114f1565b80806114ee90612487565b91505b50611179565b8391505092915050565b6000818390806001815401808255809150506001900390600052602060002090600702016000909190919091506000820151816000015560208201518160010160006101000a81548173ffffffffffffffffffffffffffffffffffffffff021916908373ffffffffffffffffffffffffffffffffffffffff1602179055506040820151816002015560608201518160030160006101000a81548160ff021916908360018111156115b4576115b3611c42565b5b02179055506080820151816004015560a0820151816005015560c0820151816006015550506000600183805490506115ec91906122e1565b90505b6001810361195b578260018261160591906122e1565b81548110611616576116156122b2565b5b90600052602060002090600702016005015483828154811061163b5761163a6122b2565b5b906000526020600020906007020160050154101561195b5760008360018361166391906122e1565b81548110611674576116736122b2565b5b90600052602060002090600702016040518060e0016040529081600082015481526020016001820160009054906101000a900473ffffffffffffffffffffffffffffffffffffffff1673ffffffffffffffffffffffffffffffffffffffff1673ffffffffffffffffffffffffffffffffffffffff168152602001600282015481526020016003820160009054906101000a900460ff16600181111561171c5761171b611c42565b5b600181111561172e5761172d611c42565b5b815260200160048201548152602001600582015481526020016006820154815250509050838281548110611765576117646122b2565b5b90600052602060002090600702018460018461178191906122e1565b81548110611792576117916122b2565b5b9060005260206000209060070201600082015481600001556001820160009054906101000a900473ffffffffffffffffffffffffffffffffffffffff168160010160006101000a81548173ffffffffffffffffffffffffffffffffffffffff021916908373ffffffffffffffffffffffffffffffffffffffff160217905550600282015481600201556003820160009054906101000a900460ff168160030160006101000a81548160ff0219169083600181111561185357611852611c42565b5b02179055506004820154816004015560058201548160050155600682015481600601559050508084838154811061188d5761188c6122b2565b5b90600052602060002090600702016000820151816000015560208201518160010160006101000a81548173ffffffffffffffffffffffffffffffffffffffff021916908373ffffffffffffffffffffffffffffffffffffffff1602179055506040820151816002015560608201518160030160006101000a81548160ff0219169083600181111561192157611920611c42565b5b02179055506080820151816004015560a0820151816005015560c082015181600601559050505080806119539061269a565b9150506115ef565b5081905092915050565b828054828255906000526020600020906007028101928215611a825760005260206000209160070282015b82811115611a81578282600082015481600001556001820160009054906101000a900473ffffffffffffffffffffffffffffffffffffffff168160010160006101000a81548173ffffffffffffffffffffffffffffffffffffffff021916908373ffffffffffffffffffffffffffffffffffffffff160217905550600282015481600201556003820160009054906101000a900460ff168160030160006101000a81548160ff02191690836001811115611a4d57611a4c611c42565b5b0217905550600482015481600401556005820154816005015560068201548160060155505091600701919060070190611990565b5b509050611a8f9190611a93565b5090565b5b80821115611b09576000808201600090556001820160006101000a81549073ffffffffffffffffffffffffffffffffffffffff021916905560028201600090556003820160006101000a81549060ff021916905560048201600090556005820160009055600682016000905550600701611a94565b5090565b600080fd5b6000819050919050565b611b2581611b12565b8114611b3057600080fd5b50565b600081359050611b4281611b1c565b92915050565b60028110611b5557600080fd5b50565b600081359050611b6781611b48565b92915050565b60008060408385031215611b8457611b83611b0d565b5b6000611b9285828601611b33565b9250506020611ba385828601611b58565b9150509250929050565b600081519050919050565b600082825260208201905092915050565b6000819050602082019050919050565b6000819050919050565b611bec81611bd9565b82525050565b600073ffffffffffffffffffffffffffffffffffffffff82169050919050565b6000611c1d82611bf2565b9050919050565b611c2d81611c12565b82525050565b611c3c81611b12565b82525050565b7f4e487b7100000000000000000000000000000000000000000000000000000000600052602160045260246000fd5b60028110611c8257611c81611c42565b5b50565b6000819050611c9382611c71565b919050565b6000611ca382611c85565b9050919050565b611cb381611c98565b82525050565b60e082016000820151611ccf6000850182611be3565b506020820151611ce26020850182611c24565b506040820151611cf56040850182611c33565b506060820151611d086060850182611caa565b506080820151611d1b6080850182611be3565b5060a0820151611d2e60a0850182611be3565b5060c0820151611d4160c0850182611be3565b50505050565b6000611d538383611cb9565b60e08301905092915050565b6000602082019050919050565b6000611d7782611bad565b611d818185611bb8565b9350611d8c83611bc9565b8060005b83811015611dbd578151611da48882611d47565b9750611daf83611d5f565b925050600181019050611d90565b5085935050505092915050565b60006020820190508181036000830152611de48184611d6c565b905092915050565b611df581611bd9565b8114611e0057600080fd5b50565b600081359050611e1281611dec565b92915050565b600060208284031215611e2e57611e2d611b0d565b5b6000611e3c84828501611e03565b91505092915050565b611e4e81611b12565b82525050565b6000602082019050611e696000830184611e45565b92915050565b611e7881611c12565b8114611e8357600080fd5b50565b600081359050611e9581611e6f565b92915050565b60008060408385031215611eb257611eb1611b0d565b5b6000611ec085828601611b33565b9250506020611ed185828601611e86565b9150509250929050565b611ee481611bd9565b82525050565b6000602082019050611eff6000830184611edb565b92915050565b600080600060608486031215611f1e57611f1d611b0d565b5b6000611f2c86828701611b33565b9350506020611f3d86828701611b58565b9250506040611f4e86828701611e03565b9150509250925092565b611f6181611c12565b82525050565b6000602082019050611f7c6000830184611f58565b92915050565b600060208284031215611f9857611f97611b0d565b5b6000611fa684828501611b33565b91505092915050565b600081519050919050565b600082825260208201905092915050565b60005b83811015611fe9578082015181840152602081019050611fce565b60008484015250505050565b6000601f19601f8301169050919050565b600061201182611faf565b61201b8185611fba565b935061202b818560208601611fcb565b61203481611ff5565b840191505092915050565b60006060820190506120546000830186611e45565b81810360208301526120668185612006565b90506120756040830184611f58565b949350505050565b6000806000806080858703121561209757612096611b0d565b5b60006120a587828801611b33565b94505060206120b687828801611b58565b93505060406120c787828801611e03565b92505060606120d887828801611e03565b91505092959194509250565b7f54686520746f6b656e20646f6573206e6f742065786973740000000000000000600082015250565b600061211a601883611fba565b9150612125826120e4565b602082019050919050565b600060208201905081810360008301526121498161210d565b9050919050565b6000819050919050565b61216b61216682611b12565b612150565b82525050565b600061217d828461215a565b60208201915081905092915050565b7f596f7520646f6e2774206861766520656e6f7567682000000000000000000000815250565b600081905092915050565b60006121c882611faf565b6121d281856121b2565b93506121e2818560208601611fcb565b80840191505092915050565b60006121f98261218c565b60168201915061220982846121bd565b915081905092915050565b6000602082019050818103600083015261222e8184612006565b905092915050565b6000819050919050565b7f4e487b7100000000000000000000000000000000000000000000000000000000600052601160045260246000fd5b600061227a82612236565b915061228583612236565b92508282039050818112600084121682821360008512151617156122ac576122ab612240565b5b92915050565b7f4e487b7100000000000000000000000000000000000000000000000000000000600052603260045260246000fd5b60006122ec82611bd9565b91506122f783611bd9565b925082820390508181111561230f5761230e612240565b5b92915050565b600061232082611bd9565b915061232b83611bd9565b925082820261233981611bd9565b915082820484148315176123505761234f612240565b5b5092915050565b7f4e6f7420656e6f75676820444149000000000000000000000000000000000000600082015250565b600061238d600e83611fba565b915061239882612357565b602082019050919050565b600060208201905081810360008301526123bc81612380565b9050919050565b60006123ce82611bd9565b91506123d983611bd9565b92508282019050808211156123f1576123f0612240565b5b92915050565b600061240282611bd9565b91507fffffffffffffffffffffffffffffffffffffffffffffffffffffffffffffffff820361243457612433612240565b5b600182019050919050565b600061244a82612236565b91507f8000000000000000000000000000000000000000000000000000000000000000820361247c5761247b612240565b5b600182039050919050565b600061249282612236565b91507f7fffffffffffffffffffffffffffffffffffffffffffffffffffffffffffffff82036124c4576124c3612240565b5b600182019050919050565b7f4e487b7100000000000000000000000000000000000000000000000000000000600052601260045260246000fd5b600061250982611bd9565b915061251483611bd9565b925082612524576125236124cf565b5b828204905092915050565b61253881611c98565b82525050565b600060c0820190506125536000830189611f58565b6125606020830188611e45565b61256d604083018761252f565b61257a6060830186611edb565b6125876080830185611edb565b61259460a0830184611edb565b979650505050505050565b7f4e487b7100000000000000000000000000000000000000000000000000000000600052602260045260246000fd5b600060028204905060018216806125e657607f821691505b6020821081036125f9576125f861259f565b5b50919050565b7f596f7520646f6e2774206861766520656e6f7567682044414900000000000000600082015250565b6000612635601983611fba565b9150612640826125ff565b602082019050919050565b6000602082019050818103600083015261266481612628565b9050919050565b7f4e487b7100000000000000000000000000000000000000000000000000000000600052603160045260246000fd5b60006126a582611bd9565b9150600082036126b8576126b7612240565b5b60018203905091905056fea26469706673582212207e40b66a26b297783e2f1e29d08c2981baac01f611b616aa52dc8240ed4bd75864736f6c63430008110033",
  "immutableReferences": {},
  "source": "// SPDX-License-Identifier: MIT\n\npragma solidity ^0.8.4;\nimport \"@openzeppelin/contracts/token/ERC20/IERC20.sol\";\nimport {Strings} from \"@openzeppelin/contracts/utils/Strings.sol\";\nimport \"./baseContract.sol\";\nimport \"./Traders.sol\";\nimport \"hardhat/console.sol\";\n\ncontract OrdersManagement is Helper, Traders {\n    /* This contract has following functionalities\n     1. Create Limit order\n     2. Create Market order\n     3. Update order book\n     4. update trader balances\n     */\n\n    enum Side {\n        BUY,\n        SELL\n    }\n    uint256 lastOrderID;\n\n    struct Order {\n        uint256 id;\n        address trader;\n        bytes32 ticker;\n        Side side;\n        uint256 amount;\n        uint256 price;\n        uint256 filledAmount;\n    }\n\n    event NewTrade(\n        address trader,\n        bytes32 ticker,\n        Side side,\n        uint256 amount,\n        uint256 averagePrice,\n        uint256 filled\n    );\n    event log(uint256 c);\n\n    mapping(bytes32 => mapping(Side => Order[])) OrderBook;\n\n    function LimitOrder(\n        bytes32 ticker,\n        Side side,\n        uint256 amount,\n        uint256 price\n    ) external isTokenExist(ticker) {\n        if (side == Side.BUY) {\n            // trader must have enough DAI tokens\n            uint256 requiredDaiTokens = amount * price;\n            require(\n                requiredDaiTokens <= getBalance(DAI, msg.sender),\n                \"You don't have enough DAI\"\n            );\n        } else {\n            // trader must have enough ticker tokens\n            require(\n                amount <= getBalance(ticker, msg.sender),\n                string.concat(\n                    \"You don't have enough \",\n                    string(abi.encodePacked(ticker))\n                )\n            );\n        }\n\n        Order[] storage orders = OrderBook[ticker][side];\n\n        Order memory neworder = Order(\n            lastOrderID + 1,\n            msg.sender,\n            ticker,\n            side,\n            amount,\n            price,\n            0\n        );\n\n        // Create an order in order book\n        OrderBook[ticker][side] = InsertInOrdersArray(neworder, orders);\n        lastOrderID++;\n    }\n\n    function MarketOrder(\n        bytes32 ticker,\n        Side side,\n        uint256 amount\n    ) external isTokenExist(ticker) {\n        if (side == Side.BUY) {\n            // Right now we don't know how much DAI tokens are required\n        } else {\n            // trader must have enough ticker tokens\n            require(\n                amount <= getBalance(ticker, msg.sender),\n                string.concat(\n                    \"You don't have enough \",\n                    string(abi.encodePacked(ticker))\n                )\n            );\n        }\n\n        // Going through the Order Book to find the best match\n        // orders is an ascending array [4]\n        // If buy order, then we interseted in lowest price. left to right in the array\n        // If sell order, then we interseted in highest price. right to left in the array\n        Order[] storage orders = OrderBook[ticker][\n            side == Side.BUY ? Side.SELL : Side.BUY\n        ];\n        uint256 tradeRemainingToBefilled = amount; //2\n        int256 i = (side == Side.BUY) ? int256(0) : int256(orders.length) - 1; //0\n\n        // to calculate average price\n        uint256 totalPrice;\n        uint256 totalTrades;\n\n        while (\n            tradeRemainingToBefilled != 0 && i > -1 && i < int256(orders.length)\n        ) {\n            // current order in orderbook\n            Order storage currentOrder = orders[uint256(i)];\n            uint256 availableCurrentOrder = currentOrder.amount -\n                currentOrder.filledAmount;\n\n            uint256 processAmount;\n\n            if (availableCurrentOrder >= tradeRemainingToBefilled) {\n                processAmount = tradeRemainingToBefilled;\n            } else {\n                processAmount = availableCurrentOrder;\n            }\n\n            if (side == Side.BUY) {\n                // Now we know the price, checking if trader have enough DAI\n                uint256 DaiRequired = processAmount * currentOrder.price;\n                require(\n                    tradersBalances[msg.sender][DAI] >= DaiRequired,\n                    \"Not enough DAI\"\n                );\n            }\n\n            // upadate order book\n            orders[uint256(i)].filledAmount += processAmount;\n\n            if (side == Side.BUY) {\n                // update market order trader's balance\n                tradersBalances[msg.sender][ticker] += processAmount;\n                tradersBalances[msg.sender][DAI] -=\n                    processAmount *\n                    currentOrder.price;\n\n                // update limit order trader's balance\n                tradersBalances[currentOrder.trader][ticker] -= processAmount;\n                tradersBalances[currentOrder.trader][DAI] +=\n                    processAmount *\n                    currentOrder.price;\n            } else {\n                // update market order trader's balance\n                tradersBalances[msg.sender][ticker] -= processAmount;\n                tradersBalances[msg.sender][DAI] +=\n                    processAmount *\n                    currentOrder.price;\n\n                // update limit order trader's balance\n                tradersBalances[currentOrder.trader][ticker] += processAmount;\n                tradersBalances[currentOrder.trader][DAI] -=\n                    processAmount *\n                    currentOrder.price;\n            }\n\n            tradeRemainingToBefilled -= processAmount;\n\n            totalPrice += currentOrder.price;\n            totalTrades++;\n\n            // if buy order, iterate to right and vice versa\n\n            side == Side.BUY ? i++ : i--;\n        }\n\n        clearOrderBook(orders, side);\n\n        if (totalTrades > 0) {\n            uint256 filled = ((amount - tradeRemainingToBefilled) * 100) /\n                amount;\n            uint256 averagePrice = totalPrice / totalTrades;\n\n            emit NewTrade(\n                msg.sender,\n                ticker,\n                side,\n                amount,\n                averagePrice,\n                filled\n            );\n        }\n    }\n\n    function getOrders(bytes32 ticker, Side side)\n        external\n        view\n        returns (Order[] memory)\n    {\n        return OrderBook[ticker][side];\n    }\n\n    // Remove orders that are filled from order book\n\n    function clearOrderBook(Order[] storage _orders, Side last_side)\n        private\n        returns (Order[] storage)\n    {\n        int256 i = last_side == Side.BUY\n            ? int256(0)\n            : int256(_orders.length) - 1;\n        while (\n            i < int256(_orders.length) &&\n            i > -1 &&\n            _orders[uint256(i)].filledAmount == _orders[uint256(i)].amount\n        ) {\n            if (last_side == Side.BUY) {\n                for (uint256 j = 0; j < (_orders.length) - 1; j++) {\n                    _orders[j] = _orders[j + 1];\n                }\n                _orders.pop();\n            } else {\n                _orders.pop();\n            }\n            last_side == Side.BUY ? i++ : i--;\n        }\n        return _orders;\n    }\n\n    function InsertInOrdersArray(Order memory order, Order[] storage _orders)\n        private\n        returns (Order[] storage)\n    {\n        _orders.push(order);\n        for (uint256 i = _orders.length - 1; i == 1; i--) {\n            if (_orders[i].price >= _orders[i - 1].price) {\n                break;\n            }\n            // swap to left\n            Order memory temp = _orders[i - 1];\n            _orders[i - 1] = _orders[i];\n            _orders[i] = temp;\n        }\n        return _orders;\n    }\n}\n",
  "sourcePath": "/Users/deepanshusingh/blockchain projects/Personal DEX project/contracts/Orders.sol",
  "compiler": {
    "name": "solc",
    "version": "0.8.17+commit.8df45f5f.Emscripten.clang"
  },
  "schemaVersion": "3.4.10",
  "updatedAt": "2022-11-05T11:12:13.582Z",
  "devdoc": {
    "kind": "dev",
    "methods": {},
    "version": 1
  },
  "userdoc": {
    "kind": "user",
    "methods": {},
    "version": 1
  }
}