{
  "contractName": "Traders",
  "abi": [
    {
      "inputs": [],
      "name": "owner",
      "outputs": [
        {
          "internalType": "address",
          "name": "",
          "type": "address"
        }
      ],
      "stateMutability": "view",
      "type": "function"
    },
    {
      "inputs": [
        {
          "internalType": "bytes32",
          "name": "",
          "type": "bytes32"
        }
      ],
      "name": "tokens",
      "outputs": [
        {
          "internalType": "bytes32",
          "name": "ticker",
          "type": "bytes32"
        },
        {
          "internalType": "string",
          "name": "tokenName",
          "type": "string"
        },
        {
          "internalType": "address",
          "name": "tokenAddress",
          "type": "address"
        }
      ],
      "stateMutability": "view",
      "type": "function"
    },
    {
      "inputs": [
        {
          "internalType": "uint256",
          "name": "",
          "type": "uint256"
        }
      ],
      "name": "tokensList",
      "outputs": [
        {
          "internalType": "bytes32",
          "name": "",
          "type": "bytes32"
        }
      ],
      "stateMutability": "view",
      "type": "function"
    },
    {
      "inputs": [
        {
          "internalType": "bytes32",
          "name": "ticker",
          "type": "bytes32"
        },
        {
          "internalType": "address",
          "name": "traderAddress",
          "type": "address"
        }
      ],
      "name": "getBalance",
      "outputs": [
        {
          "internalType": "uint256",
          "name": "",
          "type": "uint256"
        }
      ],
      "stateMutability": "view",
      "type": "function"
    }
  ],
  "bytecode": "0x608060405234801561001057600080fd5b5061068a806100206000396000f3fe608060405234801561001057600080fd5b506004361061004c5760003560e01c80634d12e34e14610051578063530e931c146100815780638da5cb5b146100b1578063904194a3146100cf575b600080fd5b61006b6004803603810190610066919061030e565b610101565b6040516100789190610354565b60405180910390f35b61009b600480360381019061009691906103f9565b610125565b6040516100a89190610448565b60405180910390f35b6100b96101dd565b6040516100c69190610472565b60405180910390f35b6100e960048036038101906100e4919061048d565b610201565b6040516100f89392919061054a565b60405180910390f35b6001818154811061011157600080fd5b906000526020600020016000915090505481565b6000826000801b600260008381526020019081526020016000206000015403610183576040517f08c379a000000000000000000000000000000000000000000000000000000000815260040161017a906105d4565b60405180910390fd5b600360008473ffffffffffffffffffffffffffffffffffffffff1673ffffffffffffffffffffffffffffffffffffffff16815260200190815260200160002060008581526020019081526020016000205491505092915050565b60008054906101000a900473ffffffffffffffffffffffffffffffffffffffff1681565b600260205280600052604060002060009150905080600001549080600101805461022a90610623565b80601f016020809104026020016040519081016040528092919081815260200182805461025690610623565b80156102a35780601f10610278576101008083540402835291602001916102a3565b820191906000526020600020905b81548152906001019060200180831161028657829003601f168201915b5050505050908060020160009054906101000a900473ffffffffffffffffffffffffffffffffffffffff16905083565b600080fd5b6000819050919050565b6102eb816102d8565b81146102f657600080fd5b50565b600081359050610308816102e2565b92915050565b600060208284031215610324576103236102d3565b5b6000610332848285016102f9565b91505092915050565b6000819050919050565b61034e8161033b565b82525050565b60006020820190506103696000830184610345565b92915050565b6103788161033b565b811461038357600080fd5b50565b6000813590506103958161036f565b92915050565b600073ffffffffffffffffffffffffffffffffffffffff82169050919050565b60006103c68261039b565b9050919050565b6103d6816103bb565b81146103e157600080fd5b50565b6000813590506103f3816103cd565b92915050565b600080604083850312156104105761040f6102d3565b5b600061041e85828601610386565b925050602061042f858286016103e4565b9150509250929050565b610442816102d8565b82525050565b600060208201905061045d6000830184610439565b92915050565b61046c816103bb565b82525050565b60006020820190506104876000830184610463565b92915050565b6000602082840312156104a3576104a26102d3565b5b60006104b184828501610386565b91505092915050565b600081519050919050565b600082825260208201905092915050565b60005b838110156104f45780820151818401526020810190506104d9565b60008484015250505050565b6000601f19601f8301169050919050565b600061051c826104ba565b61052681856104c5565b93506105368185602086016104d6565b61053f81610500565b840191505092915050565b600060608201905061055f6000830186610345565b81810360208301526105718185610511565b90506105806040830184610463565b949350505050565b7f54686520746f6b656e20646f6573206e6f742065786973740000000000000000600082015250565b60006105be6018836104c5565b91506105c982610588565b602082019050919050565b600060208201905081810360008301526105ed816105b1565b9050919050565b7f4e487b7100000000000000000000000000000000000000000000000000000000600052602260045260246000fd5b6000600282049050600182168061063b57607f821691505b60208210810361064e5761064d6105f4565b5b5091905056fea2646970667358221220e5a0374bd204d3d7f05d6f336f8a2877cbf0cf79b5f15d02e32f2342f51c217464736f6c63430008110033",
  "immutableReferences": {},
  "source": "// SPDX-License-Identifier: MIT\n\npragma solidity ^0.8.4;\nimport \"@openzeppelin/contracts/token/ERC20/IERC20.sol\";\nimport \"./baseContract.sol\";\n\ncontract Traders is Helper {\n    /* This contract has following functionalities\n     1. Create Limit order\n     2. Create Market order\n     */\n\n    mapping(address => mapping(bytes32 => uint256)) tradersBalances;\n\n    function getBalance(bytes32 ticker, address traderAddress)\n        public\n        view\n        isTokenExist(ticker)\n        returns (uint256)\n    {\n        return tradersBalances[traderAddress][ticker];\n    }\n}\n",
  "sourcePath": "/Users/deepanshusingh/blockchain projects/Personal DEX project/contracts/Traders.sol",
  "compiler": {
    "name": "solc",
    "version": "0.8.17+commit.8df45f5f.Emscripten.clang"
  },
  "schemaVersion": "3.4.10",
  "updatedAt": "2022-11-01T19:54:19.823Z",
  "devdoc": {
    "kind": "dev",
    "methods": {},
    "version": 1
  },
  "userdoc": {
    "kind": "user",
    "methods": {},
    "version": 1
  }
}